:020000040800F2
:10000000101200205902000861360008192E00085D
:100010005D36000855080008C141000800000000D6
:100020000000000000000000000000006B0200085B
:1000300059080008000000008D030008250300088F
:1000400073020008730200087302000873020008BC
:100050007302000873020008730200085D080008BC
:10006000730200087302000873020008730200089C
:10007000730200087302000873020008730200088C
:10008000730200087302000873020008730200087C
:10009000730200087302000873020008730200086C
:1000A000730200087302000873020008730200085C
:1000B0007302000800000000000000007302000846
:1000C0007302000800000000000000007302000836
:1000D0000000000073020008730200080000000026
:1000E0007302000873020008000000000000000016
:1000F0000000000000000000000000000000000000
:100100000000000000000000000000007302000872
:1001100000000000000000007302000873020008E5
:1001200073020008730200087302000873020008DB
:100130007302000800000000000000000000000042
:1001400073020008730200087302000873020008BB
:1001500073020008730200087302000873020008AB
:100160007302000873020008730200080000000018
:100170007302000873020008000000000000000085
:1001800073020008730200087302000800F002F80E
:1001900000F052F814A696E8000CB244B344DA45D5
:1001A00001D100F049F8BAE80F000FA696E8300038
:1001B000A5EB040504EB0607AAEB0704A7F101076A
:1001C0004FEA15154FEA3414A4F10104AC4201D3EF
:1001D00000F032F813F0010F18BFFB1A43F00103CF
:1001E00000F001F8DBE71847B8580000D8580000C5
:1001F000103A24BF78C878C1FAD8520724BF30C853
:1002000030C144BF04680C607047000070470000B4
:100210000023002400250026103A28BF78C1FBD80F
:10022000520728BF30C148BF0B6070471FB505F0AB
:10023000ECFB1FBD10B510BD00F0FAF91146FFF739
:10024000F5FF05F035FA00F018FA03B4FFF7F2FFF6
:1002500003BC00F01FFA0000094880470948004726
:10026000FEE7FEE7FEE7FEE7FEE7FEE7FEE7FEE766
:10027000FEE7FEE704480549054A064B70470000C3
:10028000AD4100088D010008100C00201012002064
:10029000100E0020100E00200000000000000000E2
:1002A0000000000808060020001000E07F38010070
:1002B0000000FF4000BF00BF00BF00BF00BF00BF85
:1002C00072B64FF0E0205FF82810C0F8081D5FF804
:1002D0002C005FF83410096801605FF83400016891
:1002E00041F0010101604FF0E0205FF840104161F2
:1002F0004FF0070101614FF00001C0F8181D4FF0E9
:100300007F41C0F81C1D5FF85810C0F8201D7047D1
:10031000FFF7FEBFFFF7FEBFFFF7FEBF01B5BDE869
:100320000140704701B500F0D3F8BDE801407047C7
:10033000FFF7FEBFFFF7FEBF000000000000000057
:10034000EFF311804FF0500181F3118870470000E6
:1003500080F31188704700000000000000000000DA
:100360004FF00000364A1060EFF3148020F00400D4
:1003700080F3148862B64FF080504FF0E021C1F84E
:10038000040DBFF34F8FBFF36F8FFEE72D482E4A4A
:100390004FF00003016891B10360EFF3098C2CE981
:1003A000F00F1EF0100F01D12CED108A274C4CF8E5
:1003B00004ED2568C1F808C00DB18D6123604FF0D0
:1003C000500181F311881168C9B101604FF0000438
:1003D00084F311884F681D4C8D6907F101074F6048
:1003E0002560D1F808C05CF804EB1EF0100F01D1B5
:1003F00000F02EB8BCE8F00F8CF3098870474FF07E
:10040000500181F311881168016061B90FB405F0E2
:100410008BF90FBC0FB405F0A5F90FBC4FF0000429
:1004200084F31188EBE74FF000674FF0E028C8F83D
:10043000047D4FF0000484F31188CBE7704700007F
:100440008005002070050020740500206C09002044
:10045000BCEC088ABCEC08CAFFF7CCBF0000000067
:10046000026922F00702A2F144026FF00203136056
:100470004FF0000353609360D36013615361936145
:10048000D361136253629362D362136353634FF079
:10049000FF339363D1634FF08073136482607047BE
:1004A0004FF080504FF0E021C1F8040DEFF30580CC
:1004B000002807D1EFF311814FF0000080F311887D
:1004C00081F3118870470000000000000000000068
:1004D0002249086800F101000860214B1A683AB10E
:1004E000A2F101021A601AB91E4B4FF00100186008
:1004F0001D490868026822B11C4B4FF001021A60C6
:1005000008E000F104001A4B1A68904201D1194B1F
:1005100018680860134B1A6812B914490868D0B1FA
:100520002DE901401149086808B104F0B9FC0D4BF0
:100530001A6872B104F026FC0F48016849B90F48E7
:1005400001680F4A13680F484FF08052994200D05B
:100550000260BDE80140BFF34F8F7047B80600202E
:100560006C0900201C06002014060020180600203C
:10057000A4060020A80600208005002070050020A9
:100580007405002004ED00E002F0FF0343EA0322BB
:1005900042EA024200F02CB84FF0000200B51346C8
:1005A00094469646203922BFA0E80C50A0E80C5093
:1005B000B1F12001BFF4F7AF090728BFA0E80C5044
:1005C00048BF0CC05DF804EB890028BF40F8042B3D
:1005D00008BF704748BF20F8022B11F0804F18BFAA
:1005E00000F8012B70477047704770474FF00002CA
:1005F0000429C0F0128010F0030C3FF4CFAFCCF10F
:10060000040CBCF1020F18BF00F8012BA8BF20F8A2
:10061000022BA1EB0C01FFF7C1BF5FEAC17C24BF35
:1006200000F8012B00F8012B48BF00F8012B7047A0
:10063000754600F02BF8AE4605006946534620F09B
:100640000700854618B020B5FFF714FEBDE820402E
:100650004FF000064FF000074FF000084FF0000B7E
:10066000AC46ACE8C009ACE8C009ACE8C009ACE8ED
:10067000C00921F007018D46704710B50446AFF35D
:1006800000802046BDE81040FFF7DFBD00487047FE
:100690001000002001491820ABBEFEE72600020032
:1006A0007047000080B58AB0002008908DF82700C0
:1006B00000F0E2F803F016FA089B01469DF82700C7
:1006C00008438DF827006946B02088610120486101
:1006D0000B610220C86088604FF48060486040F27F
:1006E0007000C2F20000086040F27040C2F20000E8
:1006F00045F67B21C0F6000140F21972C0F60002F7
:1007000004F0B2FE01469DF8270008438DF827004B
:100710009DF827000AB080BD80B586B0059040F2F4
:100720002851C2F200010191002008704870172082
:1007300088700420C870192008710620487118209C
:1007400088710868D1F80310CDF80B100290029858
:10075000039903F0DDFAFFE740F22451C2F20001F1
:100760000868013008604FF09040082100F004FB59
:1007700003F028FA40F67510C2F2000003F028FCDE
:100780004FF47A7004F00AF8E6E7000080B582B012
:10079000002000908DF8070003F0C6FC00984EF290
:1007A0001001CEF200010A6822F001020A6040F254
:1007B0000002C2F20002126844F6D353C1F262038F
:1007C000A2FB03234FF0FF3202EB93124EF214030D
:1007D000CEF200031A604EF21802CEF20002106050
:1007E0000720086001F03AFD40F6D411C2F2000182
:1007F00008609DF8070002B080BD000080B582B09F
:10080000019000200090FFF74DFF0090009802B08B
:1008100080BD000080B502F00BFE80BD80B501F008
:1008200041F8FFF7B3FF40F67C10C2F2000000F081
:10083000D7FB80BD40F67010C2F200000068704720
:1008400081B00090009840F67011C2F2000108607B
:1008500001B07047FFE7FEE77047000080B5022057
:1008600000F0E4F880BD000081B0EFF3108072B6B4
:100870000090FFE7FEE7000042F20401CEF204011F
:10088000086840F0010008607047000088B00790D9
:10089000069100200590FFE706980599C8400028BA
:1008A00000F0B480FFE70698059A012191400840C6
:1008B00004900498002800F0A580FFE7059820F038
:1008C00003000821C4F2010140580390059800F08C
:1008D000030081000F2000FA01F103980840039003
:1008E000039802900798B0F1904F03D1FFE70020E2
:1008F000019018E0079840F20041C4F600018842D8
:1009000003D1FFE7012000900AE0079940F60002BA
:10091000C4F600020720914208BF02200090FFE7C2
:1009200000980190FFE702980199059A02F00302EE
:1009300092009140884232D1FFE7049A40F2004190
:10094000C4F20101086890430860049A40F204412F
:10095000C4F20101086890430860049A40F20C4117
:10096000C4F20101086890430860049A40F208410B
:10097000C4F20101086890430860059800F0030084
:1009800081000F2088400390039B059820F003010D
:100990000822C4F20102885898438850FFE705985E
:1009A0004100032000FA01F3079A1168194311600E
:1009B000DDF814C00CF007018A000F2101FA02F3E0
:1009C00007996FF0030202EA5C020A44116A994334
:1009D00011620599490000FA01F3079A9168994359
:1009E0009160059A012101FA02F3079A516899432F
:1009F00051600599490000FA01F20799C8689043CF
:100A0000C860FFE705980130059045E708B07047DA
:100A100080B582B0ADF80600BDF80600022803D10B
:100A2000FFE703F0FFF8FFE702B080BD80B582B0BA
:100A3000ADF8060040F21440C4F201000068BDF8B1
:100A4000061008420CD0FFE7BDF8060040F2144142
:100A5000C4F201010860BDF80600FFF7D9FFFFE707
:100A600002B080BD88B00790069100200590FFE796
:100A7000069800680599C840002800F07B81FFE7D0
:100A800006980068059A0121914008400490049856
:100A9000002800F06B81FFE70698406800F0030033
:100AA000012807D0FFE70698406800F003000228FD
:100AB0002FD1FFE707988068039005984100032035
:100AC00000FA01F10398884303900698C0680599DD
:100AD000490000FA01F1039808430390039807992D
:100AE00088600798406803900599012000FA01F199
:100AF00003988843039006984068C0F30010059956
:100B000000FA01F10398084303900398079948609D
:100B1000FFE70698406800F00300032818D0FFE7BD
:100B20000798C068039005984100032000FA01F17E
:100B3000039888430390069880680599490000FA55
:100B400001F103980843039003980799C860FFE7F1
:100B50000698406800F00300022826D1FFE70798B6
:100B600005996FF0030202EA51010844006A0390FC
:100B7000059800F0070081000F2000FA01F10398AA
:100B80008843039006980069059901F007018900E0
:100B900000FA01F103980843039003980799059B15
:100BA00002EA530211440862FFE7079800680390C5
:100BB00005984100032000FA01F10398884303904F
:100BC0000698406800F003000599490000FA01F119
:100BD0000398084303900398079908600698807962
:100BE0008007002800F0C180FFE7FFE741F26000C6
:100BF000C4F20200016841F001010160006800F0E8
:100C0000010002900298FFE7059820F003000821F8
:100C1000C4F2010140580390059800F003008100E0
:100C20000F2000FA01F10398884303900798B0F170
:100C3000904F03D1FFE70020019018E0079840F2A1
:100C40000041C4F60001884203D1FFE70120009073
:100C50000AE0079940F60002C4F60002072091421C
:100C600008BF02200090FFE700980190FFE701987D
:100C7000059901F00301890000FA01F10398084386
:100C800003900398059921F003010822C4F20102A0
:100C9000885040F20840C4F20100006803900499B3
:100CA00003988843039006988079C006002805D5EC
:100CB000FFE70499039808430390FFE7039840F285
:100CC0000841C4F20101086040F20C40C4F2010086
:100CD00000680390049903988843039006988079EC
:100CE0008006002805D5FFE7049903980843039080
:100CF000FFE7039840F20C41C4F20101086040F2A2
:100D00000440C4F2010000680390049903988843EA
:100D10000390069880798007002805D5FFE704999D
:100D2000039808430390FFE7039840F20441C4F29C
:100D30000101086040F20040C4F201000068039025
:100D4000049903988843039006988079C00728B1D6
:100D5000FFE70499039808430390FFE7039840F2E4
:100D60000041C4F201010860FFE7FFE70598013088
:100D700005907DE608B0704783B00290ADF806108C
:100D8000029840690090009ABDF8060002EA00014E
:100D9000904340EA01400299886103B07047000027
:100DA00082B00190ADF802108DF801209DF801008D
:100DB00028B1FFE7BDF802000199886104E0BDF8A1
:100DC000020001998862FFE702B0704780B582B0E7
:100DD00040F20400C2F20000006840B9FFE704F0EE
:100DE0004DF840F22051C2F20001086023E040F2C9
:100DF0000000C2F200000068800B0190FFE701983C
:100E000088B1FFE700BF00BF00BF00BF00BF00BF49
:100E100000BF00BF00BF00BF00BF00BFFFE70198D9
:100E200001380190EBE740F22051C2F2000108685E
:100E300001300860FFE740F22050C2F20000006875
:100E400002B080BD83B001900091019890F84100FC
:100E500020283BD1FFE7FFE7019890F840000128E8
:100E600004D1FFE702208DF80B0033E00199012047
:100E700081F84000FFE7FFE70199242081F8410055
:100E800001980168086820F0010008600198016875
:100E9000086820F480500860009A0198016808688A
:100EA0001043086001980168086840F0010008607C
:100EB0000199202081F84100FFE70199002081F885
:100EC0004000FFE700208DF80B0003E002208DF8C2
:100ED0000B00FFE79DF80B0003B0704784B0029051
:100EE0000191029890F84100202840D1FFE7FFE7E8
:100EF000029890F84000012804D1FFE702208DF805
:100F00000F0038E00299012081F84000FFE7FFE779
:100F10000299242081F8410002980168086820F0B5
:100F2000010008600298006800680090009820F4B2
:100F3000706000900199009840EA012000900098AC
:100F400002990968086002980168086840F0010089
:100F500008600299202081F84100FFE702990020F3
:100F600081F84000FFE700208DF80F0003E0022029
:100F70008DF80F00FFE79DF80F0004B070470000E8
:100F800080B582B00090009820B9FFE701208DF86D
:100F9000070021E00099242081F8410000980168B1
:100FA000086820F001000860009800F023FB009919
:100FB00000204864009981F8410000990863009975
:100FC00081F84200FFE70099002081F84000FFE728
:100FD00000208DF80700FFE79DF8070002B080BDF4
:100FE00080B582B00090009820B9FFE701208DF80D
:100FF00007007BE0009890F8410040B9FFE70099B6
:10100000002081F84000009800F018FBFFE70099ED
:10101000242081F8410000980168086820F0010050
:10102000086000980168406820F0706008610098CE
:101030000168886820F4004088600098C068012832
:1010400007D1FFE700980168806840F4004088609D
:1010500006E000980168806840F404408860FFE77B
:101060000098C068022807D1FFE700980168486827
:1010700040F40060486006E000980168486820F489
:1010800000604860FFE700980168486848F2000285
:10109000C0F200221043486000980168C86820F43C
:1010A0000040C860009A116810695369926918433A
:1010B00040EA0220C860009A1168D069126A1043A1
:1010C000086000980168086840F001000860009915
:1010D00000204864009A202182F84110009908639A
:1010E000009981F842008DF80700FFE79DF807009E
:1010F00002B080BD10B588B084460C980B98DDF81E
:1011000028E0CDF818C0ADF81610ADF81420ADF8F1
:101110001230ADF81000069890F84100202840F0F9
:101120002681FFE70A9820B1FFE7BDF8100040B91B
:10113000FFE706994FF40070486401208DF81F0006
:1011400019E1FFE7069890F84000012804D1FFE775
:1011500002208DF81F000EE10699012081F8400061
:10116000FFE7FFE7FFF732FE0390069803996A4610
:1011700011604FF400410122192302F059F820B107
:10118000FFE701208DF81F00F5E00699222081F885
:1011900041000699402081F84200069900204864E9
:1011A0000A99069A5162BDF81010069A518506995F
:1011B00048630698BDF81610BDF81420BDF812302B
:1011C000DDF830C0039CEE46CEF80440CEF800C0F7
:1011D00001F044FF50B1FFE7FFE70699002081F8D6
:1011E0004000FFE701208DF81F00C4E00698408D05
:1011F000B0F5807F14D3FFE70699FF200885069895
:10120000BDF8161090F82820EC4642F20043C8F2D0
:101210000003CCF800304FF0807301F0DFFF14E0E2
:101220000698408D069908850698BDF8161090F826
:101230002820EC4642F20043C8F20003CCF800300C
:101240004FF0007301F0CAFFFFE7FFE706980C9B21
:1012500003996A4611600421002201F0E9FF20B1E0
:10126000FFE701208DF81F0085E006980068406ABE
:101270000699496A08700699486A013048620699D9
:10128000088D013808850699488D013848850698EB
:10129000408DE8B3FFE70698008DC8BBFFE70698CE
:1012A0000C9B03996A4611608021002201F0C0FF67
:1012B00020B1FFE701208DF81F005CE00698408D0B
:1012C000B0F5807F11D3FFE70699FF2008850698C7
:1012D000BDF8161090F82820EC460023CCF800301A
:1012E0004FF0807301F07AFF11E00698408D069967
:1012F00008850698BDF8161090F82820EC460023C3
:10130000CCF800304FF0007301F068FFFFE7FFE713
:10131000FFE70698408D002898D1FFE706980C99C2
:10132000039A01F0DDFF20B1FFE701208DF81F00D7
:1013300021E0069801682020C86106990A68516872
:101340004EF60003CFF6006319405160069981F80C
:1013500041000699002081F84200FFE7069900202D
:1013600081F84000FFE700208DF81F0003E0022015
:101370008DF81F00FFE79DF81F0008B010BD0000AA
:1013800010B588B084460C980B98DDF828E0CDF8AD
:1013900018C0ADF81610ADF81420ADF81230ADF845
:1013A0001000069890F84100202840F01B81FFE7CC
:1013B0000A9820B1FFE7BDF8100040B9FFE7069991
:1013C0004FF40070486401208DF81F000EE1FFE724
:1013D000069890F84000012804D1FFE702208DF81C
:1013E0001F0003E10699012081F84000FFE7FFE7B5
:1013F000FFF7ECFC0390069803996A4611604FF4DE
:1014000000410122192301F013FF20B1FFE7012061
:101410008DF81F00EAE00699212081F84100069925
:10142000402081F842000699002048640A99069AF3
:101430005162BDF81010069A5185069948630698C6
:10144000BDF81610BDF81420BDF81230DDF830C01C
:10145000039CEE46CEF80440CEF800C001F05EFEDC
:1014600050B1FFE7FFE70699002081F84000FFE751
:1014700001208DF81F00B9E00698408DB0F5807FFF
:1014800011D3FFE70699FF2008850698BDF81610CE
:1014900090F82820EC460023CCF800304FF0807301
:1014A00001F09CFE11E00698408D0699088506988B
:1014B000BDF8161090F82820EC460023CCF8003038
:1014C0004FF0007301F08AFEFFE7FFE706980C99E2
:1014D000039A01F057FF20B1FFE701208DF81F00AC
:1014E00084E006980168406A007888620699486A34
:1014F000013048620699488D013848850699088D63
:10150000013808850698408DE8B3FFE70698008DFE
:10151000C8BBFFE706980C9B03996A4611608021BF
:10152000002201F085FE20B1FFE701208DF81F00A9
:101530005CE00698408DB0F5807F11D3FFE70699F7
:10154000FF2008850698BDF8161090F82820EC4674
:101550000023CCF800304FF0807301F03FFE11E023
:101560000698408D069908850698BDF8161090F8E3
:101570002820EC460023CCF800304FF0007301F037
:101580002DFEFFE7FFE7FFE70698408D00289DD17D
:10159000FFE706980C99039A01F0A2FE20B1FFE73D
:1015A00001208DF81F0021E0069801682020C86105
:1015B00006990A6851684EF60003CFF60063194099
:1015C0005160069981F841000699002081F8420097
:1015D000FFE70699002081F84000FFE700208DF822
:1015E0001F0003E002208DF81F00FFE79DF81F0099
:1015F00008B010BD80B582B001900198006845F236
:101600000041C4F20001884215D1FFE741F25801C0
:10161000C4F20201086820F4001008604FF0904006
:1016200000904FF40071FFF731F900984FF480619A
:10163000FFF72CF9FFE702B080BD000080B59EB037
:101640001D9000201C901B901A901990189003A8D0
:101650005421FEF7A1FF1D98006845F20041C4F235
:10166000000188423BD1FFE74020039000200E900C
:1016700003A800F0B1F918B1FFE7FFF7F5F8FFE7AD
:10168000FFE741F24C00C4F20200016841F00101A1
:101690000160006800F0010002900298FFE74FF43B
:1016A000C06018901220199000201A9003201B90FF
:1016B00004201C904FF0904018A9FFF7D3F9FFE7E2
:1016C00041F25800C4F20200016841F400110160C7
:1016D000006800F4001001900198FFE7FFE71EB0DA
:1016E00080BD000080B582B0002000908DF807001A
:1016F000032000F05DF8009800F00EF820B1FFE73D
:1017000001208DF8070002E000F00CF8FFE79DF8DB
:10171000070002B080BD000081B00090002001B041
:101720007047000082B0FFE741F26000C4F202009F
:10173000016841F001010160006800F001000190C2
:101740000198FFE7FFE741F25800C4F20200016888
:1017500041F080510160006800F0805000900098D6
:10176000FFE702B07047000080B582B08DF8070037
:101770009DF9070002F026FD02B080BD80B586B05D
:101780008DF81700049103920020029002F032FDC0
:1017900002909DF91700019002980499039A01F0B4
:1017A00061FF0146019802F02DFD06B080BD0000EA
:1017B00080B582B00190019802F046FD02B080BD74
:1017C00084B002900298B0F5007F4DD1FFE747F258
:1017D0000000C4F20000006800F4C060B0F5007FB3
:1017E00041D0FFE747F20002C4F200021168012075
:1017F00060F34A21116040F20001C2F20001096861
:10180000322251434DF68362C4F21B32A1FB022106
:1018100000EB91400190FFE747F21400C4F2000092
:101820000168002049050029009006D5FFE70198CE
:10183000002818BF01200090FFE70098C00720B1E2
:10184000FFE7019801380190E6E747F21400C4F27F
:10185000000000684005002804D5FFE703208DF84C
:101860000F001BE0FFE715E047F20000C4F20000A4
:10187000006800F4C060B0F5806F0AD0FFE747F25F
:101880000001C4F200010868022262F34A200860E5
:10189000FFE7FFE700208DF80F00FFE79DF80F003E
:1018A00004B0704783B047F20001C4F20001086839
:1018B00020F48040086040F20000C2F2000000689E
:1018C000322148434DF68361C4F21B31A0FB010174
:1018D000012000EB91400190FFE747F21400C4F2B1
:1018E00000000168002089050029009006D5FFE767
:1018F0000198002818BF01200090FFE70098C0075A
:1019000020B1FFE7019801380190E6E747F21400A3
:10191000C4F2000000688005002804D5FFE703201A
:101920008DF80B0003E000208DF80B00FFE79DF819
:101930000B0003B07047000047F20001C4F2000141
:10194000086840F4804008607047000047F20000DB
:10195000C4F20000006800F4C060704780B582B037
:1019600001908DF80310019880B9FFE747F2140049
:10197000C4F2000000688005002806D5FFE7FFF7E5
:1019800091FF08B1FFE724E0FFE70FE047F2140002
:10199000C4F20000006800F400710020B0EB512F89
:1019A00003D1FFE7FFF7C8FFFFE7FFE74EF610514F
:1019B000CEF20001086820F0040008609DF80300E2
:1019C000012802D1FFE730BF03E040BF20BF20BFA6
:1019D000FFE702B080BD000080B586B00590002012
:1019E0008DF80B008DF80A00059840780007002854
:1019F0003BD5FFE70598C06B009098B1FFE70098D2
:101A0000B0F5000F05D0FFE70098B0F5400F11D0FA
:101A100011E041F20C01C4F20201086840F4803088
:101A200008600CE005980430002101F051FE8DF8AB
:101A30000B0004E003E001208DF80B00FFE79DF8A8
:101A40000B0060B9FFE741F28801C4F202010868A7
:101A500020F44000059AD26B1043086004E09DF822
:101A60000B008DF80A00FFE7FFE7059880788007F4
:101A7000002840F1B580FFE700208DF8090041F211
:101A80005800C4F202000068C000002813D4FFE729
:101A9000FFE741F25800C4F20200016841F08051B2
:101AA0000160006800F0805001900198FFE701207C
:101AB0008DF80900FFE747F20001C4F20001086851
:101AC00040F480700860FFF781F90390FFE747F268
:101AD0000000C4F200000068C00500280CD4FFE735
:101AE000FFF774F90399401A032804D3FFE7032092
:101AF0008DF80B0000E0EAE79DF80B0000285BD1B1
:101B0000FFE741F29000C4F20200006800F4407068
:101B100004900498C8B1FFE704980599096D8842BC
:101B200013D0FFE741F29001C4F20201086820F4EB
:101B300040700490086840F480300860086820F421
:101B40008030086004980860FFE79DF81000C00727
:101B5000E0B1FFE7FFF73AF90390FFE741F29000A9
:101B6000C4F202000068800700280ED4FFE7FFF7E8
:101B70002DF90399401A41F28931884204D3FFE7D5
:101B800003208DF80B0000E0E8E7FFE79DF80B006D
:101B900060B9FFE741F29001C4F20201086820F445
:101BA0004070059A126D1043086004E09DF80B0028
:101BB0008DF80A00FFE704E09DF80B008DF80A009D
:101BC000FFE79DF80900012809D1FFE741F258011C
:101BD000C4F20201086820F080500860FFE7FFE7C8
:101BE00005980078C00760B1FFE741F28801C4F2B0
:101BF0000201086820F00300059A126A1043086089
:101C0000FFE705980078800700280CD5FFE741F230
:101C10008801C4F20201086820F00C00059A526A9B
:101C200010430860FFE705980078800600280CD56F
:101C3000FFE741F28801C4F20201086820F4406025
:101C4000059A926A10430860FFE70598407880077C
:101C500000280CD5FFE741F28801C4F202010868B0
:101C600020F44020059A526B10430860FFE7059866
:101C70004078400700280CD5FFE741F28801C4F204
:101C80000201086820F44010059A926B1043086026
:101C9000FFE705980078400600280CD5FFE741F2E1
:101CA0008801C4F20201086820F44050059AD26A03
:101CB00010430860FFE705984078C00760B1FFE770
:101CC00041F28801C4F20201086820F44030059A0C
:101CD000126B10430860FFE70598407880060028E3
:101CE00033D5FFE741F28801C4F20201086820F011
:101CF0004060059A126C104308600598006CB0F1C2
:101D0000006F09D1FFE741F20C01C4F2020108683B
:101D100040F48010086017E00598006CB0F1806F07
:101D200011D1FFE705980430012101F0D1FC8DF8B5
:101D30000B009DF80B0028B1FFE79DF80B008DF814
:101D40000A00FFE7FFE7FFE7FFE705988078400715
:101D5000002834D5FFE741F28801C4F20201086887
:101D600020F04060059A526C104308600598406C62
:101D7000B0F1006F09D1FFE741F20C01C4F202019A
:101D8000086840F48010086018E00598406CB0F1D5
:101D9000806F11D1FFE705980430012101F098FC14
:101DA0008DF80B009DF80B0028B1FFE79DF80B00A4
:101DB0008DF80A00FFE700E0FFE7FFE7FFE705987F
:101DC00040784006002823D5FFE741F28801C4F29D
:101DD0000201086820F04050059A926C1043086098
:101DE0000598806CB0F1805F11D1FFE70598043051
:101DF000022101F06DFC8DF80B009DF80B0028B15D
:101E0000FFE79DF80B008DF80A00FFE7FFE7FFE70B
:101E100005984078000600280CD5FFE741F28801BC
:101E2000C4F20201086820F08040059AD26C104389
:101E30000860FFE79DF80A0006B080BD80B586B057
:101E400004900391049820B9FFE701208DF8170052
:101E500041E1039842F20001C4F20201096801F075
:101E60000701884216D9FFE742F20000C4F20200DF
:101E7000016821F00701039A11430160006800F036
:101E800007000399884204D0FFE701208DF817006E
:101E900021E1FFE7049800788007002819D5FFE7C3
:101EA0000498806841F20801C4F20201096801F057
:101EB000F00188420CD9FFE741F20801C4F20201A7
:101EC000086820F0F000049A926810430860FFE769
:101ED000FFE704980078C007002873D0FFE7049854
:101EE000406803280ED1FFE741F20000C4F202006F
:101EF00000688001002804D4FFE701208DF8170056
:101F0000E9E034E00498406802280ED1FFE741F28E
:101F10000000C4F2020000688003002804D4FFE738
:101F200001208DF81700D6E020E00498406870B9D1
:101F3000FFE741F20000C4F20200006880070028B9
:101F400004D4FFE701208DF81700C4E00DE041F252
:101F50000000C4F2020000684005002804D4FFE736
:101F600001208DF81700B6E0FFE7FFE7FFE741F239
:101F70000801C4F20201086820F00300049A5268C4
:101F800010430860FEF722FF0290FFE741F20800CD
:101F9000C4F20200006800F00C0004994968B0EB3C
:101FA000810F0ED0FFE7FEF711FF0299401A41F2B0
:101FB0008931884204D3FFE703208DF817008AE0B7
:101FC000E4E7FFE7049800788007002819D5FFE7C9
:101FD0000498806841F20801C4F20201096801F026
:101FE000F00188420CD2FFE741F20801C4F202017D
:101FF000086820F0F000049A926810430860FFE738
:10200000FFE7039842F20001C4F20201096801F0FF
:102010000701884216D2FFE742F20000C4F2020034
:10202000016821F00701039A11430160006800F084
:1020300007000399884204D0FFE701208DF81700BC
:1020400049E0FFE704980078400700280CD5FFE737
:1020500041F20801C4F20201086820F4E060049A29
:10206000D26810430860FFE7049800780007002852
:102070000DD5FFE741F20801C4F20201086820F41F
:102080006050049A126940EAC2000860FFE700F05D
:10209000E5F841F20801C4F202010968C9B20A096F
:1020A00045F62421C0F60001895C01F01F01C840FB
:1020B00040F20001C2F20001086040F20800C2F2E2
:1020C00000000068FFF728FB8DF807009DF8070067
:1020D0008DF81700FFE79DF8170006B080BD0000DF
:1020E00080B582B041F20001C4F20201086840F0FC
:1020F00001000860FEF76AFE0090FFE741F2000071
:10210000C4F202000068800700280CD4FFE7FEF745
:102110005DFE0099401A032804D3FFE703208DF8E1
:10212000070096E0EAE741F20001C4F20201086804
:10213000062262F30710086041F20801C4F20201AE
:102140000020086040F20001C2F2000144F2402089
:10215000C0F20F00086040F20800C2F20000006800
:10216000FFF7DAFA20B1FFE701208DF8070070E0F1
:10217000FEF72CFE0090FFE741F20800C4F20200D7
:10218000006810F00C0F0ED0FFE7FEF71FFE00995D
:10219000401A41F28931884204D3FFE703208DF8C9
:1021A000070056E0E8E741F20001C4F202010868C6
:1021B0004FF2FF42CFF6FE2210400860FEF706FE07
:1021C0000090FFE741F20000C4F20200006810F046
:1021D000206F0CD0FFE7FEF7F9FD0099401A0328A5
:1021E00004D3FFE703208DF8070032E0EAE741F26D
:1021F0000C02C4F2020200201060116841F4805108
:10220000116041F21002C4F202021060116841F440
:102210008051116041F20002C4F20202116821F4FF
:102220008021116041F21801C4F20201086041F2FC
:102230002002C4F202024FF0FF31116041F2940219
:10224000C4F20202116841F4000111608DF8070028
:10225000FFE79DF8070002B080BD000089B00020B4
:102260000890079041F20800C4F20200006800F0F4
:102270000C00029041F20C00C4F20200006800F071
:1022800003000190029840B1FFE702980C282ED17C
:10229000FFE7019801282AD1FFE741F20000C4F2CC
:1022A000020000680007002809D4FFE741F294000B
:1022B000C4F202000068C0F30320089008E041F275
:1022C0000000C4F202000068C0B200090890FFE7F5
:1022D000089945F63420C0F6000050F82100089017
:1022E000029818B9FFE708980790FFE716E00298F0
:1022F000042806D1FFE742F20040C0F2F400079044
:102300000BE00298082806D1FFE741F20020C0F256
:102310007A00079000E0FFE7FFE7FFE702980C284C
:1023200046D1FFE741F20C00C4F20200006800F061
:102330000300059005980090012814D0FFE700984D
:10234000022804D0FFE70098032806D00CE042F2F0
:102350000040C0F2F400069009E041F20020C0F213
:102360007A00069003E0FFE708980690FFE741F245
:102370000C00C4F20200016801F07002012101EBBF
:102380001211039106990268C2F306225143039A7F
:10239000B1FBF2F10691006800F0C061022000EB91
:1023A0001160049006980499B0FBF1F00790FFE7E4
:1023B000079809B070470000B0B58AB00890089837
:1023C00028B9FFE701208DF8270000F021BD41F278
:1023D0000800C4F20200006800F00C00059041F211
:1023E0000C00C4F20200006800F00300049008989A
:1023F0000078C006002840F12E81FFE7059850B113
:10240000FFE705980C2840F0BD80FFE704980128FD
:1024100040F0B880FFE741F20000C4F2020000681B
:102420008007002809D5FFE70898806928B9FFE7E9
:1024300001208DF8270000F0EBBC0898006A01909D
:1024400041F20000C4F2020000680007002809D52C
:10245000FFE741F20000C4F20200006800F0F00063
:10246000009009E041F29400C4F20200006800F418
:10247000706000090090FFE701980099884229D90F
:10248000FFE70898006A01F063FA28B1FFE701202E
:102490008DF8270000F0BCBCFFE741F20001C4F258
:1024A0000201086840F008000860086820F0F000A9
:1024B000089A126A10430860FFE741F20401C4F26F
:1024C0000201086820F47F40089AD26940EA02209D
:1024D00008602CE0FFE741F20001C4F20201086845
:1024E00040F008000860086820F0F000089A126ABE
:1024F00010430860FFE741F20401C4F202010868DA
:1025000020F47F40089AD26940EA022008600598CA
:1025100060B9FFE70898006A01F01AFA28B1FFE7EE
:1025200001208DF8270000F073BCFFE7FFE7FFF7FD
:1025300095FE41F20801C4F202010968C9B20A0914
:1025400045F62421C0F60001895C01F01F01C84056
:1025500040F20001C2F20001086040F20800C2F23D
:1025600000000068FFF7D8F88DF81B009DF81B00ED
:1025700030B1FFE79DF81B008DF8270000F048BC44
:10258000FFE767E008988069002840D0FFE741F244
:102590000001C4F20201086840F001000860FEF783
:1025A00015FC0790FFE741F20000C4F2020000684A
:1025B000800700280DD4FFE7FEF708FC0799401AB2
:1025C000032805D3FFE703208DF8270000F020BC87
:1025D000E9E7FFE741F20001C4F20201086840F0B8
:1025E00008000860086820F0F000089A126A10439A
:1025F0000860FFE741F20401C4F20201086820F418
:102600007F40089AD26940EA0220086021E041F246
:102610000001C4F20201086820F001000860FEF722
:10262000D5FB0790FFE741F20000C4F2020000680A
:10263000800700280CD5FFE7FEF7C8FB0799401A72
:10264000032804D3FFE703208DF82700E0E3EAE73F
:10265000FFE7FFE7FFE708980078C007002800F0D1
:102660008B80FFE70598082808D0FFE705980C281D
:1026700016D1FFE70498032812D1FFE741F20000CA
:10268000C4F2020000688003002808D5FFE708981C
:10269000406820B9FFE701208DF82700B8E36AE021
:1026A000FFE708984068B0F5803F09D1FFE741F2A5
:1026B0000001C4F20201086840F48030086020E0A4
:1026C00008984068B0F5A02F0DD1FFE741F2000156
:1026D000C4F20201086840F480200860086840F4F1
:1026E000803008600CE041F20001C4F20201086889
:1026F00020F480300860086820F480200860FFE73C
:10270000FFE7FFE708984068D0B1FFE7FEF75EFB00
:102710000790FFE741F20000C4F202000068800366
:1027200000280CD4FFE7FEF751FB0799401A6528F3
:1027300004D3FFE703208DF8270069E3EAE719E0F7
:10274000FEF744FB0790FFE741F20000C4F20200ED
:102750000068800300280CD5FFE7FEF737FB0799D8
:10276000401A652804D3FFE703208DF827004FE3C4
:10277000EAE7FFE7FFE7FFE708980078800700280F
:1027800040F18280FFE70598042808D0FFE705980C
:102790000C2823D1FFE7049802281FD1FFE741F25C
:1027A0000000C4F2020000684005002808D5FFE7D9
:1027B0000898C06820B9FFE701208DF8270027E3BB
:1027C00041F20401C4F20201086820F0F850089AAE
:1027D000126940EA02600860FFE754E00898C068A8
:1027E00070B3FFE741F20001C4F20201086840F44F
:1027F00080700860FEF7EAFA0790FFE741F20000F8
:10280000C4F202000068400500280CD4FFE7FEF780
:10281000DDFA0799401A032804D3FFE703208DF857
:102820002700F5E2EAE741F20401C4F20201086878
:1028300020F0F850089A126940EA0260086021E02E
:1028400041F20001C4F20201086820F480700860BF
:10285000FEF7BCFA0790FFE741F20000C4F2020065
:102860000068400500280CD5FFE7FEF7AFFA07998E
:10287000401A032804D3FFE703208DF82700C7E29E
:10288000EAE7FFE7FFE7FFE708980078000700287E
:1028900049D5FFE70898406910B3FFE741F294017A
:1028A000C4F20201086840F001000860FEF78EFAE9
:1028B0000790FFE741F29400C4F20200006880072D
:1028C00000280CD4FFE7FEF781FA0799401A032885
:1028D00004D3FFE703208DF8270099E2EAE721E01F
:1028E00041F29401C4F20201086820F0010008607E
:1028F000FEF76CFA0790FFE741F29400C4F2020081
:102900000068800700280CD5FFE7FEF75FFA0799FB
:10291000401A032804D3FFE703208DF8270077E24D
:10292000EAE7FFE7FFE7089800784007002840F152
:10293000C680FFE700208DF80F0041F25800C4F276
:1029400002000068C000002813D4FFE7FFE741F24F
:102950005800C4F20200016841F080510160006833
:1029600000F0805002900298FFE701208DF80F00E0
:10297000FFE747F20000C4F200000068C00500282D
:1029800022D4FFE747F20001C4F20001086840F4D6
:1029900080700860FEF71AFA0790FFE747F2000020
:1029A000C4F200000068C00500280CD4FFE7FEF761
:1029B0000DFA0799401A032804D3FFE703208DF886
:1029C000270025E2EAE7FFE7FFE70898806801288B
:1029D00009D1FFE741F29001C4F20201086840F01A
:1029E000010008601FE00898806805280DD1FFE706
:1029F00041F29001C4F20201086840F0040008604E
:102A0000086840F0010008600CE041F29001C4F257
:102A10000201086820F001000860086820F0040046
:102A20000860FFE7FFE7FFE708988068E0B1FFE78D
:102A3000FEF7CCF90790FFE741F29000C4F20200E4
:102A40000068800700280ED4FFE7FEF7BFF907995A
:102A5000401A41F28931884204D3FFE703208DF800
:102A60002700D5E1E8E71BE0FEF7B0F90790FFE7A4
:102A700041F29000C4F202000068800700280ED5E1
:102A8000FFE7FEF7A3F90799401A41F2893188421E
:102A900004D3FFE703208DF82700B9E1E8E7FFE75B
:102AA0009DF80F00012809D1FFE741F25801C4F257
:102AB0000201086820F080500860FFE7FFE70898EF
:102AC00000788006002849D5FFE70898406A10B3CF
:102AD000FFE741F29801C4F20201086840F00100EA
:102AE0000860FEF773F90790FFE741F29800C4F21F
:102AF00002000068800700280CD4FFE7FEF766F9A3
:102B00000799401A032804D3FFE703208DF8270014
:102B10007EE1EAE721E041F29801C4F2020108688F
:102B200020F001000860FEF751F90790FFE741F23D
:102B30009800C4F202000068800700280CD5FFE767
:102B4000FEF744F90799401A032804D3FFE703204E
:102B50008DF827005CE1EAE7FFE7FFE70898806A65
:102B6000002800F05181FFE70898806A022840F0B1
:102B70001481FFE741F20C00C4F2020000680490E7
:102B8000049800F003000899C96A88423CD1FFE725
:102B9000049800F0700008990A6B6FF00F0101EBC8
:102BA0000211884230D1FFE7049800F4FE400899F2
:102BB000496BB0EB012F27D1FFE7049800F0784074
:102BC0000899896BB0EBC16F1ED1FFE7049800F440
:102BD000C0000899CA6B0021CFF6E07101EA0251EA
:102BE000A1F5001188420FD1FFE7049800F0C06002
:102BF00008990A6C4FF07E4101EA026101F17E41C1
:102C0000884200F09580FFE705980C2800F08B8043
:102C1000FFE741F20000C4F2020000684001002812
:102C200004D5FFE701208DF82700F1E041F2000113
:102C3000C4F20201086820F080700860FEF7C6F850
:102C40000790FFE741F20000C4F202000068800133
:102C500000280CD5FFE7FEF7B9F80799401A0328BA
:102C600004D3FFE703208DF82700D1E0EAE741F223
:102C70000C01C4F20201086848F28C02C0F29D12F5
:102C80001040DDF820C0DCF82C20DCF83050DCF8F7
:102C900034E0DCF838306FF00F0404EB0514224305
:102CA00042EA0E22DCF83C4040F2000ECFF6E07E15
:102CB0000EEA045EAEF5001E42EA0E02DCF840E0C9
:102CC0004FF07E4C0CEA0E6C0CF17E4C42EA0C028A
:102CD00042EAC3621043086041F20002C4F20202F9
:102CE000106840F080701060086840F080700860E4
:102CF000FEF76CF80790FFE741F20000C4F2020013
:102D00000068800100280CD4FFE7FEF75FF8079900
:102D1000401A032804D3FFE703208DF8270077E04B
:102D2000EAE7FFE703E001208DF8270070E033E0D9
:102D300041F20000C4F202000068800100282AD499
:102D4000FFE741F20001C4F20201086840F0807020
:102D5000086041F20C01C4F20201086840F0807082
:102D60000860FEF733F80790FFE741F20000C4F275
:102D700002000068800100280CD4FFE7FEF726F867
:102D80000799401A032804D3FFE703208DF8270092
:102D90003EE0EAE7FFE7FFE735E005980C282DD095
:102DA000FFE741F20001C4F20201086820F08070E0
:102DB0000860FEF70BF80790FFE741F20000C4F24D
:102DC00002000068800100280CD5FFE7FDF7FEFF38
:102DD0000799401A032804D3FFE703208DF8270042
:102DE00016E0EAE741F20C01C4F2020108684FF66E
:102DF000FC72CFF6EE621040086003E001208DF80F
:102E0000270005E0FFE7FFE700208DF82700FFE738
:102E10009DF827000AB0B0BDFFE7FEE781B0009043
:102E200000980068806900F002010020B0EB510FAB
:102E300005D0FFE70098016800208862FFE700984E
:102E400000688069C00738B9FFE7009801688869A1
:102E500040F001008861FFE701B0704780B58AB09B
:102E600009900891079200208DF81B0009990968C4
:102E7000896905910490079803909DF81400C00695
:102E8000002840F18680FFE7099801681020C8619A
:102E9000FFE709980068806900F0200200210846D9
:102EA000B1EB521F009007D1FFE79DF81B00B0FA6D
:102EB00080F040090090FFE70098C007002857D035
:102EC000FFE708980130002851D0FFE7FDF77EFFAB
:102ED0000399401A0899884204D8FFE70898002807
:102EE00044D1FFE709980068406800F480400290F0
:102EF000099890F842008DF80700099800688069E9
:102F000081B20020B0EBD13F14D0FFE70298B0F5BA
:102F1000804F0FD0FFE79DF8070020280AD0FFE779
:102F200009980168486840F480404860FDF74EFF0A
:102F30000390FFE7FFE709980068806900F020012F
:102F40000020B0EB511F10D1FFE7FDF73FFF0399C1
:102F5000401A1A2808D3FFE7049840F02000049094
:102F600001208DF81B0000E0E5E7FFE7FFE790E7B1
:102F70009DF81B0028B9FFE7099801682020C86167
:102F8000FFE7049840F00400049001208DF81B0036
:102F9000FFE709980068806905909DF81500C00753
:102FA00068B1FFE7049840F00100049009980168B7
:102FB0004FF48070C86101208DF81B00FFE79DF879
:102FC0001500400700280DD5FFE7049840F00800E1
:102FD0000490099801684FF48060C86101208DF861
:102FE0001B00FFE79DF81500800700280DD5FFE7BF
:102FF000049840F002000490099801684FF40070B2
:10300000C86101208DF81B00FFE79DF81B0000B38D
:10301000FFE70998FFF702FF0998016848684EF634
:103020000002CFF6006210404860049A0999486C8B
:10303000104348640999202081F841000999002033
:1030400081F84200FFE70999002081F84000FFE77E
:10305000FFE79DF81B000AB080BD000080B586B078
:10306000DDF824C0DDF820C00490ADF80E10ADF8F6
:103070000C20ADF80A300498BDF80E109DF80A2017
:10308000EC4642F20003C8F20003CCF80030002303
:1030900000F0A4F804980899099A00F073F920B197
:1030A000FFE701208DF8170033E0BDF80A00012882
:1030B00006D1FFE79DF80C0004990968886215E0C5
:1030C0009DF80D0004990968886204980899099A86
:1030D00000F058F920B1FFE701208DF8170018E043
:1030E0009DF80C00049909688862FFE70498089B22
:1030F00009996A4611604021002200F099F820B138
:10310000FFE701208DF8170003E000208DF817007D
:10311000FFE79DF8170006B080BD000080B586B0BF
:10312000DDF824C0DDF820C00490ADF80E10ADF835
:103130000C20ADF80A300498BDF80E109DF80A2056
:10314000EC4642F20003C8F20003CCF800304FF026
:10315000807300F043F804980899099A00F012F976
:1031600020B1FFE701208DF8170033E0BDF80A0019
:10317000012806D1FFE79DF80C00049909688862D0
:1031800015E09DF80D000499096888620498089973
:10319000099A00F0F7F820B1FFE701208DF8170039
:1031A00018E09DF80C00049909688862FFE704980C
:1031B000089B09996A4611608021002200F038F8C6
:1031C00020B1FFE701208DF8170003E000208DF803
:1031D0001700FFE79DF8170006B080BD84B0DDF84A
:1031E00010C00390ADF80A108DF809200193BDF8C6
:1031F0000A006FF39F209DF8091040EA01400199F1
:1032000008430499084320F00040009003980068A8
:103210004068049920EA515049F60041CFF6004138
:1032200008400099084303990968486004B0704752
:1032300080B586B0DDF820C0049003918DF80B2096
:103240000193FFE704980068806903990840401AD9
:10325000B0FA80F040099DF80B10884237D1FFE7A3
:103260000198013090B3FFE7FDF7B0FD0899401ACF
:103270000199884203D8FFE7019830BBFFE7049823
:103280000068806903990840401AB0FA80F040094C
:103290009DF80B10884217D1FFE70499486C40F065
:1032A000200048640499202081F8410004990020FE
:1032B00081F84200FFE70499002081F84000FFE711
:1032C00001208DF8170006E0FFE7FFE7BAE70020CE
:1032D0008DF81700FFE79DF8170006B080BD0000CD
:1032E00080B584B0029001910092FFE702980068D7
:1032F000806900F020010020B0EB511F39D1FFE7B9
:1033000002980199009AFFF7A9FD20B1FFE701207B
:103310008DF80F0031E0FDF759FD0099401A019931
:10332000884203D8FFE7019810BBFFE702980068C6
:10333000806900F020010020B0EB511F17D1FFE79A
:103340000299486C40F0200048640299202081F8DE
:1033500041000299002081F84200FFE70299002015
:1033600081F84000FFE701208DF80F0005E0FFE73E
:10337000BCE700208DF80F00FFE79DF80F0004B0B8
:1033800080BD000080B584B0029001910092FFE7FB
:1033900002980068806900F002010020B0EB510F34
:1033A0003ED1FFE702980199009AFFF757FD20B13F
:1033B000FFE701208DF80F0036E00198013070B36F
:1033C000FFE7FDF703FD0099401A0199884203D8F1
:1033D000FFE7019810BBFFE702980068806900F0E2
:1033E00002010020B0EB510F17D1FFE70299486CA2
:1033F00040F0200048640299202081F841000299A1
:10340000002081F84200FFE70299002081F8400087
:10341000FFE701208DF80F0006E0FFE7FFE7B7E7C1
:1034200000208DF80F00FFE79DF80F0004B080BD6D
:1034300080B582B000208DF8070040F67C10C2F203
:103440000000FDF79DFD01469DF8070008438DF83B
:10345000070000F049F801469DF8070008438DF881
:10346000070040F67010C2F20000006800F00EF88D
:10347000FEF7F4FE40F6D011C2F2000108604FF4EE
:1034800080400121FEF76AFA02B080BD81B0009051
:10349000009838B3FFE74EF21001CEF20001086841
:1034A00020F00100086040F20000C2F20000006855
:1034B00044F6D352C1F26202A0FB02208009009AB6
:1034C000504301384EF21402CEF2000210604EF268
:1034D0001802CEF2000200201060086840F00100DF
:1034E0000860FFE701B0704780B592B0684644219C
:1034F000FDF752F84FF40070FEF762F980B9FFE76C
:10350000FEF7EEFD60B9FFE7102000900120069065
:10351000402008906846FEF74FFF8DF8470003E013
:1035200001208DF84700FFE79DF8470012B080BDED
:1035300080B58EB000200D900C900B900A900990F1
:10354000FFE741F24C00C4F20200016841F00101C2
:103550000160006800F0010008900898FFE7FFE7AD
:1035600041F24C00C4F20200016841F00201016026
:10357000006800F0020007900798FFE74FF09040C6
:1035800002900821019100220592FDF709FC019AA1
:10359000029805990992012203920A920B910C91CB
:1035A00009A90491FDF75EFA039804990222099291
:1035B0004FF404120A920B9040F20040C4F600004F
:1035C000FDF750FA059A072006900521FEF7D6F878
:1035D0000698FEF7C9F80EB080BD000080B582B035
:1035E00040F67C10C2F20000019045F20041C4F2A6
:1035F0000001016049F6EC41C1F2900141600021F7
:1036000081600122C260016141618161C161016229
:10361000FDF7E6FC18B1FFE7FDF726F9FFE740F6F6
:103620007C10C2F200000021FDF70CFC18B1FFE78E
:10363000FDF71AF9FFE740F67C10C2F20000002106
:10364000FDF74CFC18B1FFE7FDF70EF9FFE702B0FC
:1036500080BD000080B500F0EBFE80BDFFE7FEE717
:10366000FFE7FEE788B0079006910592079800F003
:10367000070004900498C0F10700052803D3FFE772
:103680000420019004E00498C0F107000190FFE7D6
:103690000198039004980430062803D8FFE700201F
:1036A000009003E0049803380090FFE70098029030
:1036B00006980399012202FA01F101390840029BA0
:1036C000984005999A40013A1140084308B0704764
:1036D00080B586B00590049100208DF80B0041F272
:1036E0000C00C4F202000068800720B3FFE741F23B
:1036F0000C00C4F20200006800F00300059909689C
:10370000884213D1FFE70598006878B1FFE741F2DE
:103710000C00C4F20200006800F07001012000EB10
:10372000111005994968884204D0FFE701208DF8FF
:103730000B00FFE75DE0059800680190012808D0C4
:10374000FFE70198022812D0FFE7019803281CD058
:1037500033E041F20000C4F2020000688007002854
:1037600004D4FFE701208DF80B00FFE729E041F2C8
:103770000000C4F2020000684005002804D4FFE7FE
:1037800001208DF80B00FFE71BE041F20000C4F2BE
:1037900002000068800300280ED4FFE741F2000019
:1037A000C4F2020000684003002804D4FFE70120AF
:1037B0008DF80B00FFE7FFE703E001208DF80B0019
:1037C000FFE79DF80B0098B9FFE741F20C01C4F246
:1037D0000201086820F07300059B1A68D3F804C042
:1037E0006FF00F0303EB0C131A4310430860FFE75D
:1037F000FFE79DF80B00002840F0A680FFE741F2AC
:103800000001C4F20201086820F080600860FDF742
:10381000DDFA0390FFE741F20000C4F20200006805
:10382000000100280CD5FFE7FDF7D0FA0399401AF4
:10383000032804D3FFE703208DF80B0000E0EAE73C
:103840009DF80B0000287ED1FFE7049898B9FFE7A8
:1038500041F21001C4F20201086848F2FF02C0F20E
:10386000FF721040059B9A68DB68120242EAC3624D
:103870001043086037E0049801281AD1FFE741F2AD
:103880001001C4F20201086848F2FF02CFF69F72ED
:103890001040059A9368D2F810C00022CFF6E0726B
:1038A00002EA0C52A2F5001242EA03221043086019
:1038B00018E041F21001C4F20201086848F2FF0268
:1038C000CFF6FF121040059A9368D2F814C04FF05B
:1038D0007E4202EA0C6202F17E4242EA0322104377
:1038E0000860FFE7FFE741F20001C4F20201086847
:1038F00040F080600860FDF769FA0390FFE741F24D
:103900000000C4F202000068000100280CD4FFE7A8
:10391000FDF75CFA0399401A032804D3FFE703205C
:103920008DF80B0000E0EAE79DF80B0050B9FFE7C7
:103930000598826941F21001C4F20201086810433F
:103940000860FFE7FFE7FFE79DF80B0006B080BDCA
:1039500080B586B004900020029041F25800C4F275
:1039600002000068C000002804D5FFE7FDF7EEFF65
:1039700003901AE0FFE741F25800C4F20200016828
:1039800041F080510160006800F080500190019882
:10399000FFE7FDF7DBFF039041F25801C4F202019B
:1039A000086820F080500860FFE70398B0F5007FBA
:1039B00010D1FFE7049881280BD3FFE70498A128D2
:1039C00003D3FFE70220029002E001200290FFE70C
:1039D000FFE717E00498812803D3FFE70320029054
:1039E0000FE00498802803D1FFE70220029007E04F
:1039F0000498702803D1FFE701200290FFE7FFE75A
:103A0000FFE7FFE742F20000C4F20200016821F084
:103A10000701029A11430160006800F00700029953
:103A2000884204D0FFE701208DF8170003E0002052
:103A30008DF81700FFE79DF8170006B080BD000065
:103A400010B586B08C468646099808998DF817E01F
:103A50008DF816C08DF8152004938DF80F108DF891
:103A60000E009DF80E00C8B9FFE79DF817109DF8ED
:103A700016209DF80F006B464FF0FF0CC3F808C0EE
:103A800058600DF11500186040F67C10C2F200007D
:103A90000123FDF775FC8DF80D001FE09DF80E0069
:103AA000012819D1FFE79DF817109DF816200498FA
:103AB0009DF80FC06B464FF0FF0EC3F808E0C3F847
:103AC00004C0186040F67C10C2F200000123FDF72C
:103AD00011FB8DF80D0000E0FFE7FFE79DF80D00FA
:103AE00006B010BD80B588B0002305938DF81F3057
:103AF00069464B60012004900860642006900E2106
:103B00001A46FFF79DFF0499059B844606989DF889
:103B10001F2042EA0C028DF81F2045F66422C0F6F1
:103B2000000203921278EC46CCF80430CCF8001076
:103B30000F21FFF785FF039A0499059B8646069897
:103B40009DF81FC04CEA0E0C8DF81FC05278EC4651
:103B5000CCF80430CCF800100D21FFF771FF039A68
:103B60000499059B864606989DF81FC04CEA0E0CEA
:103B70008DF81FC09278EC46CCF80430CCF80010D9
:103B80000B21FFF75DFF039A0499059B8646069873
:103B90009DF81FC04CEA0E0C8DF81FC0D278EC4681
:103BA000CCF80430CCF800100C21FFF749FF014697
:103BB0009DF81F0008438DF81F009DF81F0008B0F6
:103BC00080BD000080B582B000208DF8070000F0B5
:103BD000A9F901469DF8070008438DF8070040F653
:103BE0007410C2F2000000780007002815D5FFE726
:103BF00040F67510C2F2000000F0EAF901469DF8A7
:103C0000070008438DF8070040F67411C2F2000166
:103C1000087800F0F700087000E0FFE79DF8070063
:103C200002B080BD80B584B069460120486008605C
:103C300064200E2100220DF10D03FFF701FF8DF826
:103C40000E009DF80E0000285FD1FFE79DF80D00E3
:103C500000285AD0FFE79DF80D00C00748B1FFE7E4
:103C600040F67411C2F20001087840F001000870BB
:103C700000E0FFE79DF80D004008C00748B1FFE7EE
:103C800040F67411C2F20001087840F0020008709A
:103C900000E0FFE79DF80D00C008C00748B1FFE74E
:103CA00040F67411C2F20001087840F0100008706C
:103CB00000E0FFE79DF80D000009C00748B1FFE7ED
:103CC00040F67411C2F20001087840F00400087058
:103CD00000E0FFE79DF80D004009C00748B1FFE78D
:103CE00040F67411C2F20001087840F00800087034
:103CF00000E0FFE7694600234B6001200860642074
:103D00000E211A46FFF79CFE00E0FFE704B080BDDD
:103D100080B58CB0099108900898DDF82310CDF893
:103D20002B100A909DF828003B2800F2F280FFE754
:103D30009DF829003B2800F2EC80FFE79DF82A005F
:103D4000172800F2E680FFE79DF82B00202800F2FC
:103D5000E080FFE79DF82C001F2800F2DA80FFE7E3
:103D60009DF82D000C2800F2D480FFE79DF82E006E
:103D7000632800F2CE80FFE79DF8280049F69A11EB
:103D8000C1F699110391A0FB012101EB8102A0EB87
:103D9000420040EA01106A46002305935360012166
:103DA00004911160C2B2642006901946FFF748FEE4
:103DB000DDF80CC00499059B024606988DF81F207B
:103DC0009DF82920A2FB0CEC0CEB8C0EA2EB4E0212
:103DD00042EA0C12EC46CCF80430CCF80010D2B217
:103DE000FFF72EFEDDF80CC0049A059B8646069868
:103DF0009DF81F1041EA0E018DF81F109DF82A1042
:103E0000A1FB0CEC0CEB8C0EA1EB4E0141EA0C116A
:103E1000EC46CCF80430CCF80020CAB20221FFF7FF
:103E20000FFE0499059B844606989DF81F2042EAE0
:103E30000C028DF81F209DF82B20EC46CCF80430A6
:103E4000CCF800100321FFF7FBFDDDF80CC0049A4D
:103E5000059B864606989DF81F1041EA0E018DF8D5
:103E60001F109DF82C10A1FB0CEC0CEB8C0EA1EBA1
:103E70004E0141EA0C11EC46CCF80430CCF800209D
:103E8000CAB20421FFF7DCFDDDF80CC0049A059BE3
:103E9000864606989DF81F1041EA0E018DF81F1006
:103EA0009DF82D10A1FB0CEC0CEB8C0EA1EB4E0140
:103EB00041EA0C11EC46CCF80430CCF80020CAB230
:103EC0000521FFF7BDFDDDF80CC0049A059B864671
:103ED00006989DF81F1041EA0E018DF81F109DF8FD
:103EE0002E10A1FB0CEC0CEB8C0EA1EB4E0141EA69
:103EF0000C11EC46CCF80430CCF80020CAB20621F4
:103F0000FFF79EFD01469DF81F0008438DF81F0036
:103F100003E001208DF81F00FFE79DF81F000CB0A3
:103F200080BD000080B584B069460120486008600B
:103F300064200E2100220DF10E03FFF781FD8DF8A4
:103F40000F009DF80F00E8BBFFE79DF80E00C8B317
:103F5000FFE79DF80E00C00778B1FFE740F6741147
:103F6000C2F20001087840F0010008709DF80E00D0
:103F700000F0FE008DF80E0000E0FFE79DF80E0057
:103F80004008C00778B1FFE740F67411C2F20001A3
:103F9000087840F0020008709DF80E0000F0FD0067
:103FA0008DF80E0000E0FFE79DF80E206946002323
:103FB0004B600120086064200E21FFF741FD8DF861
:103FC0000F0000E0FFE79DF80F0004B080BD000087
:103FD00080B586B005900598002800F09D80FFE729
:103FE000694601204860072008606420002203AB76
:103FF0001146FFF725FD8DF813009DF813000028EA
:1040000040F08880FFE79DF80C1001F00F000909CF
:1040100001EB810100EB41008DF80C009DF80D10C3
:1040200001F00F00090901EB810100EB41008DF85F
:104030000D009DF80E1001F00F00090901EB810140
:1040400000EB41008DF80E009DF8101001F00F00FC
:10405000090901EB810100EB41008DF810009DF88A
:10406000111001F00F00090901EB810100EB410083
:104070008DF811009DF8121001F00F00090901EBF5
:10408000810100EB41008DF812009DF80C003B28E7
:104090003BD8FFE79DF80D003B2836D8FFE79DF899
:1040A0000E00172831D8FFE79DF80F0020282CD8E4
:1040B000FFE79DF810001F2827D8FFE79DF81100A3
:1040C0000C2822D8FFE79DF8120063281DD8FFE7CF
:1040D0009DF80C00059908709DF80D000599487031
:1040E0009DF80E00059988709DF80F000599C8701D
:1040F0009DF81000059908719DF811000599487107
:104100009DF812000599887103E001208DF81300D5
:10411000FFE700E0FFE703E001208DF81300FFE771
:104120009DF8130006B080BD80B596B005A8442167
:10413000FCF732FA00200490039002900190009066
:104140004FF40070FDF73CFB18B1FFE7FCF78CFB68
:10415000FFE7022005904FF480710891102109912A
:104160000F901090012111910A21129107211391B2
:104170001490159005A8FEF71FF918B1FFE7FCF79A
:1041800073FBFFE70F2000900320019000200290B6
:104190000390049068460421FDF750FE18B1FFE734
:1041A000FCF762FBFFE716B080BD00004EF68851B9
:1041B000CEF20001086840F470000860704700000B
:1041C000FFE7FEE781B08DF803009DF903000028AA
:1041D0000ED4FFE79DF9031001F01F02012090406B
:1041E0004A094EF20011CEF2000141F82200FFE729
:1041F00001B070474EF60C50CEF200000068C0F3DC
:104200000220704782B08DF8070000919DF90700E9
:1042100000280AD4FFE7009800019DF907104EF22C
:104220000042CEF2000288540BE0009800019DF895
:10423000071001F00F014EF61452CEF2000288541E
:10424000FFE702B07047000083B00290029800F0D0
:10425000070000904EF60C51CEF200010868019064
:1042600001984FF6FF02104001900198009A40EA31
:1042700002200022C0F2FA52104301900198086017
:1042800003B0704780B58CB00B900A9109920893E7
:104290000B983421FCF780F9089820F0030008906F
:1042A0000A980B99486009980B99886108980B99AE
:1042B000C86109980B99086109980B994861089899
:1042C00008380B9988600B990220C86009980690FD
:1042D00006980899084406900698043806900B98AA
:1042E000049006980590049805990860069804388B
:1042F0000690069805900998059908600998049019
:104300000498059006980599086009980690069803
:10431000043006900698019001994EF6EE60CFF6B3
:10432000FF7008600B9900200862FCF709F80790FD
:104330000B9945F24540C4F25920086040F23C50C8
:10434000C2F20000006858B9FFE70B9840F24051F4
:10435000C2F2000108600B98C0620B98006315E080
:1043600040F24050C2F20000006803900398006BD6
:1043700002900B98039908630B980299C8620298FF
:104380000B99086303980B99C862FFE740F23C5110
:10439000C2F200010868013008600798FBF7D8FFF7
:1043A00000200CB080BD000080B500F073F900F073
:1043B0008FFD40F26451C2F200010020086040F21B
:1043C0006051C2F20001086040F25C51C2F200018B
:1043D000086040F25851C2F20001086040F24851B2
:1043E000C2F20001086040F24451C2F200010860CC
:1043F00040F23451C2F20001086040F23051C2F282
:104400000001086040F24051C2F20001086040F231
:104410003C51C2F20001086040F25451C2F2000166
:10442000086040F25051C2F20001086080BD0000F7
:1044300080B582B040F20400C2F20000006810F1C2
:104440000F3F13D0FFE740F20401C2F200014FF02A
:10445000F0300860FBF734FFFFF7A6FF40F2805111
:10446000C2F20001086801300860FFE740F2040171
:10447000C2F2000101914FF0F030086040F24C5060
:10448000C2F20000006801F023F9019900200860E1
:10449000FBF766FF02B080BD80B58CB0DDF84CC084
:1044A000DDF848C0DDF844C0DDF840C0DDF83CC0B0
:1044B000DDF838C00A900991089207930020029015
:1044C0000E980F99EF22FCF75FF80A98B021FCF7DD
:1044D00063F809980A99886208980A9948640798C5
:1044E0000A9988640E980A99C8600F980A994861D9
:1044F00010980A99C86210980A99C1F89400129805
:104500000A99886112980A99C8610A992020C1F80D
:104510009C000E98019001990F9808440138019071
:1045200001980A99086110981199884207D0FFE70D
:104530000A990020C8630A99C1F8980007E010980A
:104540000A99C86310980A99C1F89800FFE70A9978
:10455000032008630A9944F61D60C0F60000486510
:104560000A9880650A9844F21571C0F60001FBF7BD
:1045700077FFFBF7E5FE06900A9945F24420C5F265
:104580004840086040F26850C2F20000006868B914
:10459000FFE70A9840F26C51C2F2000108600A98E5
:1045A000C0F888000A98C0F88C001AE040F26C50FD
:1045B000C2F20000006805900598D0F88C000490C5
:1045C0000A980599C1F88C000A980499C1F88800E6
:1045D00004980A99C1F88C0005980A99C1F88800D6
:1045E000FFE740F26851C2F200010868013008603C
:1045F00040F28051C2F2000108680130086013984F
:10460000012830D1FFE740F20400C2F20000006848
:10461000EFF305810B910B990843B0F1F03F11D3F3
:10462000FFE740F27450C2F2000000680390039864
:1046300038B1FFE70398C06B02900399C86AC8635A
:10464000FFE702E000200390FFE70698FBF780FEFB
:104650000A9800F037F9039820B1FFE70298039910
:10466000C863FFE712E00698FBF772FEFBF768FEEF
:10467000069040F28051C2F20001086801380860DB
:104680000698FBF765FE00F0FBF8FFE700200CB092
:1046900080BD000080B582B040F27051C2F20001CE
:1046A00000200190086040F27451C2F200010860DD
:1046B00040F20461C2F20001086040F27851C2F297
:1046C00000012020086040F28450C2F200008021E6
:1046D000FBF762FF019840F26C51C2F200010860E2
:1046E00040F26851C2F20001086040F28051C2F20B
:1046F0000001086040F27C51C2F20001086040F203
:104700003851C2F20001086840F08570086002B0BC
:1047100080BD000080B586B040F27050C2F200004B
:10472000006802900298416C806C884740F27C508F
:10473000C2F20000006840B1FFE740F27C50C2F2D4
:104740000000016802988847FFE7FBF7F9FD039036
:104750000299012008630299886302990020C864C5
:1047600040F28051C2F200010868013008600398ED
:10477000FBF7EEFDEFF3148004900498019001988C
:1047800020F00400019001980590059880F31488AA
:10479000029800F083F906B080BD000080B586B0B5
:1047A0000490FBF7CDFD039040F27050C2F2000080
:1047B00000680190019830B9FFE70398FBF7C8FD46
:1047C0001320029058E040F20400C2F2000000689A
:1047D000EFF3058105910599084330B1FFE7039890
:1047E000FBF7B6FD1320029045E0019840F2BC6152
:1047F000C2F20001884206D1FFE70398FBF7A8FD4B
:104800001320029036E0049830B9FFE70398FBF7D5
:104810009FFD002002902CE040F28050C2F2000088
:10482000006830B1FFE70398FBF792FD1320029078
:104830001EE0019904200863019901208863019911
:104840000020C1F8840004980199C86440F28051A6
:10485000C2F200010868013008600398FBF778FD98
:10486000019800F01BF90198D0F884000290FFE74E
:10487000FFE7FFE7FFE7FFE7029806B080BD000013
:1048800080B584B040F28050C2F20000006803900E
:104890000398A8B9FFE740F27050C2F20000006828
:1048A000029040F27450C2F2000000680190029839
:1048B0000199884203D0FFE7FBF7F2FDFFE7FFE72E
:1048C00004B080BD80B58AB00990FBF739FD08902F
:1048D0000998406E28B1FFE709984C3000F0F2FBD0
:1048E00003E009990020C864FFE740F28051C2F25A
:1048F00000010868013808600998806B002840F0C2
:104900008E80FFE70998006B002800F08780FFE7A2
:104910000998406B002879D1FFE7099900200863C6
:104920000998C06A0790079940F28450C2F20000CB
:1049300050F8210005900598002856D1FFE7099806
:10494000079A40F28451C2F2000141F8220009980E
:10495000006209984062079901208840069040F261
:104960000461C2F200010868069A104308600798C3
:1049700040F27851C2F200010968884234D2FFE760
:10498000079840F27851C2F20001086040F274507A
:10499000C2F2000000680390039838B9FFE7099855
:1049A00040F27451C2F2000108601CE007980399BC
:1049B000C96B884216D2FFE7099840F27451C2F2DF
:1049C000000108600898FBF7C3FC40F28050C2F277
:1049D000000000680190019818B9FFE7FBF760FD3F
:1049E000FFE759E0FFE7FFE70FE00598406A049012
:1049F00009980499086209980599486204980999E8
:104A00004862059809990862FFE706E009990020C5
:104A10004863099903200863FFE7FFE71DE0099851
:104A2000006B012818D0FFE70998006B022812D00C
:104A3000FFE70998406B30B9FFE7099900208863C8
:104A40000999086306E00999002048630999032041
:104A50000863FFE7FFE7FFE7FFE740F27050C2F2AD
:104A60000000006802900898FBF772FC029840F280
:104A70007451C2F20001096888420DD0FFE740F28C
:104A80008050C2F2000000680190019818B9FFE759
:104A9000FBF706FDFFE7FFE70AB080BD80B58CB0ED
:104AA0000B9040F27050C2F2000000680290FBF7D9
:104AB00047FC0A900B980299884218D1FFE70B989F
:104AC000C06C0190019850B1FFE70198013028B106
:104AD000FFE70B984C3000F08BFAFFE7FFE70B98ED
:104AE000C06940F66C11C2F200010860FFE740F2B5
:104AF0008051C2F200010868013808600B98806B91
:104B0000012840F02381FFE70B99002088630B9870
:104B1000C06A09900B98006A049004980B99884227
:104B20001ED0FFE70B98406A0390039804994862EF
:104B3000049803990862099940F28450C2F2000077
:104B400050F821000B99884209D1FFE70498099A8F
:104B500040F28451C2F2000141F82200FFE7CBE0AD
:104B6000099A40F28450C2F20000002140F822105D
:104B7000099A01209040069040F20460C2F20000C1
:104B80000268069B9A4302600891006807900798A4
:104B9000E0B9FFE740F27851C2F20001202008603E
:104BA00040F27451C2F20001002008600A98FBF73D
:104BB000CFFB40F28050C2F20000006805900598DB
:104BC00018B9FFE7FBF76CFCFFE7D9E0002006907F
:104BD000079841420840079007980F2811D8FFE72F
:104BE0000798042807D3FFE70798800807900698DE
:104BF00002300690FFE70698079900EB51000690F7
:104C000070E00798FF2817D8FFE70798000907907A
:104C10000698043006900798042807D3FFE7079802
:104C200080080790069802300690FFE706980799DB
:104C300000EB5100069054E0BDF81E0010BBFFE7EA
:104C40000798000A079006980830069007981028E1
:104C500007D3FFE7079800090790069804300690ED
:104C6000FFE70798042807D3FFE707988008079015
:104C7000069802300690FFE70698079900EB51006E
:104C800006902DE0BDF81E000790069810300690A3
:104C90000798B0F5807F07D3FFE70798000A0790D1
:104CA000069808300690FFE70798102807D3FFE71B
:104CB000079800090790069804300690FFE70798C8
:104CC000042807D3FFE7079880080790069802306A
:104CD0000690FFE70698079900EB51000690FFE762
:104CE000FFE7FFE708980699084440F27851C2F2BE
:104CF00000010860FFE7FFE70B9840F27451C2F231
:104D000000010968884220D1FFE740F27850C2F2E2
:104D10000000016840F28450C2F2000050F8210007
:104D200040F27451C2F2000108600A98FBF710FBD0
:104D300040F28050C2F2000000680590059818B952
:104D4000FFE7FBF7ADFBFFE71AE0FFE70A98FBF789
:104D5000FFFA029840F27451C2F2000109688842D9
:104D60000DD0FFE740F28050C2F2000000680590CD
:104D7000059818B9FFE7FBF793FBFFE7FFE7FFE7AD
:104D80000CB080BD80B582B040F27050C2F200001D
:104D900000680090FBF7D4FA019040F21C61C2F267
:104DA000000100200860009890B3FFE70098006BB6
:104DB00068BBFFE70099C86988610098806940F680
:104DC0006C11C2F2000108600099086A88421DD087
:104DD000FFE70099C86AC96B884216D1FFE70098BF
:104DE000016AC26A40F28450C2F2000040F8221008
:104DF00040F27851C2F20001096850F8210040F2F7
:104E00007451C2F200010860FFE7FFE7FFE7FFE728
:104E10000198FBF79DFA02B080BD000080B586B016
:104E2000059005980390FBF78BFA04900398006BAC
:104E300004280ED1FFE740F28051C2F20001086859
:104E4000013008600498FBF783FA0398FFF73AFDF6
:104E500012E00398806E02900398D0F8AC000190A5
:104E60000498FBF775FA029828B1FFE7029A0398B5
:104E700001999047FFE7FFE706B080BD80B582B09B
:104E8000FBF75EFA019040F2B860C2F200000068E1
:104E900000900198FBF75CFA009802B080BD00001A
:104EA00080B582B0FBF74CFA019040F28051C2F21B
:104EB00000010868013008600198FBF749FA40F2E8
:104EC000BC60C2F20000FFF7FDFC02B080BD000034
:104ED00080B58AB040F2B861C2F2000100200890AB
:104EE000086040F66C11C2F20001086040F21C61DB
:104EF000C2F20001086040F21861C2F200010860CD
:104F000040F22061C2F20001086040F22460C2F267
:104F1000000007908021FBF73FFB0799089840F2BB
:104F2000A862C2F20002116040F21462C2F20002F2
:104F300011607C3140F2A462C2F20002116011687B
:104F40000431116040F2B462C2F2000240F26C71AE
:104F5000C2F20001116040F2B062C2F200024FF4EE
:104F60000071116040F2AC61C2F200010860FFE71D
:104F700040F2B460C2F20000006840F2B061C2F2D8
:104F800000010A6840F2AC61C2F200010B68694698
:104F90004FF0000CC1F814C0C1F810C0CB608B609A
:104FA0004A60086040F2BC60C2F2000045F6892108
:104FB000C0F6000145F23512C0F6000244F64D136A
:104FC000C4F25413FFF768FA0990FFE70998002824
:104FD000CED1FFE740F21061C2F20001002008606C
:104FE00040F20C61C2F2000108600AB080BD00000E
:104FF00087B00690069800680190019800285FD05D
:10500000FFE701980130002859D0FFE70698806932
:10501000002853D1FFE70198212803D3FFE71F2081
:10502000009003E0019801380090FFE740F214601F
:10503000C2F200000068009900EB8100059005981D
:1050400040F2A461C2F200010968884213D3FFE76D
:10505000059840F2A461C2F200010968401A80106C
:10506000029040F2A860C2F200000068029900EBD2
:1050700081000590FFE70598006840B9FFE70698B2
:1050800000610698406106980599086012E005984D
:105090000068049004984069039006980399086199
:1050A000069804994861049806990861039806993E
:1050B0004861FFE7059806998861FFE7FFE7FFE78A
:1050C00007B0704784B003900398806902900298FB
:1050D00070B3FFE703980069019003980199884233
:1050E0000BD1FFE7029800680399884204D1FFE7DB
:1050F000029900200860FFE716E0039840690090DD
:105100000098019948610198009908610298006827
:105110000399884207D1FFE70298019988610198B5
:1051200002990860FFE7FFE7039900208861FFE725
:1051300004B0704780B58AB00990002001900998AA
:1051400044F64D11C4F25411884240F0DE80FFE76E
:10515000FFE7FBF7F5F8089040F21460C2F2000098
:10516000006800680790079820B1FFE7079907A833
:105170008861FFE740F21460C2F20000026800217B
:105180001160016804310160006840F2A461C2F25C
:105190000001096888420BD1FFE740F2A860C2F223
:1051A0000000006840F21461C2F200010860FFE7ED
:1051B00040F21861C2F20001002008600898FBF775
:1051C000C7F8FBF7BDF80890FFE70798002877D0ED
:1051D000FFE7079803900798006905900020069064
:1051E00003980599884203D1FFE7002007900EE05D
:1051F00003984069049004980599486105980499BA
:105200000861059907A8886105980790FFE703984A
:10521000006821280ED3FFE703990868203808604A
:1052200000200290039906A8886103980061039802
:10523000069019E00398806802900398C068019076
:105240000399486808600398006840B1FFE7039934
:1052500006A88861039800610398069003E003990B
:1052600000208861FFE7FFE7039840F22061C2F267
:10527000000108600898FBF76BF8029820B1FFE77F
:10528000029901988847FFE7FBF75AF8089040F227
:105290002061C2F20001002008600698039988424C
:1052A00007D1FFE70399002088610398FFF7A0FE6C
:1052B000FFE70898FBF74CF8FBF742F8089084E703
:1052C00040F21860C2F200000068C8B9FFE740F27F
:1052D000BC60C2F2000000900099032008630099AE
:1052E0000120886340F28051C2F200010868013059
:1052F00008600898FBF72CF80098FFF7CFFB03E055
:105300000898FBF725F8FFE723E70AB080BD000007
:1053100080B58CB0DDF838C00990089107920693EB
:1053200000200490099818B9FFE7022004908DE04E
:105330000E98342803D0FFE70220049085E0FAF7A6
:10534000FFFF059040F28051C2F200010868013071
:1053500008600598FAF7FCFF40F24050C2F20000E6
:105360000068029000200390FFE7039840F23C5150
:10537000C2F20001096888420FD2FFE7099802993A
:10538000884201D1FFE708E00298C06A0290FFE777
:10539000FFE7039801300390E7E7FAF7D1FF0590A4
:1053A00040F28051C2F20001086801380860059897
:1053B000FAF7CEFFFFF764FA09980299884203D101
:1053C000FFE7022004903FE0079818B9FFE70320A9
:1053D000049038E00698632803D8FFE7052004907E
:1053E00030E040F27050C2F2000000680190019875
:1053F00040F2BC61C2F20001884203D1FFE71320F2
:105400000490FFE740F20400C2F200000068EFF3EE
:1054100005810B910B99084398B1FFE740F2040016
:10542000C2F200000068EFF305810A910A9908436F
:105430000009B0F10F3F03D2FFE713200490FFE70C
:10544000FFE7FFE7FFE7FFE7FFE7FFE7049840B963
:10545000FFE709980899079A069BFEF713FF049047
:10546000FFE704980CB080BD2DE9F04194B0DDF861
:1054700080C0DDF87CC0DDF878C0DDF874C0DDF8F0
:1054800070C0DDF86CC0DDF868C0119010910F920B
:105490000E9300200C90119818B9FFE70E200C9085
:1054A000E2E02098B02803D0FFE70E200C90DAE06D
:1054B000FAF746FF0D9040F28051C2F200010868F1
:1054C000013008600D98FAF743FF00200B9040F27E
:1054D0006C51C2F20001096809911A990791079A63
:1054E0001B99114401390791079908910A90FFE728
:1054F0000A9840F26851C2F20001096888423AD223
:10550000FFE711980999884203D1FFE701200B902A
:10551000FFE70B98012801D1FFE72CE01A980999C1
:10552000C96888420CD3FFE71A980999096988422B
:1055300005D2FFE700201A9001200B90FFE7FFE75C
:1055400008980999C96888420CD3FFE70898099917
:105550000969884205D2FFE700201A9001200B90CC
:10556000FFE7FFE70998D0F888000990FFE70A985D
:1055700001300A90BCE7FAF7E3FE0D9040F280514B
:10558000C2F200010868013808600D98FAF7E0FEE1
:10559000FFF776F911980999884203D1FFE70E20A9
:1055A0000C905FE01A9818B9FFE703200C9058E0C0
:1055B0000F9818B9FFE703200C9051E01B98FF28C3
:1055C00003D8FFE705200C9049E01C98202803D35E
:1055D000FFE70F200C9041E01D981C99884203D9E9
:1055E000FFE718200C9038E01F98022803D3FFE74C
:1055F00010200C9030E040F27050C2F200000068C1
:105600000690069840F2BC61C2F20001884203D1C4
:10561000FFE713200C90FFE740F20400C2F2000005
:105620000068EFF3058113911399084398B1FFE7E0
:1056300040F20400C2F200000068EFF3058112910D
:10564000129908430009B0F10F3F03D2FFE713207E
:105650000C90FFE7FFE7FFE7FFE7FFE7FFE7FFE764
:10566000FFE7FFE7FFE7FFE70C98E8B9FFE71198CE
:1056700010990F9A0E9BDDF868C01B9C1C9D1D9E07
:105680001E9FDDF87C80EE46CEF81480CEF81070B8
:10569000CEF80C60CEF80850CEF80440CEF800C02A
:1056A000FEF7FAFE0C90FFE70C9814B0BDE8F0810D
:1056B00080B582B000200190FCF714F8FEF734FDAD
:1056C000FDF736FFFDF78AFFFDF7C4FFFFE7FEE7B2
:1056D00080B584B0039000200290694634200860B1
:1056E00040F6D810C2F2000045F66821C0F600016D
:1056F00040F60C22C2F200024FF40073FFF708FEDE
:1057000008B1FFE70EE040F6D810C2F200000190A9
:105710000198FBF773F80290029810B1FFE7FFE7DA
:10572000FEE7FFE704B080BD80B584B0FAF708FE5D
:10573000039002A800F0FCF801900198012804D120
:10574000FFE70298FBF77CF8FFE740F60C41C2F256
:105750000001012008600398FAF7FAFDFBF75AF8F8
:1057600004B080BD80B582B040F60C40C2F20000AB
:10577000006898B1FFE740F60C41C2F2000100203A
:105780000860FBF74BF8FBF755F80190019820B142
:10579000FFE7019800F004F8FFE7FFE702B080BDE3
:1057A00080B586B00590059808B9FFE7BDE0FAF727
:1057B000C7FD049040F2B861C2F200010868059A82
:1057C0001044086040F66C10C2F200000068D0B1CE
:1057D000FFE740F66C10C2F20000006805998842AD
:1057E00009D9FFE740F66C11C2F200010868059A7A
:1057F000801A086006E040F66C11C2F20001012038
:105800000860FFE7FFE740F21460C2F200000068A2
:105810000290002000900390FFE703981F2856D8BD
:10582000FFE702980068D0B3FFE702980068019094
:10583000FFE701980068212807D3FFE701990A686C
:10584000039810441F38086004E003980130019960
:105850000860FFE7019800690190FFE7019802994D
:1058600009688842E5D1FFE7029800684169002095
:105870000861009820B9FFE70298006800900AE0EC
:1058800002980068009949690861029800684069B7
:1058900000994861FFE7029900200860FFE702983D
:1058A00004300290029840F2A461C2F2000109683B
:1058B000884207D3FFE740F2A860C2F20000006808
:1058C0000290FFE7FFE7039801300390A5E740F25D
:1058D000A860C2F20000006840F21461C2F2000148
:1058E0000860FFE70098E0B1FFE700980190019899
:1058F00000690090019800680599884206D9FFE781
:1059000001990868059A801A086003E0019901204E
:105910000860FFE70199002088610198FFF768FBA4
:10592000E0E70498FAF714FDFFE706B080BD000039
:1059300080B588B006904FF0FF300090FAF700FD78
:10594000059040F21460C2F200000068049000204C
:105950000290FFE702981F2842D8FFE704980068EA
:1059600030B3FFE7049800680390FFE703980068EE
:10597000212807D3FFE703980168029808442038DC
:10598000019002E002980190FFE700980199884297
:1059900003D9FFE701980090FFE70398006903909F
:1059A000FFE70398049909688842DFD1FFE7FFE722
:1059B000049804300490049840F2A461C2F20001FB
:1059C0000968884207D3FFE740F2A860C2F20000EE
:1059D00000680490FFE7FFE7029801300290B9E702
:1059E0000598FAF7B5FC0098013030B1FFE7009850
:1059F000069908600120079004E0069900200860DD
:105A00000790FFE7079808B080BDF1EE100A4FF647
:105A1000FF71C0F2C03120EA010040F04070E1EEB9
:105A2000100A70470000000000000000010203049B
:105A300006070809A0860100400D0300801A060031
:105A400000350C0040420F0080841E0000093D001C
:105A500000127A000024F40000366E010048E801CC
:105A6000006CDC0201000000547820417070206D51
:105A7000656D6F727920706F6F6C0041707020548B
:105A800061736B2031306D730053797374656D20D1
:105A900054696D657220546872656164000000008D
:105AA000C05A00080000002010000000F0010008AB
:105AB000D05A000810000020001200001002000858
:105AC00000093D00F0F0F0F01000000000000000C0
:040000050800018D61
:00000001FF
