:020000040800F2
:10000000A01100205902000805140008D9130008A7
:1000100001140008B50600081D14000800000000C7
:100020000000000000000000000000006B0200085B
:10003000B9060008000000006D0300082503000851
:1000400073020008730200087302000873020008BC
:1000500073020008730200087302000873020008AC
:10006000730200087302000873020008730200089C
:10007000730200087302000873020008730200088C
:10008000730200087302000873020008730200087C
:10009000730200087302000873020008730200086C
:1000A000730200087302000873020008730200085C
:1000B0007302000800000000000000007302000846
:1000C0007302000800000000000000007302000836
:1000D0000000000073020008730200080000000026
:1000E0007302000873020008000000000000000016
:1000F0000000000000000000000000000000000000
:100100000000000000000000000000007302000872
:1001100000000000000000007302000873020008E5
:1001200073020008730200087302000873020008DB
:100130007302000800000000000000000000000042
:1001400073020008730200087302000873020008BB
:1001500073020008730200087302000873020008AB
:100160007302000873020008730200080000000018
:100170007302000873020008000000000000000085
:1001800073020008730200087302000800F002F80E
:1001900000F052F814A696E8000CB244B344DA45D5
:1001A00001D100F049F8BAE80F000FA696E8300038
:1001B000A5EB040504EB0607AAEB0704A7F101076A
:1001C0004FEA15154FEA3414A4F10104AC4201D3EF
:1001D00000F032F813F0010F18BFFB1A43F00103CF
:1001E00000F001F8DBE718476C2300008C230000C7
:1001F000103A24BF78C878C1FAD8520724BF30C853
:1002000030C144BF04680C607047000070470000B4
:100210000023002400250026103A28BF78C1FBD80F
:10022000520728BF30C148BF0B6070471FB502F0AE
:1002300063F91FBD10B510BD00F0C2F91146FFF7FC
:10024000F5FF01F045FF00F0E0F903B4FFF7F2FF1E
:1002500003BC00F0E7F9000009488047094800475F
:10026000FEE7FEE7FEE7FEE7FEE7FEE7FEE7FEE766
:10027000FEE7FEE704480549054A064B70470000C3
:10028000091400088D010008A00B0020A011002017
:10029000A00D0020A00D00200000000000000000C4
:1002A000000000082C060020001000E07F3801004C
:1002B0000000FF4000BF00BF00BF00BF00BF00BF85
:1002C00072B64FF0E0205FF82810C0F8081D5FF804
:1002D0002C005FF83410096801605FF83400016891
:1002E00041F0010101604FF0E0205FF840104161F2
:1002F0004FF0070101614FF00001C0F8181D4FF0E9
:100300007F41C0F81C1D5FF85810C0F8201D7047D1
:10031000FFF7FEBFFFF7FEBFFFF7FEBF01B5BDE869
:100320000140704701B500F09BF8BDE801407047FF
:10033000FFF7FEBFFFF7FEBF000000000000000057
:100340004FF000002E4A1060EFF3148020F00400FC
:1003500080F3148862B64FF080504FF0E021C1F86E
:10036000040DBFF34F8FBFF36F8FFEE72548264A7A
:100370004FF00003016891B10360EFF3098C2CE9A1
:10038000F00F1EF0100F01D12CED108A1F4C4CF80D
:1003900004ED2568C1F808C00DB18D61236072B607
:1003A0001168B1B1016062B64F68184C8D6907F1F0
:1003B00001074F602560D1F808C05CF804EB1EF01F
:1003C000100F01D100F024B8BCE8F00F8CF30988BD
:1003D000704772B61168016049B90FB401F0E6FECA
:1003E0000FBC0FB401F08EFF0FBC62B6F1E74FF007
:1003F00000674FF0E028C8F8047D62B6D4E7704784
:10040000B8000020A0000020A4000020C8000020A8
:10041000BCEC088ABCEC08CAFFF7D6BF000000009D
:10042000026922F00702A2F144026FF00203136096
:100430004FF0000353609360D36013615361936185
:10044000D361136253629362D362136353634FF0B9
:10045000FF339363D1634FF08073136482607047FE
:100460002249086800F101000860214B1A683AB17E
:10047000A2F101021A601AB91E4B4FF00100186078
:100480001D490868026822B11C4B4FF001021A6036
:1004900008E000F104001A4B1A68904201D1194B90
:1004A00018680860134B1A6812B914490868D0B16B
:1004B0002DE901401149086808B101F03DFB0D4BE1
:1004C0001A6872B101F0E4FA0F48016849B90F489F
:1004D00001680F4A13680F484FF08052994200D0CC
:1004E0000260BDE80140BFF34F8F7047C400002099
:1004F000C8000020CC000020DC000020D00000203C
:10050000E0000020D8000020B8000020A00000205B
:10051000A400002004ED00E002F0FF0343EA032200
:1005200042EA024200F02CB84FF0000200B5134638
:1005300094469646203922BFA0E80C50A0E80C5003
:10054000B1F12001BFF4F7AF090728BFA0E80C50B4
:1005500048BF0CC05DF804EB890028BF40F8042BAD
:1005600008BF704748BF20F8022B11F0804F18BF1A
:1005700000F8012B70477047704770474FF000023A
:100580000429C0F0128010F0030C3FF4CFAFCCF17F
:10059000040CBCF1020F18BF00F8012BA8BF20F813
:1005A000022BA1EB0C01FFF7C1BF5FEAC17C24BFA6
:1005B00000F8012B00F8012B48BF00F8012B704711
:1005C000754600F02BF8AE4605006946534620F00C
:1005D0000700854618B020B5FFF74CFEBDE8204067
:1005E0004FF000064FF000074FF000084FF0000BEF
:1005F000AC46ACE8C009ACE8C009ACE8C009ACE85E
:10060000C00921F007018D46704710B50446AFF3CD
:1006100000802046BDE81040FFF717BE0048704735
:100620001000002001491820ABBEFEE726000200A2
:100630007047000080B588B040F2F80002224FF405
:100640008063C2F200004FF0010E0021CDE90003EB
:10065000CDE9022240F2F84040F291624FF0B00C36
:10066000CDE9041EC2F2000005A1C0F6000200237D
:10067000CDF818C001F064FCC0B208B080BD00BF66
:10068000417070205461736B205374617274000068
:100690000A2001F035F8FBE780B5FFF7CBFF80BDFE
:1006A0000020012100F028B97047000000207047A9
:1006B00070470000FEE700007047000040F69830E9
:1006C000C2F200000068704780B5032000F078F89F
:1006D000002000F009F800281CBF012080BD00F0B8
:1006E00029F8002080BD000070B540F20006C2F27B
:1006F00000063178E1B1044640F20800C2F2000081
:100700004FF47A720068B2FBF1F1B0FBF1F000F047
:100710004DFE0F2C4FF0010508D838B94FF0FF30CF
:1007200021460022002500F01FF87460284670BDA5
:10073000012070BD82B041F25800C4F2020081680D
:1007400041F001018160816801F00101019101998D
:10075000016841F080510160006800F08050009015
:10076000009802B07047000010B54EF60C5CCEF257
:10077000000CDCF80030C3F3022E8EF00704042CCA
:1007800028BF0424BEF103034FF0FF3E0EFA04F429
:1007900038BF0023A14399400EFA03F39A43114353
:1007A00000F00F0200F160430901043A03F56443CD
:1007B0006244002848BF02F10C03197010BD00000C
:1007C0004EF60C51CEF200010A684FF6FF031A40B4
:1007D00060F30A2242F0806040F0FD7008607047CC
:1007E00047F20001C4F200010A68B0F5007F02F48C
:1007F000C06031D1B0F5007F2CD00868012262F3CF
:100800004A20086040F20800C2F20000006832226C
:1008100050434DF68362C4F21B32A0FB0202900CDF
:100820004A69520511D5421C0FD04A6952050CD5B0
:1008300058B14A69520508D5012806D04A695205BF
:1008400003D50228A0F10400EAD14869400544BF5D
:100850000320704700207047B0F5806FFAD0086819
:10086000022262F34A2008600020704747F2140019
:10087000C4F2000050F8141C322221F4804140F8E8
:10088000141C40F20801C2F20001096851434DF600
:100890008362C4F21B32A1FB0212910C0268920522
:1008A00011D54A1C0FD0026892050CD559B10268C7
:1008B000920508D5012906D00268920503D50229C0
:1008C000A1F10401EAD100680321800501EAE0708A
:1008D0007047000047F20000C4F20000016841F4D4
:1008E000804101607047000047F20000C4F2000040
:1008F000006800F4C060704710B547F21402C4F2FB
:10090000000212680C4628B1900558BFFFF7E2FFBD
:1009100007E000BF900504D5FFF7A8FF002818BF27
:1009200010BD4EF61050CEF200000168012C21F0EF
:100930000401016004BF30BF10BD40BF20BF20BF15
:1009400010BD00002DE9F04381B000286BD042F2C9
:100950000008C4F202080446D8F800000D4600F072
:10096000070088420CD2D8F8000020F00700284386
:10097000C8F80000D8F8000000F00700A84252D1E3
:10098000206841F2080910F00201C4F202090DD0FA
:10099000A268D9F8003003F0F0039A4206D9D9F8DA
:1009A000003023F0F0031A43C9F80020C2072DD10C
:1009B00069B1A168D9F8002002F0F002914206D294
:1009C000D9F8002022F0F0021143C9F80010D8F83D
:1009D000001001F00701A9420CD9D8F8001021F04D
:1009E00007012943C8F80010D8F8001001F00701EA
:1009F000A94218D141071BD4000723D4D9F800001D
:100A0000D9F8041010F00C002CD131E060680028F7
:100A10005ED0022800F07E80032840F0818059F8E3
:100A2000081C890158D4012001B0BDE8F08300BF43
:100A3000D9F80010E26821F4E0611143C9F8001010
:100A40000007DBD5D9F80000216920F4605040EAA6
:100A5000C100C9F80000D9F80000D9F8041010F05E
:100A60000C0005D00C2829D101F00301012925D162
:100A700059F8081C090703D4D9F88C10090A02E0B8
:100A800059F8081C090942F2245201F00F01C0F67E
:100A9000000252F8211000280A4618BF00220C2834
:100AA00071D1D9F8040000F00300022846D00328D1
:100AB00004BF41F20021C0F27A0143E0042857D07C
:100AC00008285BD141F20022C0F27A025BE000BF4D
:100AD00059F8081C8907A6D5D9F8001021F00301A0
:100AE0000843C9F80000FFF7E9FD064641F28837E0
:100AF000D9F80000616800F00C00B0EB810F15D050
:100B0000FFF7DCFD801BB842F2D9032001B0BDE83D
:100B1000F08300BF59F8081C89037FF584AFDBE739
:100B200059F8081C49057FF57EAFD5E7206800F02D
:100B3000020100297FF43DAF49E700BF42F20041C6
:100B4000C0F2F401D9F80400D9F80420C0F302106F
:100B5000C2F306225143D9F804200130B1FBF0F072
:100B6000C2F34161022202EB4101B0FBF1F20AE063
:100B700042F20042C0F2F40205E000BF0022002170
:100B80000C283FF48EAFD9F8000042F21251C0F3A6
:100B90000310C0F60001085C00F01F0022FA00F10B
:100BA00040F20400C2F2000040F208020068C2F203
:100BB0000002116001B0BDE8F043FFF795BD0000F1
:100BC000002804BF012070472DE9F04383B041F2B3
:100BD00000060446C4F20206B068F168227800F00C
:100BE0000C09D00601F003081ED42078C00700F0DD
:100BF0008880B9F1080F00F07D80B9F10C0F08BFB3
:100C0000B8F1030F76D06068B0F5803F07D0B0F53B
:100C1000A02F40F05582306840F48020306030686A
:100C200040F48030306056E2B9F1000F1CD0B9F1C9
:100C30000C0F08BFB8F1010F16D0A1693068002968
:100C400000F0A08140F001003060FFF737FD05465D
:100C50003068800700F1A881FFF730FD401B0228B3
:100C60004FF00300F4D95CE33068800703D5A06936
:100C7000002800F0EF82256A3068000700F14A8101
:100C8000D6F89400000900F0F000854200F2488197
:100C90003068B9F1000F40F008003060306820F093
:100CA000F00040EA050030607068E16920F47F40A0
:100CB00040EA0120706040F0BA82B06DC00000F1DF
:100CC0005782B06D40F08050B065B06D00F080503C
:100CD00002900298FFF708FEB16D21F08051B165D6
:100CE000B0F5007F00F04A82802D40F28782032019
:100CF0008FE200BF3068800303D56068002800F0F1
:100D0000A982207880072DD5B9F1040F1CD0B9F144
:100D10000C0F08BFB8F1020F16D0E1683068002947
:100D200000F0E88140F480703060FFF7C7FC0546B2
:100D3000306840050FD4FFF7C1FC401B02284FF07C
:100D40000300F5D9EDE200BF3068400503D5E06847
:100D5000002800F07F827068216920F0F85040EA96
:100D6000016070602078000760D42078400779D453
:100D70002078800600F1B280A06A002800F012837B
:100D8000022840F02381F068E16A00F003028A4201
:100D900040F03481226B6FF00F0300F0700103EB21
:100DA0000212914240F02A81616B00F4FE42B2EBE4
:100DB000012F40F02381A16B00F07842B2EBC16FAC
:100DC00040F01C81E26B0023CFF6E07303EA02528D
:100DD00000F4C001A2F50012914240F00F81216C95
:100DE0004FF07E4202EA016100F0C06001F17E41F5
:100DF000884240F003813068800100F1D38230687E
:100E000040F080703060F06840F08070F060FFF774
:100E100055FC04463068800100F1C482FFF74EFCA7
:100E2000001B02284FF00300F4D97AE26169D6F87A
:100E30009400002900F0908040F00100C6F8940072
:100E4000FFF73CFC054600BFD6F8940080078CD421
:100E5000FFF734FC401B0228F6D9032003B0BDE89D
:100E6000F08300BFB06D5FEAC00808D4B06D40F0F9
:100E70008050B065B06D00F080500090009847F24F
:100E80000007C4F200073868C00513D4386840F47E
:100E900080703860FFF712FC054600BF3868C00557
:100EA00008D4FFF70BFC401B02284FF00300F5D9D4
:100EB00037E200BFA068012808D0052840F0DE8096
:100EC000D6F8900040F00400C6F89000D6F89000E4
:100ED00040F00100C6F89000DEE000BF616AD6F87D
:100EE0009800002900F0B48040F00100C6F8980096
:100EF000FFF7E4FB054600BFD6F8980080073FF5F2
:100F00003BAFFFF7DBFB401B02284FF00300F3D998
:100F100007E200BF306800F0F00085427FF6B8AE0F
:100F2000B06DC00000F18680B06D40F08050B065BB
:100F3000B06D00F0805001900198FFF7D5FCB16DC5
:100F400021F08051B165B0F5007F79D0802D40F25D
:100F5000E3800320EBE000BF20F00100C6F894001E
:100F6000FFF7ACFB054600BFD6F8940080077FF57D
:100F7000FCAEFFF7A3FB401B02284FF00300F3D9A0
:100F8000CFE100BF20F001003060FFF797FB05467E
:100F9000306880077FF529AEFFF790FB401B0228E1
:100FA0004FF00300F4D9BCE1306840F00800306035
:100FB0003068D4E9071220F0F00010433060706808
:100FC00020F47F4040EA012070600EE6B9F10C0F7A
:100FD00000F04081306820F080703060FFF76EFBD9
:100FE000044600BF3068800140F1EC80FFF766FBEB
:100FF000001B02284FF00300F4D992E1B9F10C0F65
:1010000000F028813068400100F12481306820F030
:1010100080703060FFF752FB054600BF30688001EA
:1010200040F18281FFF74AFB401B02284FF003008A
:10103000F4D976E1FFF758FCB0F5007F7FF486AF76
:10104000812D73D30120A02D88BF02206FE000BF47
:1010500020F00100C6F89800FFF730FB054600BFFE
:10106000D6F8980080077FF587AEFFF727FB401B77
:1010700002284FF00300F3D953E100BFD6F89010D7
:10108000002821F00101C6F89010D6F8901021F048
:101090000401C6F8901079D0FFF710FB054641F225
:1010A000883700BFD6F89000800700F18180FFF7F5
:1010B00005FB401BB842F5D9032003B0BDE8F0831F
:1010C0003168002821F480313160316821F48021B9
:1010D000316000F08380FFF7F1FA05463068800345
:1010E0003FF50FAEFFF7EAFA401B64284FF003000C
:1010F000F4D916E120F480703060FFF7DFFA05467E
:10110000306840057FF52EAEFFF7D8FA401B022865
:101110004FF00300F4D904E1A5F17000B0FA80F0BB
:101120004009802D08BF022001E000BF002042F2EC
:101130000001C4F202010A6822F0070202440A60B8
:10114000096801F00701814240F08480306840F076
:10115000080030603068D4E9071220F0F000104336
:101160003060706820F47F4040EA012070605EE0EB
:10117000FFF7BAFBB0F5007F7FF4B6AD812D47D302
:101180000120A02D88BF022043E000BFFFF796FAA0
:10119000054641F2883700BFD6F89000800707D592
:1011A000FFF78CFA401BB8424FF00300F4D9B8E0C7
:1011B000B8F1000F3FF5DCADB06D20F08050B065A8
:1011C000D6E500BFF0684FF6FC71CFF6EE6108403F
:1011D000F060002003B0BDE8F08300BFFFF76EFAB7
:1011E000054600BF306880037FF58BADFFF766FAD8
:1011F000401B64284FF00300F4D992E0A5F1700081
:10120000B0FA80F04009802D08BF022001E000BF45
:10121000002042F20001C4F202010A6822F0070233
:1012200002440A60096801F00701814212D1B068E6
:10123000F16810F00C0005D00C282BD101F003014F
:10124000012927D13168090708D4D6F89410090A72
:1012500006E000BF012003B0BDE8F0833168090952
:1012600042F2245201F00F01C0F6000252F82110A0
:1012700000280A4618BF00220C2837D1F06800F079
:101280000300022810D0032804BF41F20021C0F25D
:101290007A010DE004281FD0082823D141F2002252
:1012A000C0F27A0222E000BF42F20041C0F2F40133
:1012B000F068F268C0F30210C2F306225143F268EC
:1012C0000130B1FBF0F0C2F34161022202EB4101B7
:1012D000B0FBF1F20AE000BF42F20042C0F2F402B9
:1012E00004E000BF002200210C28C7D0B06842F201
:1012F0001251C0F30310C0F60001085C00F01F009B
:1013000022FA00F140F20400C2F2000040F20802AA
:101310000068C2F200021160FFF7E6F900283FF40E
:1013200064AC03B0BDE8F083F06848F28C01C0F211
:101330009D1104F12C0700EA010C8ECF6FF00F0015
:10134000D4E90F5400EB02100022CFF6E07241EA1C
:101350000C0102EA05520843A2F500124FF07E4547
:1013600040EA032005EA0465104305F17E4540EAA2
:10137000C7602843F060306840F080703060F068EB
:1013800040F08070F060FFF799F904463068800102
:1013900008D4FFF793F9001B02284FF00300F5D99A
:1013A000BFE700BF002003B0BDE8F083411E00206E
:1013B000B0EB116F1CBF012070474EF21002CEF24D
:1013C000000251604EF62351CEF20001F0230B7063
:1013D0000721906011607047FEE7000081B041F284
:1013E0004C00C4F20200016841F001010160006894
:1013F00000F001000090009801B0704700F06EB856
:10140000FEE70000FEE700004EF68850CEF2000036
:10141000016841F47001016070470000FEE70000C0
:10142000F0B581B00F4634211D4616460446FFF73D
:101430007BF825F00300A0F10801A1600221C4E9B6
:101440000660E16030444EF6EE616760C4E9046610
:1014500040F8086DCFF6FF714460C6E9000145F21F
:1014600045410020C4F259212062EFF3108072B68A
:10147000216040F29401C2F200010A6840F2900338
:10148000C2F2000332B11F683E6B3C6306F12C03CD
:1014900002E000BF2746264601321C60C4E90B76F5
:1014A0000A6080F31088002001B0F0BD80B500F024
:1014B000DDF800F053FB40F27000C2F200000021A2
:1014C000C0E90011C0E90211C0E90411C0E9061128
:1014D000C0E90811C0E90A1180BD000010B540F252
:1014E0000C04C2F20004206810F10F3F0DD04FF041
:1014F000F0302060FEF7E4FEFFF7D8FF40F2B800BE
:10150000C2F200000168013101604FF0F03020604C
:1015100040F2A850C2F20000006800F01DFE00205A
:101520002060BDE81040FEF70BBF00002DE9F04F32
:1015300081B0DDE90A5B91460F46DDF838A00C9ECC
:10154000044628465946EF229846FEF7E5FF204616
:10155000B021FEF7E9FF0BEB05010139C4E90351A6
:101560000D9920208E423146A762C4E91198E662A7
:10157000C4E905BAC4F81CA018BF0021C4F89C0037
:101580000320206341F60130E163C4E92561C0F620
:10159000000041F2A561C4E91504C0F6000120462F
:1015A000FEF73EFF45F24421C5F24841EFF31080BB
:1015B00072B6216040F2B401C2F200010A6840F242
:1015C000B003C2F200033AB11F68D7F88C60C7F8C5
:1015D0008C4006F1880301E02746264601320A6066
:1015E00040F2B8011C60C4E92276C2F200010F9DEE
:1015F0000A68012D02F101020A6015D140F20C01C6
:10160000C2F200010968EFF305821143B1F1F03F26
:101610001AD340F2A401C2F200010D68A5B1E96A33
:10162000EE6BE96312E000BF80F31088EFF31080E7
:1016300072B60A68013A0A6080F3108800F0AAF8CE
:10164000002001B000F00EB80025002680F31088BD
:10165000204600F0C5F8002D18BFEE63002001B051
:1016600000F000B830BCBDE8C08F0000B0B540F25B
:10167000A004C2F2000400252020C4E9025040F278
:10168000AC50C2F200008021C4E90055FEF74CFFC7
:10169000C4E90455A561206AE56140F085702062C7
:1016A000B0BD000010B540F2A000C2F20000046816
:1016B000D4E91110884740F2BC00C2F20000016872
:1016C00009B1204688470121EFF3108072B62163EB
:1016D000A1630021E16440F2B801C2F200010A688E
:1016E00001320A6080F31088EFF3148020F00400C8
:1016F00080F314882046BDE8104000F00BB90000CC
:1017000010B540F2A002EFF3108172B6C2F20002EF
:1017100014686CB140F20C02C2F200021268EFF3DE
:1017200005831A4308D081F31088132010BD00BF31
:1017300081F31088132010BD40F2B062C2F20002A3
:1017400094420BD070B140F2B802C2F200021368AA
:1017500063B181F31088132010BD00BF81F310889E
:10176000132010BD81F31088002010BD04232363D3
:101770000123A3630023C4F88430E06410680130BF
:10178000106081F31088204600F0C4F8D4F884007B
:1017900010BD000040F2B800C2F20000006808B1BD
:1017A000704700BF40F2A00040F2A401C2F2000066
:1017B000C2F20001006809688842F1D04EF6045078
:1017C000CEF200004FF080510160EFF30580002859
:1017D00018BF7047EFF3108062B680F3108870472F
:1017E000F0B581B0EFF3108572B60446406E002864
:1017F00004F14C0002D000F02FFA01E0002101605A
:1018000040F2B800C2F20000016801390160A16B2A
:10181000226B002940F2A401C2F2000108D0013A73
:10182000022A0CD3626B32B90022A263226306E063
:101830002AB1626B22B300220323C4E90C3240F2C6
:10184000A002C2F20002126885F3108809688A4279
:1018500001D0006810B101B0F0BD00BF4EF60450D9
:10186000CEF200004FF080510160EFF305800028B8
:10187000F1D1EFF3108062B680F3108801B0F0BDB3
:10188000E26A40F2AC5CC2F2000C5CF822304FF02D
:10189000000EC4F830E02BB15A6A5C621462C4E9ED
:1018A0000832CCE74CF8224040F2A80E40F2AC0CD3
:1018B000C2F2000EC2F2000C0123DEF80060DCF878
:1018C000007093403343BA42C4E90844CEF8003074
:1018D000B5D20B68CCF80020D3B1DB6B9A42AED204
:1018E0000C6085F3108800680028B4D14EF60450CF
:1018F000CEF200004FF080510160EFF30580002828
:10190000A9D1EFF3108062B680F3108801B0F0BD6A
:101910000C6094E770B5044640F2A000C2F20000EB
:101920000668EFF3108572B6A6420ED1204650F835
:101930004C1F013911F1030F98BF00F05FF9E06906
:1019400040F2C801C2F20001086040F2B800C2F2E1
:101950000000016840F2A40C01390160A16BC2F2E1
:10196000000C012916D1236AE26A0021A342A16377
:101970001AD0616A40F2AC5E59620B62C2F2000E8C
:101980005EF82210A14208BF4EF82230DCF80010A9
:10199000A14228D085F31088DCF800108E4202D0D6
:1019A0000068002842D070BD40F2AC53C2F2000380
:1019B00043F8221040F2A803C2F200034FF0010ED8
:1019C00019680EFA02F29143196041D040F2AC025C
:1019D00091FAA1F1C2F20002B1FA81F11160DCF8D2
:1019E0000010A142D6D140F2AC01C2F20001096858
:1019F00040F2AC52C2F2000252F82110CCF80010B2
:101A000085F3108800680028CDD14EF60450CEF240
:101A100000004FF080510160EFF305800028C2D133
:101A2000EFF3108062B680F3108870BD4EF604505C
:101A3000CEF200004FF080510160EFF305800028E6
:101A400018BF70BDEFF3108062B680F3108870BDD0
:101A500040F2AC01C2F2000120220A600021CCF861
:101A6000001085F31088006800289CD14EF60450C1
:101A7000CEF200004FF080510160EFF305800028A6
:101A80007FF491AFEFF3108062B680F3108870BDE1
:101A900040F2A000C2F20000016840F2CC02EFF375
:101AA000108072B6C2F200020023136009B10A6B03
:101AB00012B180F310887047D1E9073240F2C80CA8
:101AC000C2F2000C8A428B61CCF80030F1D0CB6AB4
:101AD000C96B8B42EDD140F2AC0140F2AC5CC2F27A
:101AE0000001C2F2000C09684CF823205CF82110B8
:101AF00040F2A402C2F20002116080F31088704725
:101B0000EFF3108272B6016B04290BD140F2B801D9
:101B1000C2F200010B6801330B6082F31088FFF7FB
:101B20005FBE00BF836ED0F8AC1082F31088002B2C
:101B300008BF70471847000040F2B801EFF310806B
:101B400072B6C2F200010A6801320A6080F310889E
:101B500040F2B060C2F20000FFF742BE2DE9F04350
:101B600087B040F2306640F2C404C2F20006C2F20E
:101B700000040025304680212560C4E90155C4E9F0
:101B80000355FEF7D1FC06F18000C4E9056640F27A
:101B9000B06841F6954644F64D1740F2607104F185
:101BA0001C03C2F200080FF24009C0F60006C4F29E
:101BB0005417C2F200014FF4007227C304F120024F
:101BC00007CACDE903258DE807004046494632465D
:101BD0003B460595FFF7AAFC0028EFD10020C4E999
:101BE0000B0007B0BDE8F08353797374656D205422
:101BF000696D657220546872656164000268511EE7
:101C000011F1030F26D88369002B18BF7047202AD3
:101C100040F2DC02C2F2000288BF1F21126840F2CB
:101C2000D80302EB810140F2E002C2F20002126826
:101C3000C2F200038A1A1B6828BF99180A682AB1E1
:101C4000536950611861C0E9042302E0C0E904004F
:101C500008608161704700008169002908BF7047F2
:101C60000269824208D0436953611A610B6883425A
:101C70000AD00021816170470A688242F9D10022AE
:101C80000A6000218161704791610A6000218161D1
:101C9000704700002DE9F04F83B044F64D11C4F2B7
:101CA000541188421CBF03B000F094B840F2DC0627
:101CB00040F2D00440F2D40BC2F200060027C2F278
:101CC00000040DF10409C2F2000B0DF1080804E054
:101CD000206800286AD081F31088EFF3108072B674
:101CE00031680A68002A029218BFC2F818800F6093
:101CF00040F2E0023168C2F20002126804319142FF
:101D0000316005D140F2D801C2F2000109683160AA
:101D1000276080F31088EFF3108172B605E000BFF2
:101D20008AF31088EFF3108172B6029D002DCFD098
:101D3000286900228542019214D06A69C0F818808F
:101D4000426110612A680290212A10D3A2F120007A
:101D50002860C5F818902D610195CBF8005081F3EB
:101D6000108816E000202A680290212AEED2D5E9D8
:101D70000132E868002B2B600FBF00232D61019515
:101D80004B46AB61CBF8005081F31088002A18BF96
:101D90009047EFF3108A72B60198CBF80070A84212
:101DA000BED12846AF61FFF729FFB9E740F2B06026
:101DB000C2F2000003220263012240F2B8038263F0
:101DC000C2F200031A6801321A6081F31088FFF72B
:101DD000A1FD82E730BCBDE8C08F00002DE9F043D3
:101DE00081B0074600284FF0020000F0A680884628
:101DF0000899342940F0A18040F2B800EFF3108137
:101E000072B6C2F2000015460268994601320260BD
:101E100040F2900281F31088C2F2000240F2940175
:101E20001368C2F200010968DA1BB2FA82F20029D3
:101E30004FEA521618BFBB4216D1EFF3108172B6AB
:101E40000268013A026081F31088FFF7A3FC1EB11B
:101E5000022001B0BDE8F083C5B3B9F1640F39D2F7
:101E6000052001B0BDE8F083042200BFDB6AD61E66
:101E7000DC1BB4FA84F48E424FEA5416DDD2BB4226
:101E8000DBD0DB6A961EDC1BB4FA84F48E424FEA88
:101E90005416D2D2BB42D0D0DB6A561EDC1BB4FA39
:101EA00084F48E424FEA5416C7D2BB42C5D0DB6AD7
:101EB0008A42A3EB0706B6FA86F64FEA5616BCD25C
:101EC000BB4202F10402D1D1B7E700BF032001B049
:101ED000BDE8F08340F2A000C2F20000016840F2C9
:101EE0000C00C2F200000268EFF305831A4313D01E
:101EF00040F2B0620068C2F20002EFF305830343D0
:101F00000020914208BF1320B3F1F03F38BF1320E7
:101F100013D3914206D110E040F2B060C2F200004B
:101F2000814209D0384641462A464B4601B0BDE8B9
:101F3000F043FFF775BA00BF132001B0BDE8F0838E
:101F40002DE9F04F87B0074600284FF00E0054D01F
:101F50008A461699B02950D140F2B800EFF31081AB
:101F600072B6C2F2000093460268DDF84480013286
:101F7000026081F3108840F2B401C2F2000140F225
:101F8000B0020968C2F20002109C1668994609B3B3
:101F900008EB0402013A0023BE4218BF012B19D0FE
:101FA000F568AC4204D20023AA420AD20EE000BF78
:101FB00033699C424FF000033CBF01230024AA4236
:101FC00004D33569AA423CBF00240123D6F88860B7
:101FD0000139E1D1EFF3108172B60268013A026073
:101FE00081F31088FFF7D6FBBE4209D0BBF1000F8A
:101FF0004FF0030018BF002C06D107B000F064B802
:102000000E2007B000F060B8B8F5807F04D205203C
:1020100007B000F059B800BF12991F2904D90F204A
:1020200007B000F051B800BF139A8A4204D91820B3
:1020300007B000F049B800BFDDF854C0BCF1010F93
:1020400004D9102007B000F03FB800BF40F2A00054
:10205000C2F20000036840F20C00C2F20000056802
:10206000EFF305862E4313D040F2B0650068C2F24C
:102070000005EFF3058606430020AB4208BF13209E
:10208000B6F1F03F38BF1320B7D3AB4206D1B4E767
:1020900040F2B060C2F20000834211D01498CDE942
:1020A00002120490384651465A464B46CDE9004844
:1020B000CDF814C0FFF73AFA07B000F005B800BF3A
:1020C000132007B000F000B830BCBDE8C08F00009E
:1020D00096B0FEF7F9FA05A804302421FEF724FA99
:1020E0004FF40070FEF77CFB20B1EFF3108072B666
:1020F000FEE700BF4FF48071089110210991012182
:1021000011910A210220129107210590CDE90F00BB
:10211000CDE91310159005A8FEF752FD20B1EFF39D
:10212000108072B6FEE700BF0F20009003200190E0
:102130000020CDE90200049068460421FEF702FC6D
:1021400020B1EFF3108072B6FEE700BFFFF746F94B
:10215000FFF754F9FEE7000080B582B040F660104A
:1021600040F694124FF0340CC2F200000AA1C2F201
:1021700000024FF40073CDF800C0FFF72FFE48B9FE
:1021800040F66010C2F20000FEF786FA10B100BF00
:10219000FEE700BF02B080BD547820417070206D12
:1021A000656D6F727920706F6F6C00002DE9F047DC
:1021B00040F2DC00EFF3108872B6EFF3108C72B6C9
:1021C000C2F20000056840F2E000C2F20000D0F860
:1021D00000E040F2D800C2F20000D0F800900024E5
:1021E0004FF0FF300BE000BF384600BF0AF1040596
:1021F000754504F1020428BF4D46202C70D02E688E
:1022000096B3A4F1200731460A680969202A2346BB
:1022100088BFBB18984228BF1846B14224D00A682C
:102220000969202A234688BFBB18984228BF184650
:10223000B14219D00B680969202B224688BFFA18D1
:10224000904238BF0246B1420CD00B680969202B7E
:10225000204688BFF818824238BF1046B142D3D119
:1022600002E000BF104600BF05F1040AF24528BF96
:10227000CA46DAF80020002AB8D044F00105A4F1DB
:102280001F01164637683669202F2B4688BFCB19A9
:10229000984228BF18469642A8D033683669202B4A
:1022A0002F4688BFCF18B84228BF384696429DD0E7
:1022B00033683669202B2F4688BFCF18B84238BF05
:1022C0000746964290D033683669202B284688BF4F
:1022D000C818874238BF38469642D3D186E700BF38
:1022E0008CF31088411C18BFFEF7E2F940F69430D9
:1022F000C2F200000121016088F31088BDE8F047B8
:10230000FEF7CEB940F69430C2F200000168002911
:1023100008BF704780B500210160FEF7C5F9FEF7E0
:10232000C5F90028BDE8804018BF00F001B870472B
:10233000002808BF70472DE9F04F81B08146EFF3C8
:102340001080009040F2C40072B6C2F20000016832
:102350004944016040F2C800C2F20000016821B1A6
:10236000B1EB090198BF0121016040F2DC00C2F22B
:102370000000066840F2E00E40F2D80A4FF0000B71
:10238000C2F2000EC2F2000A00204FF0000C19E069
:1023900049690028C1F810B031684DD04269116117
:1023A000316849694161C6F800B0DEF800200436A2
:1023B000DAF8001096420CF1020C28BF0E46BCF170
:1023C000200F7BD03768E7B3ACF120043B4600BF59
:1023D0001A681969202A654688BFA5186A1CB9427F
:1023E0001A601DD00A680B69202A654688BFA518A7
:1023F0006A1CBB420A6013D01A681969202A654614
:1024000088BFA5186A1CB9421A6009D00A680B690E
:10241000202A654688BFA5186A1CBB420A60D7D12E
:102420007969C1F810B0316840B142691161316811
:102430004969416103E000BF0846B4E70846C6F8B1
:1024400000B0DEF80020311DDAF80060914238BF9C
:102450000E4631680029A8D04CF00108ACF11F03EA
:102460000F4600BF3D683A694446202D88BF5C197D
:1024700001348A423C603FF48BAF14681769202C0A
:10248000454688BF1D196C1C8F4214603FF480AF15
:102490003C683A69202C454688BF1D196C1C8A424D
:1024A0003C603FF475AF14681769202C454688BF1F
:1024B0001D196C1C8F421460D4D169E740F2DC0214
:1024C000C2F20002116070B1002400BF016805690A
:1024D000B1EB090198BF012101608461FFF78EFB18
:1024E000002D2846F2D1009880F3108801B000F04A
:1024F00000B830BCBDE8C08FF1EE100A4FF6FF7196
:10250000C0F2C03120EA010040F04070E1EE100A54
:1025100070470000000000000000010203040607ED
:1025200008090000A0860100400D0300801A060083
:1025300000350C0040420F0080841E0000093D0061
:1025400000127A000024F40000366E010048E80111
:10255000006CDC027825000800000020100000005C
:10256000F0010008882500081000002090110000EC
:102570001002000800000000010000001000000030
:0825800000093D00F0F0F0F04D
:040000050800018D61
:00000001FF
