:020000040800F2
:100000002817002059020008254300087D33000806
:1000100021430008E5080008854E000800000000A4
:100020000000000000000000000000006B0200085B
:10003000E9080008000000008D03000825030008FF
:1000400073020008730200087302000873020008BC
:10005000730200087302000873020008ED0800082C
:10006000730200087302000873020008730200089C
:10007000730200087302000873020008730200088C
:10008000730200087302000873020008730200087C
:10009000730200087302000873020008730200086C
:1000A000730200087302000873020008730200085C
:1000B0007302000800000000000000007302000846
:1000C0007302000800000000000000007302000836
:1000D0000000000073020008730200080000000026
:1000E0007302000873020008000000000000000016
:1000F0000000000000000000000000000000000000
:100100000000000000000000000000007302000872
:1001100000000000000000007302000873020008E5
:1001200073020008730200087302000873020008DB
:100130007302000800000000000000000000000042
:100140007302000895390008730200087302000862
:1001500073020008730200087302000873020008AB
:100160007302000873020008730200080000000018
:100170007302000873020008000000000000000085
:1001800073020008730200087302000800F002F80E
:1001900000F052F814A696E8000CB244B344DA45D5
:1001A00001D100F049F8BAE80F000FA696E8300038
:1001B000A5EB040504EB0607AAEB0704A7F101076A
:1001C0004FEA15154FEA3414A4F10104AC4201D3EF
:1001D00000F032F813F0010F18BFFB1A43F00103CF
:1001E00000F001F8DBE71847406F0000606F000087
:1001F000103A24BF78C878C1FAD8520724BF30C853
:1002000030C144BF04680C607047000070470000B4
:100210000023002400250026103A28BF78C1FBD80F
:10022000520728BF30C148BF0B6070471FB506F0AA
:1002300020FF1FBD10B510BD00F0FAF91146FFF701
:10024000F5FF06F067FD00F018FA03B4FFF7F2FFC0
:1002500003BC00F01FFA0000094880470948004726
:10026000FEE7FEE7FEE7FEE7FEE7FEE7FEE7FEE766
:10027000FEE7FEE704480549054A064B70470000C3
:10028000714E00088D010008281100202817002059
:1002900028130020281300200000000000000000A8
:1002A00000000008B80A0020001000E07F380100BC
:1002B0000000FF4000BF00BF00BF00BF00BF00BF85
:1002C00072B64FF0E0205FF82810C0F8081D5FF804
:1002D0002C005FF83410096801605FF83400016891
:1002E00041F0010101604FF0E0205FF840104161F2
:1002F0004FF0070101614FF00001C0F8181D4FF0E9
:100300007F41C0F81C1D5FF85810C0F8201D7047D1
:10031000FFF7FEBFFFF7FEBFFFF7FEBF01B5BDE869
:100320000140704701B500F0D3F8BDE801407047C7
:10033000FFF7FEBFFFF7FEBF000000000000000057
:10034000EFF311804FF0500181F3118870470000E6
:1003500080F31188704700000000000000000000DA
:100360004FF00000364A1060EFF3148020F00400D4
:1003700080F3148862B64FF080504FF0E021C1F84E
:10038000040DBFF34F8FBFF36F8FFEE72D482E4A4A
:100390004FF00003016891B10360EFF3098C2CE981
:1003A000F00F1EF0100F01D12CED108A274C4CF8E5
:1003B00004ED2568C1F808C00DB18D6123604FF0D0
:1003C000500181F311881168C9B101604FF0000438
:1003D00084F311884F681D4C8D6907F101074F6048
:1003E0002560D1F808C05CF804EB1EF0100F01D1B5
:1003F00000F02EB8BCE8F00F8CF3098870474FF07E
:10040000500181F311881168016061B90FB406F0E1
:10041000BFFC0FBC0FB406F0D9FC0FBC4FF00004BA
:1004200084F31188EBE74FF000674FF0E028C8F83D
:10043000047D4FF0000484F31188CBE7704700007F
:10044000300A0020200A0020240A00201C0E002070
:10045000BCEC088ABCEC08CAFFF7CCBF0000000067
:10046000026922F00702A2F144026FF00203136056
:100470004FF0000353609360D36013615361936145
:10048000D361136253629362D362136353634FF079
:10049000FF339363D1634FF08073136482607047BE
:1004A0004FF080504FF0E021C1F8040DEFF30580CC
:1004B000002807D1EFF311814FF0000080F311887D
:1004C00081F3118870470000000000000000000068
:1004D0002249086800F101000860214B1A683AB10E
:1004E000A2F101021A601AB91E4B4FF00100186008
:1004F0001D490868026822B11C4B4FF001021A60C6
:1005000008E000F104001A4B1A68904201D1194B1F
:1005100018680860134B1A6812B914490868D0B1FA
:100520002DE901401149086808B105F0B7FE0D4BEF
:100530001A6872B105F012FE0F48016849B90F48F8
:1005400001680F4A13680F484FF08052994200D05B
:100550000260BDE80140BFF34F8F7047680B002079
:100560001C0E0020CC0A0020C40A0020C80A00206B
:10057000540B0020580B0020300A0020200A0020D5
:10058000240A002004ED00E002F0FF0343EA032206
:1005900042EA024200F02CB84FF0000200B51346C8
:1005A00094469646203922BFA0E80C50A0E80C5093
:1005B000B1F12001BFF4F7AF090728BFA0E80C5044
:1005C00048BF0CC05DF804EB890028BF40F8042B3D
:1005D00008BF704748BF20F8022B11F0804F18BFAA
:1005E00000F8012B70477047704770474FF00002CA
:1005F0000429C0F0128010F0030C3FF4CFAFCCF10F
:10060000040CBCF1020F18BF00F8012BA8BF20F8A2
:10061000022BA1EB0C01FFF7C1BF5FEAC17C24BF35
:1006200000F8012B00F8012B48BF00F8012B7047A0
:10063000754600F02BF8AE4605006946534620F09B
:100640000700854618B020B5FFF714FEBDE820402E
:100650004FF000064FF000074FF000084FF0000B7E
:10066000AC46ACE8C009ACE8C009ACE8C009ACE8ED
:10067000C00921F007018D46704710B50446AFF35D
:1006800000802046BDE81040FFF7DFBD00487047FE
:100690001000002001491820ABBEFEE72600020032
:1006A0007047000080B58CB0002008908DF82F00B6
:1006B00000F02AF900F032F904F076F801469DF8CE
:1006C0002F0008438DF82F0000F0CEF8089B01465C
:1006D0009DF82F0008438DF82F006946B020079041
:1006E000886101200A9048610B61C86088604FF4FE
:1006F00080600990486040F22050C2F2000008601B
:1007000040F62010C2F2000047F2E301C0F60001FB
:1007100040F2F572C0F6000206F0D8F9DDF81CC010
:10072000089B0A9A864609989DF82F1041EA0E0107
:100730008DF82F106946C1F818C04A610B6102227A
:10074000CA608A60486040F27000C2F2000008602F
:1007500040F27040C2F2000047F2F601C0F600011C
:1007600040F28D72C0F6000206F0B0F902460A9817
:100770009DF82F1011438DF82F1040F64461C2F2FE
:10078000000108709DF82F000CB080BD80B586B0C8
:100790000590002000908DF80C008DF80D001720BA
:1007A0008DF80E0004208DF80F0019208DF8100030
:1007B00006208DF8110018208DF812000398DDF83E
:1007C0000F10CDF8071001900198029904F002F97A
:1007D000009805F051FDFFE740F6D811C2F2000184
:1007E00008680130086004F04FF80A2005F0C2F9EB
:1007F000F2E7000080B584B00390FFE740F6DC111B
:10080000C2F2000108680130086069464FF0FF300D
:10081000086040F62060C2F20000012201AB1146E0
:1008200006F0B8F88DF80B009DF80B0020B9FFE733
:10083000019800F003F800E0FFE7DFE781B00090E7
:1008400001B0704780B582B00190019940F62060F8
:10085000C2F20000002206F005F98DF803009DF8B1
:10086000030002B080BD000080B582B000208DF88A
:10087000070040F62060C2F2000047F20411C0F603
:100880000001242205F0EEFF01469DF80700084311
:100890008DF807009DF8070002B080BD80B582B0DA
:1008A000019000200090FFF7FDFE0090009802B03C
:1008B00080BD000080B503F0DBF980BD80B503F09A
:1008C00039FA80BD40F64860C2F200000068704707
:1008D00081B00090009840F64861C2F200010860C3
:1008E00001B07047FFE7FEE77047000080B50220C7
:1008F00000F008F980BD000081B0EFF3108072B6FF
:100900000090FFE7FEE7000042F20401CEF204018E
:10091000086820F0010008607047000042F20401FE
:10092000CEF20401086840F0010008607047000042
:1009300088B00790069100200590FFE7069805997A
:10094000C840002800F0B480FFE70698059A01210E
:100950009140084004900498002800F0A580FFE72B
:10096000059820F003000821C4F2010140580390CB
:10097000059800F0030081000F2000FA01F10398B0
:1009800008400390039802900798B0F1904F03D16C
:10099000FFE70020019018E0079840F20041C4F6FC
:1009A0000001884203D1FFE7012000900AE0079987
:1009B00040F60002C4F600020720914208BF022060
:1009C0000090FFE700980190FFE702980199059ACF
:1009D00002F0030292009140884232D1FFE7049A6C
:1009E00040F20041C4F20101086890430860049A93
:1009F00040F20441C4F20101086890430860049A7F
:100A000040F20C41C4F20101086890430860049A66
:100A100040F20841C4F2010108689043086005985B
:100A200000F0030081000F2088400390039B05988D
:100A300020F003010822C4F201028858984388502C
:100A4000FFE705984100032000FA01F3079A1168B7
:100A500019431160DDF814C00CF007018A000F2162
:100A600001FA02F307996FF0030202EA5C020A44FA
:100A7000116A994311620599490000FA01F3079A36
:100A8000916899439160059A012101FA02F3079A4E
:100A90005168994351600599490000FA01F207999C
:100AA000C8689043C860FFE705980130059045E7A6
:100AB00008B0704780B582B0ADF80600BDF80600FA
:100AC00002281CD1FFE740F64460C2F20000007823
:100AD000022810D1FFE740F64C61C2F2000108780D
:100AE00040F00200087040F6D411C2F2000108681C
:100AF0000130086002E003F0F7FEFFE7FFE702B015
:100B000080BD000080B582B0ADF8060040F2144010
:100B1000C4F201000068BDF8061008420CD0FFE7DF
:100B2000BDF8060040F21441C4F201010860BDF8AE
:100B30000600FFF7BFFFFFE702B080BD88B0079057
:100B4000069100200590FFE7069800680599C840C7
:100B5000002800F07B81FFE706980068059A0121D4
:100B60009140084004900498002800F06B81FFE752
:100B70000698406800F00300012807D0FFE70698B8
:100B8000406800F0030002282FD1FFE70798806833
:100B9000039005984100032000FA01F1039888436F
:100BA00003900698C0680599490000FA01F103987E
:100BB000084303900398079988600798406803905A
:100BC0000599012000FA01F10398884303900698E3
:100BD0004068C0F30010059900FA01F1039808433A
:100BE0000390039807994860FFE70698406800F073
:100BF0000300032818D0FFE70798C0680390059802
:100C00004100032000FA01F10398884303900698FD
:100C100080680599490000FA01F1039808430390A0
:100C200003980799C860FFE70698406800F0030042
:100C3000022826D1FFE7079805996FF0030202EA20
:100C400051010844006A0390059800F007008100F4
:100C50000F2000FA01F10398884303900698006979
:100C6000059901F00701890000FA01F10398084392
:100C7000039003980799059B02EA53021144086206
:100C8000FFE707980068039005984100032000FAE9
:100C900001F10398884303900698406800F0030030
:100CA0000599490000FA01F103980843039003985D
:100CB00007990860069880798007002800F0C180B5
:100CC000FFE7FFE741F26000C4F20200016841F073
:100CD00001010160006800F0010002900298FFE746
:100CE000059820F003000821C4F201014058039048
:100CF000059800F0030081000F2000FA01F103982D
:100D0000884303900798B0F1904F03D1FFE700208C
:100D1000019018E0079840F20041C4F600018842B3
:100D200003D1FFE7012000900AE0079940F6000296
:100D3000C4F600020720914208BF02200090FFE79E
:100D400000980190FFE70198059901F003018900DF
:100D500000FA01F10398084303900398059921F0E4
:100D600003010822C4F20102885040F20840C4F294
:100D70000100006803900499039888430390069843
:100D80008079C006002805D5FFE704990398084339
:100D90000390FFE7039840F20841C4F201010860A4
:100DA00040F20C40C4F201000068039004990398DB
:100DB00088430390069880798006002805D5FFE7D0
:100DC0000499039808430390FFE7039840F20C410D
:100DD000C4F20101086040F20440C4F2010000685E
:100DE00003900499039888430390069880798007BC
:100DF000002805D5FFE70499039808430390FFE70F
:100E0000039840F20441C4F20101086040F200403E
:100E1000C4F201000068039004990398884303908A
:100E200006988079C00728B1FFE704990398084322
:100E30000390FFE7039840F20041C4F2010108600B
:100E4000FFE7FFE70598013005907DE608B07047A1
:100E500082B00190ADF802108DF801209DF80100DC
:100E600028B1FFE7BDF802000199886104E0BDF8F0
:100E7000020001998862FFE702B0704780B582B036
:100E800040F20400C2F20000006840B9FFE705F03C
:100E9000E1F940F6D011C2F20001086023E040F20F
:100EA0000000C2F200000068800B0190FFE701988B
:100EB00088B1FFE700BF00BF00BF00BF00BF00BF99
:100EC00000BF00BF00BF00BF00BF00BFFFE7019829
:100ED00001380190EBE740F6D011C2F2000108683A
:100EE00001300860FFE740F6D010C2F20000006851
:100EF00002B080BD83B001900091019890F841004C
:100F000020283BD1FFE7FFE7019890F84000012837
:100F100004D1FFE702208DF80B0033E00199012096
:100F200081F84000FFE7FFE70199242081F84100A4
:100F300001980168086820F00100086001980168C4
:100F4000086820F480500860009A019801680868D9
:100F50001043086001980168086840F001000860CB
:100F60000199202081F84100FFE70199002081F8D4
:100F70004000FFE700208DF80B0003E002208DF811
:100F80000B00FFE79DF80B0003B0704784B00290A0
:100F90000191029890F84100202840D1FFE7FFE737
:100FA000029890F84000012804D1FFE702208DF854
:100FB0000F0038E00299012081F84000FFE7FFE7C9
:100FC0000299242081F8410002980168086820F005
:100FD000010008600298006800680090009820F402
:100FE000706000900199009840EA012000900098FC
:100FF00002990968086002980168086840F00100D9
:1010000008600299202081F84100FFE70299002042
:1010100081F84000FFE700208DF80F0003E0022078
:101020008DF80F00FFE79DF80F0004B07047000037
:1010300080B582B00090009820B9FFE701208DF8BC
:10104000070021E00099242081F841000098016800
:10105000086820F001000860009800F023FB009968
:1010600000204864009981F84100009908630099C4
:1010700081F84200FFE70099002081F84000FFE777
:1010800000208DF80700FFE79DF8070002B080BD43
:1010900080B582B00090009820B9FFE701208DF85C
:1010A00007007BE0009890F8410040B9FFE7009905
:1010B000002081F84000009800F018FBFFE700993D
:1010C000242081F8410000980168086820F00100A0
:1010D000086000980168406820F07060086100981E
:1010E0000168886820F4004088600098C068012882
:1010F00007D1FFE700980168806840F400408860ED
:1011000006E000980168806840F404408860FFE7CA
:101110000098C068022807D1FFE700980168486876
:1011200040F40060486006E000980168486820F4D8
:1011300000604860FFE700980168486848F20002D4
:10114000C0F200221043486000980168C86820F48B
:101150000040C860009A1168106953699269184389
:1011600040EA0220C860009A1168D069126A1043F0
:10117000086000980168086840F001000860009964
:1011800000204864009A202182F8411000990863E9
:10119000009981F842008DF80700FFE79DF80700ED
:1011A00002B080BD10B588B084460C980B98DDF86D
:1011B00028E0CDF818C0ADF81610ADF81420ADF841
:1011C0001230ADF81000069890F84100202840F049
:1011D0002681FFE70A9820B1FFE7BDF8100040B96B
:1011E000FFE706994FF40070486401208DF81F0056
:1011F00019E1FFE7069890F84000012804D1FFE7C5
:1012000002208DF81F000EE10699012081F84000B0
:10121000FFE7FFE7FFF732FE0390069803996A465F
:1012200011604FF400410122192302F0B3FA20B1FA
:10123000FFE701208DF81F00F5E00699222081F8D4
:1012400041000699402081F8420006990020486438
:101250000A99069A5162BDF81010069A51850699AE
:1012600048630698BDF81610BDF81420BDF812307A
:10127000DDF830C0039CEE46CEF80440CEF800C046
:1012800002F09EF950B1FFE7FFE70699002081F8D0
:101290004000FFE701208DF81F00C4E00698408D54
:1012A000B0F5807F14D3FFE70699FF2008850698E4
:1012B000BDF8161090F82820EC4642F20043C8F220
:1012C0000003CCF800304FF0807302F039FA14E0DC
:1012D0000698408D069908850698BDF8161090F876
:1012E0002820EC4642F20043C8F20003CCF800305C
:1012F0004FF0007302F024FAFFE7FFE706980C9B1B
:1013000003996A4611600421002202F043FA20B1D9
:10131000FFE701208DF81F0085E006980068406A0D
:101320000699496A08700699486A01304862069928
:10133000088D013808850699488D0138488506983A
:10134000408DE8B3FFE70698008DC8BBFFE706981D
:101350000C9B03996A4611608021002202F01AFA60
:1013600020B1FFE701208DF81F005CE00698408D5A
:10137000B0F5807F11D3FFE70699FF200885069816
:10138000BDF8161090F82820EC460023CCF8003069
:101390004FF0807302F0D4F911E00698408D069961
:1013A00008850698BDF8161090F82820EC46002312
:1013B000CCF800304FF0007302F0C2F9FFE7FFE70E
:1013C000FFE70698408D002898D1FFE706980C9912
:1013D000039A02F037FA20B1FFE701208DF81F00D1
:1013E00021E0069801682020C86106990A685168C2
:1013F0004EF60003CFF6006319405160069981F85C
:1014000041000699002081F84200FFE7069900207C
:1014100081F84000FFE700208DF81F0003E0022064
:101420008DF81F00FFE79DF81F0008B010BD0000F9
:1014300010B588B084460C980B98DDF828E0CDF8FC
:1014400018C0ADF81610ADF81420ADF81230ADF894
:101450001000069890F84100202840F01B81FFE71B
:101460000A9820B1FFE7BDF8100040B9FFE70699E0
:101470004FF40070486401208DF81F000EE1FFE773
:10148000069890F84000012804D1FFE702208DF86B
:101490001F0003E10699012081F84000FFE7FFE704
:1014A000FFF7ECFC0390069803996A4611604FF42D
:1014B00000410122192302F06DF920B1FFE701205C
:1014C0008DF81F00EAE00699212081F84100069975
:1014D000402081F842000699002048640A99069A43
:1014E0005162BDF81010069A518506994863069816
:1014F000BDF81610BDF81420BDF81230DDF830C06C
:10150000039CEE46CEF80440CEF800C002F0B8F8D6
:1015100050B1FFE7FFE70699002081F84000FFE7A0
:1015200001208DF81F00B9E00698408DB0F5807F4E
:1015300011D3FFE70699FF2008850698BDF816101D
:1015400090F82820EC460023CCF800304FF0807350
:1015500002F0F6F811E00698408D06990885069885
:10156000BDF8161090F82820EC460023CCF8003087
:101570004FF0007302F0E4F8FFE7FFE706980C99DC
:10158000039A02F0B1F920B1FFE701208DF81F00A6
:1015900084E006980168406A007888620699486A83
:1015A000013048620699488D013848850699088DB2
:1015B000013808850698408DE8B3FFE70698008D4E
:1015C000C8BBFFE706980C9B03996A46116080210F
:1015D000002202F0DFF820B1FFE701208DF81F00A4
:1015E0005CE00698408DB0F5807F11D3FFE7069947
:1015F000FF2008850698BDF8161090F82820EC46C4
:101600000023CCF800304FF0807302F099F811E01D
:101610000698408D069908850698BDF8161090F832
:101620002820EC460023CCF800304FF0007302F085
:1016300087F8FFE7FFE7FFE70698408D00289DD178
:10164000FFE706980C99039A02F0FCF820B1FFE737
:1016500001208DF81F0021E0069801682020C86154
:1016600006990A6851684EF60003CFF600631940E8
:101670005160069981F841000699002081F84200E6
:10168000FFE70699002081F84000FFE700208DF871
:101690001F0003E002208DF81F00FFE79DF81F00E8
:1016A00008B010BD80B582B001900198006845F285
:1016B0000041C4F20001884215D1FFE741F2580110
:1016C000C4F20201086820F4001008604FF0904056
:1016D00000904FF40071FFF72BF900984FF48061F0
:1016E000FFF726F9FFE702B080BD000080B59EB08D
:1016F0001D9000201C901B901A901990189003A820
:101700005421FEF749FF1D98006845F20041C4F2DC
:10171000000188423BD1FFE74020039000200E905B
:1017200003A800F0C9FC18B1FFE7FFF7E5F8FFE7F1
:10173000FFE741F24C00C4F20200016841F00101F0
:101740000160006800F0010002900298FFE74FF48A
:10175000C06018901220199000201A9003201B904E
:1017600004201C904FF0904018A9FFF7E7F9FFE71D
:1017700041F25800C4F20200016841F40011016016
:10178000006800F4001001900198FFE7FFE71EB029
:1017900080BD000080B582B0002000908DF8070069
:1017A000032000F075FB009800F00EF820B1FFE771
:1017B00001208DF8070002E000F01AFBFFE79DF81A
:1017C000070002B080BD000081B00090002001B091
:1017D0007047000080B582B0019040F6E461C2F22B
:1017E000000108680130086040F64C61C2F2000157
:1017F000087840F00100087040F6AC60C2F20000CA
:1018000000F08CF802B080BD81B0009001B070474C
:1018100081B0009001B0704781B0009001B0704776
:1018200080B584B0029001910299022081F83600BF
:101830000298006847F60041C4F20001884209D1CD
:10184000FFE740F22041C4F20101086840F00100C6
:10185000086008E040F22041C4F20101086840F04D
:1018600002000860FFE70298406801280DD0FFE7FA
:101870000298806AB0F5000F07D1FFE7029801686F
:10188000C86820F46060C860FFE7029801680869D2
:1018900040F0010008610298006810214160019841
:1018A000029A12689061029802F09EF9032804D10E
:1018B000FFE703208DF80F002CE0029802F072F889
:1018C000029800F0ABF8032804D1FFE703208DF85D
:1018D0000F001FE002980168886840F010008860DF
:1018E00002980168886840F00200886002980168E8
:1018F000086940F00100086102980168086940F039
:10190000040008610299012081F8360000208DF85A
:101910000F00FFE79DF80F0004B080BD80B582B0D6
:1019200000900098006847F60041C4F20001884228
:1019300009D1FFE740F22041C4F20101086820F01C
:101940000100086008E040F22041C4F2010108688B
:1019500020F002000860FFE70099022081F83600BD
:10196000009802F01FF8009800F058F8032804D1FE
:10197000FFE703208DF8070013E0009801688868EE
:1019800020F01000886000980168886820F002004C
:1019900088600099012081F8360000208DF807004A
:1019A000FFE79DF8070002B080BD000080B582B05F
:1019B0000090009820B9FFE701208DF8070021E092
:1019C0000099022081F83600009801F0EBFF0098A2
:1019D00000F024F8032804D1FFE703208DF8070066
:1019E00010E0009800F0A6F90099002081F8360078
:1019F000FFE70099002081F83500FFE700208DF80F
:101A00000700FFE79DF8070002B080BD81B000909D
:101A100001B0704781B0009001B0704781B0009074
:101A2000009890F8360001B07047000080B582B091
:101A30000190019800680068C00778B1FFE701983D
:101A400000688068C00740B1FFE701980168012085
:101A500048600198FFF7DCFEFFE7FFE701980068A8
:101A6000006800F002010020B0EB510F13D0FFE737
:101A700001980068806800F002010020B0EB510F6F
:101A800008D0FFE701980168022048600198FFF73D
:101A9000A1FEFFE7FFE701980068006800F004017D
:101AA0000020B0EB910F13D0FFE701980068806829
:101AB00000F004010020B0EB910F08D0FFE701987F
:101AC000016804204860019800F08EF9FFE7FFE705
:101AD00001980068006800F008010020B0EBD10F09
:101AE00013D0FFE701980068806800F0080100202B
:101AF000B0EBD10F08D0FFE70198016808204860DB
:101B00000198FFF789FEFFE7FFE70198006800688A
:101B100000F010010020B0EB111F13D0FFE7019877
:101B20000068806800F010010020B0EB111F08D0A1
:101B3000FFE701980168102048600198FFF764FEF4
:101B4000FFE7FFE701980068006800F0200100202F
:101B5000B0EB511F13D0FFE701980068806800F0D8
:101B600020010020B0EB511F08D0FFE70198016869
:101B7000202048600198FFF74DFFFFE7FFE701983D
:101B80000068006800F040010020B0EB911F13D006
:101B9000FFE701980068806800F040010020B0EB8A
:101BA000911F08D0FFE70198016840204860019824
:101BB000FFF72CFFFFE7FFE702B080BD80B584B0E0
:101BC0000290029820B9FFE701208DF80F00ACE0E9
:101BD00002984068012806D0FFE70298806AB0F5B5
:101BE000000F01D1FFE7FFE7029840694FF6FF7150
:101BF000884201D0FFE7FFE7029890F8360040B92D
:101C0000FFE70299002081F83500029800F0ACF857
:101C1000FFE70299022081F8360002980068C06848
:101C2000019002984068012806D0FFE70298806A78
:101C3000B0F5000F05D1FFE7019820F01E000190DC
:101C4000FFE7029840694FF6FF71884206D0FFE730
:101C500001984EF2C00188430190FFE701984FF2CE
:101C6000FE11CFF619710840019002994868D1F829
:101C700008C00B6A4A6A40EA0C0018431043896A9C
:101C800001430198084301900298406840B9FFE77A
:101C900002980169C0690143019808430190FFE778
:101CA00002984068012806D0FFE70298806AB0F5E4
:101CB000000F08D1FFE70299C8680969014301983C
:101CC00008430190FFE7029840694FF6FF71884290
:101CD0000AD0FFE7029948698A69C969104301433C
:101CE000019808430190FFE7019802990968C860CC
:101CF0000298006847F60041C4F20001884207D10B
:101D0000FFE7029A1168D06A126B1043086204E080
:101D100002980168C06A0862FFE70299012081F811
:101D2000360000208DF80F00FFE79DF80F0004B08B
:101D300080BD000080B582B001900198006847F630
:101D40000041C4F2000188420CD1FFE741F2580182
:101D5000C4F20201086820F000400860412000F051
:101D600069F8FFE702B080BD80B598B0179002A86F
:101D70005421FEF711FC1798006847F60041C4F2A1
:101D80000001884226D1FFE74FF400700290002046
:101D90000F9002A800F090F918B1FFE7FEF7ACFD34
:101DA000FFE7FFE741F25800C4F20200016841F08A
:101DB00000410160006800F0004001900198FFE7D9
:101DC000412000900121002200F048F8009800F026
:101DD0003BF8FFE718B080BD81B000900098006824
:101DE000C06901B07047000081B0009001B0704739
:101DF00082B0FFE741F26000C4F20200016841F0E6
:101E000001010160006800F0010001900198FFE706
:101E1000FFE741F25800C4F20200016841F080512E
:101E20000160006800F0805000900098FFE702B069
:101E30007047000080B582B08DF807009DF907005B
:101E400003F022F802B080BD80B582B08DF80700A3
:101E50009DF9070003F034F802B080BD80B586B06C
:101E60008DF81700049103920020029003F040F8CF
:101E700002909DF91700019002980499039A02F0CC
:101E800053FA0146019803F03BF806B080BD00000C
:101E900080B582B00190019803F054F802B080BD83
:101EA00084B002900298B0F5007F4DD1FFE747F271
:101EB0000000C4F20000006800F4C060B0F5007FCC
:101EC00041D0FFE747F20002C4F20002116801208E
:101ED00060F34A21116040F20001C2F2000109687A
:101EE000322251434DF68362C4F21B32A1FB022120
:101EF00000EB91400190FFE747F21400C4F20000AC
:101F00000168002049050029009006D5FFE70198E7
:101F1000002818BF01200090FFE70098C00720B1FB
:101F2000FFE7019801380190E6E747F21400C4F298
:101F3000000000684005002804D5FFE703208DF865
:101F40000F001BE0FFE715E047F20000C4F20000BD
:101F5000006800F4C060B0F5806F0AD0FFE747F278
:101F60000001C4F200010868022262F34A200860FE
:101F7000FFE7FFE700208DF80F00FFE79DF80F0057
:101F800004B0704783B047F20001C4F20001086852
:101F900020F48040086040F20000C2F200000068B7
:101FA000322148434DF68361C4F21B31A0FB01018D
:101FB000012000EB91400190FFE747F21400C4F2CA
:101FC00000000168002089050029009006D5FFE780
:101FD0000198002818BF01200090FFE70098C00773
:101FE00020B1FFE7019801380190E6E747F21400BD
:101FF000C4F2000000688005002804D5FFE7032034
:102000008DF80B0003E000208DF80B00FFE79DF832
:102010000B0003B07047000047F20001C4F200015A
:10202000086840F4804008607047000047F20000F4
:10203000C4F20000006800F4C060704780B582B050
:1020400001908DF80310019880B9FFE747F2140062
:10205000C4F2000000688005002806D5FFE7FFF7FE
:1020600091FF08B1FFE724E0FFE70FE047F214001B
:10207000C4F20000006800F400710020B0EB512FA2
:1020800003D1FFE7FFF7C8FFFFE7FFE74EF6105168
:10209000CEF20001086820F0040008609DF80300FB
:1020A000012802D1FFE730BF03E040BF20BF20BFBF
:1020B000FFE702B080BD000080B586B0059000202B
:1020C0008DF80B008DF80A0005984078000700286D
:1020D0003BD5FFE70598C06B009098B1FFE70098EB
:1020E000B0F5000F05D0FFE70098B0F5400F11D014
:1020F00011E041F20C01C4F20201086840F48030A2
:1021000008600CE005980430002102F043F98DF8D6
:102110000B0004E003E001208DF80B00FFE79DF8C1
:102120000B0060B9FFE741F28801C4F202010868C0
:1021300020F44000059AD26B1043086004E09DF83B
:102140000B008DF80A00FFE7FFE70598807880070D
:10215000002840F1B580FFE700208DF8090041F22A
:102160005800C4F202000068C000002813D4FFE742
:10217000FFE741F25800C4F20200016841F08051CB
:102180000160006800F0805001900198FFE7012095
:102190008DF80900FFE747F20001C4F2000108686A
:1021A00040F480700860FEF769FE0390FFE747F295
:1021B0000000C4F200000068C00500280CD4FFE74E
:1021C000FEF75CFE0399401A032804D3FFE70320BF
:1021D0008DF80B0000E0EAE79DF80B0000285BD1CA
:1021E000FFE741F29000C4F20200006800F4407082
:1021F00004900498C8B1FFE704980599096D8842D6
:1022000013D0FFE741F29001C4F20201086820F404
:1022100040700490086840F480300860086820F43A
:102220008030086004980860FFE79DF81000C00740
:10223000E0B1FFE7FEF722FE0390FFE741F29000D6
:10224000C4F202000068800700280ED4FFE7FEF702
:1022500015FE0399401A41F28931884204D3FFE701
:1022600003208DF80B0000E0E8E7FFE79DF80B0086
:1022700060B9FFE741F29001C4F20201086820F45E
:102280004070059A126D1043086004E09DF80B0041
:102290008DF80A00FFE704E09DF80B008DF80A00B6
:1022A000FFE79DF80900012809D1FFE741F2580135
:1022B000C4F20201086820F080500860FFE7FFE7E1
:1022C00005980078C00760B1FFE741F28801C4F2C9
:1022D0000201086820F00300059A126A10430860A2
:1022E000FFE705980078800700280CD5FFE741F24A
:1022F0008801C4F20201086820F00C00059A526AB5
:1023000010430860FFE705980078800600280CD588
:10231000FFE741F28801C4F20201086820F440603E
:10232000059A926A10430860FFE705984078800795
:1023300000280CD5FFE741F28801C4F202010868C9
:1023400020F44020059A526B10430860FFE705987F
:102350004078400700280CD5FFE741F28801C4F21D
:102360000201086820F44010059A926B104308603F
:10237000FFE705980078400600280CD5FFE741F2FA
:102380008801C4F20201086820F44050059AD26A1C
:1023900010430860FFE705984078C00760B1FFE789
:1023A00041F28801C4F20201086820F44030059A25
:1023B000126B10430860FFE70598407880060028FC
:1023C00033D5FFE741F28801C4F20201086820F02A
:1023D0004060059A126C104308600598006CB0F1DB
:1023E000006F09D1FFE741F20C01C4F20201086855
:1023F00040F48010086017E00598006CB0F1806F21
:1024000011D1FFE705980430012101F0C3FF8DF8D9
:102410000B009DF80B0028B1FFE79DF80B008DF82D
:102420000A00FFE7FFE7FFE7FFE70598807840072E
:10243000002834D5FFE741F28801C4F202010868A0
:1024400020F04060059A526C104308600598406C7B
:10245000B0F1006F09D1FFE741F20C01C4F20201B3
:10246000086840F48010086018E00598406CB0F1EE
:10247000806F11D1FFE705980430012101F08AFF38
:102480008DF80B009DF80B0028B1FFE79DF80B00BD
:102490008DF80A00FFE700E0FFE7FFE7FFE7059898
:1024A00040784006002823D5FFE741F28801C4F2B6
:1024B0000201086820F04050059A926C10430860B1
:1024C0000598806CB0F1805F11D1FFE7059804306A
:1024D000022101F05FFF8DF80B009DF80B0028B181
:1024E000FFE79DF80B008DF80A00FFE7FFE7FFE725
:1024F00005984078000600280CD5FFE741F28801D6
:10250000C4F20201086820F08040059AD26C1043A2
:102510000860FFE79DF80A0006B080BD80B586B070
:1025200004900391049820B9FFE701208DF817006B
:1025300041E1039842F20001C4F20201096801F08E
:102540000701884216D9FFE742F20000C4F20200F8
:10255000016821F00701039A11430160006800F04F
:1025600007000399884204D0FFE701208DF8170087
:1025700021E1FFE7049800788007002819D5FFE7DC
:102580000498806841F20801C4F20201096801F070
:10259000F00188420CD9FFE741F20801C4F20201C0
:1025A000086820F0F000049A926810430860FFE782
:1025B000FFE704980078C007002873D0FFE704986D
:1025C000406803280ED1FFE741F20000C4F2020088
:1025D00000688001002804D4FFE701208DF817006F
:1025E000E9E034E00498406802280ED1FFE741F2A8
:1025F0000000C4F2020000688003002804D4FFE752
:1026000001208DF81700D6E020E00498406870B9EA
:10261000FFE741F20000C4F20200006880070028D2
:1026200004D4FFE701208DF81700C4E00DE041F26B
:102630000000C4F2020000684005002804D4FFE74F
:1026400001208DF81700B6E0FFE7FFE7FFE741F252
:102650000801C4F20201086820F00300049A5268DD
:1026600010430860FEF70AFC0290FFE741F2080001
:10267000C4F20200006800F00C0004994968B0EB55
:10268000810F0ED0FFE7FEF7F9FB0299401A41F2E5
:102690008931884204D3FFE703208DF817008AE0D0
:1026A000E4E7FFE7049800788007002819D5FFE7E2
:1026B0000498806841F20801C4F20201096801F03F
:1026C000F00188420CD2FFE741F20801C4F2020196
:1026D000086820F0F000049A926810430860FFE751
:1026E000FFE7039842F20001C4F20201096801F019
:1026F0000701884216D2FFE742F20000C4F202004E
:10270000016821F00701039A11430160006800F09D
:1027100007000399884204D0FFE701208DF81700D5
:1027200049E0FFE704980078400700280CD5FFE750
:1027300041F20801C4F20201086820F4E060049A42
:10274000D26810430860FFE704980078000700286B
:102750000DD5FFE741F20801C4F20201086820F438
:102760006050049A126940EAC2000860FFE700F076
:1027700027F841F20801C4F202010968C9B20A0946
:1027800047F28C01C0F60001895C01F01F01C840CE
:1027900040F20001C2F20001086040F20C00C2F2F7
:1027A00000000068FFF710F88DF807009DF807009B
:1027B0008DF81700FFE79DF8170006B080BD0000F8
:1027C00089B000200890079041F20800C4F202008E
:1027D000006800F00C00029041F20C00C4F202000C
:1027E000006800F003000190029840B1FFE70298F2
:1027F0000C282ED1FFE7019801282AD1FFE741F2EA
:102800000000C4F2020000680007002809D4FFE7B6
:1028100041F29400C4F202000068C0F30320089063
:1028200008E041F20000C4F202000068C0B20009F2
:102830000890FFE7089947F29C00C0F6000050F8A6
:1028400021000890029818B9FFE708980790FFE761
:1028500016E00298042806D1FFE742F20040C0F2D9
:10286000F40007900BE00298082806D1FFE741F238
:102870000020C0F27A00079000E0FFE7FFE7FFE7E3
:1028800002980C2846D1FFE741F20C00C4F2020086
:10289000006800F00300059005980090012814D00E
:1028A000FFE70098022804D0FFE70098032806D02D
:1028B0000CE042F20040C0F2F400069009E041F260
:1028C0000020C0F27A00069003E0FFE70898069027
:1028D000FFE741F20C00C4F20200016801F070024F
:1028E000012101EB1211039106990268C2F306223D
:1028F0005143039AB1FBF2F10691006800F0C06108
:10290000022000EB1160049006980499B0FBF1F0EE
:102910000790FFE7079809B070470000B0B58AB08C
:102920000890089828B9FFE701208DF8270000F0EB
:1029300021BD41F20800C4F20200006800F00C0062
:10294000059041F20C00C4F20200006800F00300A0
:10295000049008980078C006002840F12E81FFE717
:10296000059850B1FFE705980C2840F0BD80FFE7BF
:102970000498012840F0B880FFE741F20000C4F25B
:10298000020000688007002809D5FFE708988069E1
:1029900028B9FFE701208DF8270000F0EBBC08986C
:1029A000006A019041F20000C4F2020000680007D2
:1029B000002809D5FFE741F20000C4F202000068D8
:1029C00000F0F000009009E041F29400C4F202002F
:1029D000006800F4706000090090FFE7019800991A
:1029E000884229D9FFE70898006A01F013FE28B150
:1029F000FFE701208DF8270000F0BCBCFFE741F2A3
:102A00000001C4F20201086840F00800086008688C
:102A100020F0F000089A126A10430860FFE741F2C4
:102A20000401C4F20201086820F47F40089AD269C8
:102A300040EA022008602CE0FFE741F20001C4F206
:102A40000201086840F008000860086820F0F00003
:102A5000089A126A10430860FFE741F20401C4F2C9
:102A60000201086820F47F40089AD26940EA0220F7
:102A70000860059860B9FFE70898006A01F0CAFD90
:102A800028B1FFE701208DF8270000F073BCFFE7B5
:102A9000FFE7FFF795FE41F20801C4F20201096861
:102AA000C9B20A0947F28C01C0F60001895C01F045
:102AB0001F01C84040F20001C2F20001086040F26C
:102AC0000C00C2F200000068FEF77EFE8DF81B00CD
:102AD0009DF81B0030B1FFE79DF81B008DF8270023
:102AE00000F048BCFFE767E008988069002840D004
:102AF000FFE741F20001C4F20201086840F0010062
:102B00000860FEF7BBF90790FFE741F20000C4F24E
:102B100002000068800700280DD4FFE7FEF7AEF939
:102B20000799401A032805D3FFE703208DF82700F3
:102B300000F020BCE9E7FFE741F20001C4F2020126
:102B4000086840F008000860086820F0F000089A63
:102B5000126A10430860FFE741F20401C4F2020167
:102B6000086820F47F40089AD26940EA0220086091
:102B700021E041F20001C4F20201086820F00100E6
:102B80000860FEF77BF90790FFE741F20000C4F20E
:102B900002000068800700280CD5FFE7FEF76EF9F9
:102BA0000799401A032804D3FFE703208DF8270074
:102BB000E0E3EAE7FFE7FFE7FFE708980078C007F0
:102BC000002800F08B80FFE70598082808D0FFE771
:102BD00005980C2816D1FFE70498032812D1FFE7C7
:102BE00041F20000C4F2020000688003002808D50A
:102BF000FFE70898406820B9FFE701208DF827001B
:102C0000B8E36AE0FFE708984068B0F5803F09D173
:102C1000FFE741F20001C4F20201086840F480308D
:102C2000086020E008984068B0F5A02F0DD1FFE7BC
:102C300041F20001C4F20201086840F480200860FB
:102C4000086840F4803008600CE041F20001C4F2F2
:102C50000201086820F480300860086820F48020B1
:102C60000860FFE7FFE7FFE708984068D0B1FFE79B
:102C7000FEF704F90790FFE741F20000C4F20200FA
:102C80000068800300280CD4FFE7FEF7F7F80799E7
:102C9000401A652804D3FFE703208DF8270069E375
:102CA000EAE719E0FEF7EAF80790FFE741F20000D3
:102CB000C4F202000068800300280CD5FFE7FEF78D
:102CC000DDF80799401A652804D3FFE703208DF843
:102CD00027004FE3EAE7FFE7FFE7FFE70898007800
:102CE0008007002840F18280FFE70598042808D07B
:102CF000FFE705980C2823D1FFE7049802281FD18D
:102D0000FFE741F20000C4F202000068400500281D
:102D100008D5FFE70898C06820B9FFE701208DF8C3
:102D2000270027E341F20401C4F20201086820F001
:102D3000F850089A126940EA02600860FFE754E020
:102D40000898C06870B3FFE741F20001C4F20201C5
:102D5000086840F480700860FEF790F80790FFE77D
:102D600041F20000C4F202000068400500280CD4C3
:102D7000FFE7FEF783F80799401A032804D3FFE71B
:102D800003208DF82700F5E2EAE741F20401C4F2DE
:102D90000201086820F0F850089A126940EA0260BF
:102DA000086021E041F20001C4F20201086820F449
:102DB00080700860FEF762F80790FFE741F20000BC
:102DC000C4F202000068400500280CD5FFE7FEF7BA
:102DD00055F80799401A032804D3FFE703208DF81C
:102DE0002700C7E2EAE7FFE7FFE7FFE70898007878
:102DF0000007002849D5FFE70898406910B3FFE7AE
:102E000041F29401C4F20201086840F00100086038
:102E1000FEF734F80790FFE741F29400C4F2020095
:102E20000068800700280CD4FFE7FEF727F8079911
:102E3000401A032804D3FFE703208DF8270099E206
:102E4000EAE721E041F29401C4F20201086820F0AF
:102E500001000860FEF712F80790FFE741F29400C6
:102E6000C4F202000068800700280CD5FFE7FEF7D7
:102E700005F80799401A032804D3FFE703208DF8CB
:102E8000270077E2EAE7FFE7FFE7089800784007C6
:102E9000002840F1C680FFE700208DF80F0041F2C6
:102EA0005800C4F202000068C000002813D4FFE7F5
:102EB000FFE741F25800C4F20200016841F080517E
:102EC0000160006800F0805002900298FFE7012046
:102ED0008DF80F00FFE747F20000C4F20000006821
:102EE000C005002822D4FFE747F20001C4F2000128
:102EF000086840F480700860FDF7C0FF0790FFE7A6
:102F000047F20000C4F200000068C00500280CD49D
:102F1000FFE7FDF7B3FF0799401A032804D3FFE743
:102F200003208DF8270025E2EAE7FFE7FFE708988E
:102F30008068012809D1FFE741F29001C4F2020143
:102F4000086840F0010008601FE0089880680528C4
:102F50000DD1FFE741F29001C4F20201086840F090
:102F600004000860086840F0010008600CE041F2CD
:102F70009001C4F20201086820F0010008600868AE
:102F800020F004000860FFE7FFE7FFE7089880688B
:102F9000E0B1FFE7FDF772FF0790FFE741F2900015
:102FA000C4F202000068800700280ED4FFE7FDF796
:102FB00065FF0799401A41F28931884204D3FFE73F
:102FC00003208DF82700D5E1E8E71BE0FDF756FF69
:102FD0000790FFE741F29000C4F20200006880070A
:102FE00000280ED5FFE7FDF749FF0799401A41F287
:102FF0008931884204D3FFE703208DF82700B9E127
:10300000E8E7FFE79DF80F00012809D1FFE741F24B
:103010005801C4F20201086820F080500860FFE700
:10302000FFE7089800788006002849D5FFE7089850
:10303000406A10B3FFE741F29801C4F20201086848
:1030400040F001000860FDF719FF0790FFE741F22B
:103050009800C4F202000068800700280CD4FFE743
:10306000FDF70CFF0799401A032804D3FFE703205C
:103070008DF827007EE1EAE721E041F29801C4F2F1
:103080000201086820F001000860FDF7F7FE0790D4
:10309000FFE741F29800C4F20200006880070028B0
:1030A0000CD5FFE7FDF7EAFE0799401A032804D381
:1030B000FFE703208DF827005CE1EAE7FFE7FFE781
:1030C0000898806A002800F05181FFE70898806A1C
:1030D000022840F01481FFE741F20C00C4F2020024
:1030E00000680490049800F003000899C96A8842B7
:1030F0003CD1FFE7049800F0700008990A6B6FF06C
:103100000F0101EB0211884230D1FFE7049800F46F
:10311000FE400899496BB0EB012F27D1FFE70498D7
:1031200000F078400899896BB0EBC16F1ED1FFE7C2
:10313000049800F4C0000899CA6B0021CFF6E07132
:1031400001EA0251A1F5001188420FD1FFE704986E
:1031500000F0C06008990A6C4FF07E4101EA0261FC
:1031600001F17E41884200F09580FFE705980C2828
:1031700000F08B80FFE741F20000C4F2020000681B
:103180004001002804D5FFE701208DF82700F1E079
:1031900041F20001C4F20201086820F0807008606A
:1031A000FDF76CFE0790FFE741F20000C4F2020059
:1031B0000068800100280CD5FFE7FDF75FFE079946
:1031C000401A032804D3FFE703208DF82700D1E03D
:1031D000EAE741F20C01C4F20201086848F28C02ED
:1031E000C0F29D121040DDF820C0DCF82C20DCF885
:1031F0003050DCF834E0DCF838306FF00F0404EBCA
:103200000514224342EA0E22DCF83C4040F2000E54
:10321000CFF6E07E0EEA045EAEF5001E42EA0E0234
:10322000DCF840E04FF07E4C0CEA0E6C0CF17E4C6A
:1032300042EA0C0242EAC3621043086041F2000213
:10324000C4F20202106840F080701060086840F01C
:1032500080700860FDF712FE0790FFE741F2000062
:10326000C4F202000068800100280CD4FFE7FDF7DB
:1032700005FE0799401A032804D3FFE703208DF8C1
:10328000270077E0EAE7FFE703E001208DF8270059
:1032900070E033E041F20000C4F2020000688001F7
:1032A00000282AD4FFE741F20001C4F202010868B5
:1032B00040F08070086041F20C01C4F2020108681D
:1032C00040F080700860FDF7D9FD0790FFE741F2FC
:1032D0000000C4F202000068800100280CD4FFE75F
:1032E000FDF7CCFD0799401A032804D3FFE703201C
:1032F0008DF827003EE0EAE7FFE7FFE735E00598B5
:103300000C282DD0FFE741F20001C4F20201086849
:1033100020F080700860FDF7B1FD0790FFE741F2F3
:103320000000C4F202000068800100280CD5FFE70D
:10333000FDF7A4FD0799401A032804D3FFE70320F3
:103340008DF8270016E0EAE741F20C01C4F2020111
:1033500008684FF6FC72CFF6EE621040086003E09A
:1033600001208DF8270005E0FFE7FFE700208DF83A
:103370002700FFE79DF827000AB0B0BDFFE7FEE792
:1033800081B0009000980068806900F00201002080
:10339000B0EB510F05D0FFE700980168002088626C
:1033A000FFE7009800688069C00738B9FFE7009818
:1033B0000168886940F001008861FFE701B070474B
:1033C00080B58AB009900891079200208DF81B0003
:1033D00009990968896905910490079803909DF8F7
:1033E0001400C006002840F18680FFE709980168B4
:1033F0001020C861FFE709980068806900F020028A
:1034000000210846B1EB521F009007D1FFE79DF85D
:103410001B00B0FA80F040090090FFE70098C00759
:10342000002857D0FFE708980130002851D0FFE767
:10343000FDF724FD0399401A0899884204D8FFE754
:103440000898002844D1FFE709980068406800F414
:1034500080400290099890F842008DF80700099882
:103460000068806981B20020B0EBD13F14D0FFE743
:103470000298B0F5804F0FD0FFE79DF80700202895
:103480000AD0FFE709980168486840F48040486026
:10349000FDF7F4FC0390FFE7FFE7099800688069F7
:1034A00000F020010020B0EB511F10D1FFE7FDF725
:1034B000E5FC0399401A1A2808D3FFE7049840F066
:1034C0002000049001208DF81B0000E0E5E7FFE7F5
:1034D000FFE790E79DF81B0028B9FFE7099801680E
:1034E0002020C861FFE7049840F004000490012008
:1034F0008DF81B00FFE709980068806905909DF82A
:103500001500C00768B1FFE7049840F0010004907F
:10351000099801684FF48070C86101208DF81B0084
:10352000FFE79DF81500400700280DD5FFE7049838
:1035300040F008000490099801684FF48060C86169
:1035400001208DF81B00FFE79DF81500800700287B
:103550000DD5FFE7049840F0020004900998016837
:103560004FF40070C86101208DF81B00FFE79DF843
:103570001B0000B3FFE70998FFF702FF09980168F5
:1035800048684EF60002CFF6006210404860049A88
:103590000999486C104348640999202081F841003A
:1035A0000999002081F84200FFE70999002081F87D
:1035B0004000FFE7FFE79DF81B000AB080BD000058
:1035C00080B586B0DDF824C0DDF820C00490ADF8E9
:1035D0000E10ADF80C20ADF80A300498BDF80E10AE
:1035E0009DF80A20EC4642F20003C8F20003CCF832
:1035F0000030002300F0A4F804980899099A00F01C
:1036000073F920B1FFE701208DF8170033E0BDF812
:103610000A00012806D1FFE79DF80C00049909680B
:10362000886215E09DF80D00049909688862049885
:103630000899099A00F058F920B1FFE701208DF8A8
:10364000170018E09DF80C00049909688862FFE7EC
:103650000498089B09996A4611604021002200F0F5
:1036600099F820B1FFE701208DF8170003E0002052
:103670008DF81700FFE79DF8170006B080BD000029
:1036800080B586B0DDF824C0DDF820C00490ADF828
:103690000E10ADF80C20ADF80A300498BDF80E10ED
:1036A0009DF80A20EC4642F20003C8F20003CCF871
:1036B00000304FF0807300F043F804980899099A9D
:1036C00000F012F920B1FFE701208DF8170033E078
:1036D000BDF80A00012806D1FFE79DF80C00049907
:1036E0000968886215E09DF80D00049909688862F0
:1036F00004980899099A00F0F7F820B1FFE7012033
:103700008DF8170018E09DF80C000499096888628C
:10371000FFE70498089B09996A46116080210022FE
:1037200000F038F820B1FFE701208DF8170003E022
:1037300000208DF81700FFE79DF8170006B080BD48
:1037400084B0DDF810C00390ADF80A108DF80920A0
:103750000193BDF80A006FF39F209DF8091040EA1D
:103760000140019908430499084320F0004000906B
:10377000039800684068049920EA515049F60041D6
:10378000CFF6004108400099084303990968486052
:1037900004B0704780B586B0DDF820C00490039176
:1037A0008DF80B200193FFE7049800688069039966
:1037B0000840401AB0FA80F040099DF80B1088428A
:1037C00037D1FFE70198013090B3FFE7FDF756FBD3
:1037D0000899401A0199884203D8FFE7019830BB45
:1037E000FFE704980068806903990840401AB0FA1E
:1037F00080F040099DF80B10884217D1FFE704992B
:10380000486C40F0200048640499202081F8410071
:103810000499002081F84200FFE70499002081F814
:103820004000FFE701208DF8170006E0FFE7FFE703
:10383000BAE700208DF81700FFE79DF8170006B0E3
:1038400080BD000080B584B0029001910092FFE736
:1038500002980068806900F020010020B0EB511F41
:1038600039D1FFE702980199009AFFF7A9FD20B12D
:10387000FFE701208DF80F0031E0FDF7FFFA009916
:10388000401A0199884203D8FFE7019810BBFFE76F
:1038900002980068806900F020010020B0EB511F01
:1038A00017D1FFE70299486C40F020004864029964
:1038B000202081F841000299002081F84200FFE7B2
:1038C0000299002081F84000FFE701208DF80F00E9
:1038D00005E0FFE7BCE700208DF80F00FFE79DF84B
:1038E0000F0004B080BD000080B584B0029001914B
:1038F0000092FFE702980068806900F00201002052
:10390000B0EB510F3ED1FFE702980199009AFFF703
:1039100057FD20B1FFE701208DF80F0036E0019838
:10392000013070B3FFE7FDF7A9FA0099401A019939
:10393000884203D8FFE7019810BBFFE702980068B0
:10394000806900F002010020B0EB510F17D1FFE7B2
:103950000299486C40F0200048640299202081F8C8
:1039600041000299002081F84200FFE702990020FF
:1039700081F84000FFE701208DF80F0006E0FFE727
:10398000FFE7B7E700208DF80F00FFE79DF80F0075
:1039900004B080BD80B540F6AC60C2F20000FEF716
:1039A00045F880BD80B590B00C9000200B90EFF3EF
:1039B00010800D900D98069001200F900F9880F3C5
:1039C00010880C980068049047F60041C4F200018A
:1039D000884208D0FFE7049849F20041C4F2000190
:1039E000884209D011E041F28800C4F20200006868
:1039F00000F440200B9009E041F28800C4F202007C
:103A0000006800F440100B9000E0FFE70C9800689D
:103A100080680A900C980068C06809900C9800684B
:103A2000406908900C980068806907900C980068BD
:103A3000006A05900C980068039047F60041C4F2B4
:103A40000001884208D0FFE7039849F20041C4F220
:103A5000000188420DD019E041F23801C4F20201A0
:103A6000086840F000400860086820F000400860E6
:103A70000DE041F23C01C4F20201086840F0200070
:103A80000860086820F02000086000E0FFE7089860
:103A900028B9FFE70798002800F08C80FFE70C9812
:103AA0000068029047F60041C4F20001884208D045
:103AB000FFE7029849F20041C4F20001884209D0B0
:103AC00011E041F28801C4F20201086820F44020AC
:103AD000086009E041F28801C4F20201086820F49C
:103AE0004010086000E0FFE70898D8B1FFE70C98A5
:103AF0000168086940F00100086108980C9909689C
:103B000048610C98082100F06FF8032805D1FFE701
:103B10000C99032081F83600FFE70C980168082013
:103B20004860FFE70798D8B1FFE70C98016808697B
:103B300040F00100086107980C99096888610C98A9
:103B4000102100F051F8032805D1FFE70C9903205C
:103B500081F83600FFE70C98016810204860FFE705
:103B60000C980068019047F60041C4F200018842B9
:103B700008D0FFE7019849F20041C4F200018842F1
:103B80000BD015E041F28801C4F20201086820F46C
:103B900040200B9A104308600BE041F28801C4F208
:103BA0000201086820F440100B9A1043086000E0FE
:103BB000FFE7FFE70C980168086920F00100086141
:103BC0000A980C990968886009980C990968C86076
:103BD00005980C990968086206980E900E9880F373
:103BE000108810B080BD000085B0049003910020C3
:103BF0008DF80B0040F20000C2F2000000684CF6A5
:103C0000CD41CCF6CC41A0FB0110000944F6D351C4
:103C1000C1F26201A0FB011080094FF47A714843A0
:103C20000190FFE7019801380190019820B9FFE762
:103C300003208DF80B00FFE7FFE704980068006899
:103C4000039A00EA020100209142009006D0FFE7AB
:103C50000198002818BF01200090FFE70098C007D6
:103C60000028DFD1FFE79DF80B0005B0704700008A
:103C700080B582B000208DF8070040F64860C2F29F
:103C800000000068002851D0FFE74EF21001CEF28C
:103C90000001086820F00100086000F00DF90146FD
:103CA0009DF8070008438DF8070000F0F1F9014680
:103CB0009DF8070008438DF807009DF8070088BBB2
:103CC000FFE740F20800C2F200000078022808D1A5
:103CD000FFE740F64861C2F200014FF482600860DD
:103CE00000E0FFE740F64860C2F20000006800F024
:103CF000A7F840F64461C2F200010220087040F6C5
:103D00004C61C2F20001002008704FF48040012194
:103D1000FEF794F9FEF754FD40F6E861C2F20001A7
:103D2000086002E0FCF7E8FDFFE700E0FFE702B013
:103D300080BD000080B582B040F64860C2F200004D
:103D40000068002878D0FFE7FEF71CF98DF8030023
:103D50009DF8030000286BD1FFE740F64C60C2F2EB
:103D600000000078C007B0B9FFE740F64C61C2F22E
:103D70000001087800F0FE00087000F0BFF840F67F
:103D80004861C2F20001086040F6AC60C2F2000077
:103D9000FDF7C4FD00E0FFE700F0CAF801469DF81A
:103DA000030008438DF8030000F064F801469DF815
:103DB000030008438DF803000120FCF743FD014692
:103DC0009DF8030008438DF803009DF8030058BBDD
:103DD000FFE74EF21001CEF20001086840F001004A
:103DE000086040F64C60C2F20000007880070028AE
:103DF0000BD5FFE740F64C61C2F20001087800F0F5
:103E0000FD00087000F070FD00E0FFE740F644613F
:103E1000C2F2000101200870FEF7D2FC40F6EC610E
:103E2000C2F20001086002E0FCF766FDFFE702E075
:103E3000FCF762FDFFE700E0FFE702B080BD000095
:103E400080B582B001909DED010AB8EE400A9FED69
:103E5000081A20EE010ABCEEC00A10EE101A40F655
:103E6000AC60C2F20000FDF7DBFC02B080BD00BF19
:103E700000007A4280B582B000208DF8070040F63D
:103E8000AC60C2F20000FDF791FD01469DF807000D
:103E900008438DF8070040F65860C2F20000FDF7B5
:103EA000F7F801469DF8070008438DF807009DF8D4
:103EB000070002B080BD000080B582B000208DF800
:103EC000070040F65860C2F20000FDF7B1F8014665
:103ED0009DF8070008438DF8070040F6AC60C2F279
:103EE0000000FDF76BFE01469DF8070008438DF8C2
:103EF00007009DF8070002B080BD000080B582B0C9
:103F000040F6AC60C2F20000FDF766FF00909DED48
:103F1000000AB8EE400A9FED051A80EE010ABCEED9
:103F2000C00A8DED010A019802B080BD00007A42FE
:103F300085B000208DF80F0041F20001C4F20201AB
:103F4000086840F4807008604FF6FF700490FFE747
:103F500041F20000C4F20200016800204905002976
:103F6000029006D4FFE70498002818BF01200290B1
:103F7000FFE70298C00720B1FFE7049801380490DA
:103F8000E6E7049800287AD0FFE741F20C01C4F27A
:103F90000201086848F28C02CFF6FF12104000F6CA
:103FA0000220086041F20001C4F20201086840F0FA
:103FB000807008604FF6FF700490FFE741F2000048
:103FC000C4F202000168002089010029019006D492
:103FD000FFE70498002818BF01200190FFE701982F
:103FE000C00720B1FFE7049801380490E6E7049881
:103FF00000283FD0FFE741F20C01C4F2020108683B
:1040000040F08070086041F20801C4F202010868C3
:1040100040F0030008604FF6FF700490FFE741F2A4
:104020000800C4F20200006800F00C0100200C2916
:10403000009006D0FFE70498002818BF01200090E8
:10404000FFE70098C00720B1FFE70498013804900B
:10405000E5E7049848B1FFE741F20001C4F202012C
:10406000086820F00100086003E001208DF80F00CF
:10407000FFE703E001208DF80F00FFE703E00120D8
:104080008DF80F00FFE79DF80F0005B070470000A6
:1040900084B000208DF80B0041F20001C4F202014F
:1040A000086840F0010008604FF6FF700390FFE7DA
:1040B00041F20000C4F202000168002089070029D3
:1040C000019006D4FFE70398002818BF0120019053
:1040D000FFE70198C00720B1FFE70398013803907C
:1040E000E6E70398002858D0FFE741F20000C4F249
:1040F00002000068C00748B1FFE741F20000C4F2C7
:10410000020000688007002842D5FFE741F2000165
:10411000C4F202010868092262F3C700086041F294
:104120000801C4F20201086820F0030008604FF69D
:10413000FF700390FFE741F20800C4F2020001683B
:10414000002011F00C0F009006D0FFE70398002824
:1041500018BF01200090FFE70098C00720B1FFE7DB
:10416000039801380390E6E7039860B1FFE741F256
:104170000001C4F2020108684FF2FF42CFF6FE22AE
:104180001040086003E001208DF80B00FFE703E01A
:1041900001208DF80B00FFE703E001208DF80B00F4
:1041A000FFE79DF80B0004B07047000080B58EB0AB
:1041B00000200D900C900B900A900990FFE741F2BF
:1041C0004C00C4F20200016841F001010160006886
:1041D00000F0010008900898FFE7FFE741F24C006B
:1041E000C4F20200016841F002010160006800F0C1
:1041F000020007900798FFE74FF0904002900821D7
:10420000019100220592FCF723FE019A029805997C
:104210000992012204920A920B910C9109A903912F
:10422000FCF78CFC03990498022209924FF40412C3
:104230000A920B9040F20040C4F60000FCF77EFCAE
:104240000499059A07200690FDF708FE0698FDF7E9
:10425000FBFD0EB080BD000080B582B040F6586016
:10426000C2F20000019045F20041C4F20001016079
:1042700049F6EC41C1F290014160002181600122C8
:10428000C260016141618161C1610162FCF700FFAF
:1042900018B1FFE7FCF730FBFFE740F65860C2F2C9
:1042A00000000021FCF726FE18B1FFE7FCF724FB15
:1042B000FFE740F65860C2F200000021FCF766FEFE
:1042C00018B1FFE7FCF718FBFFE702B080BD000064
:1042D00080B582B040F6AC60C2F20000019047F6B3
:1042E0000041C4F200010160002141604FF400620E
:1042F00082604FF6FF72426101624FF480024262B7
:104300008162C1620163FDF759FC18B1FFE7FCF758
:10431000F3FAFFE702B080BD80B501F075FA80BD09
:10432000FFE7FEE7FFE7FEE788B0079006910592FA
:10433000079800F0070004900498C0F107000528D2
:1043400003D3FFE70420019004E00498C0F10700C4
:104350000190FFE70198039004980430062803D8E1
:10436000FFE70020009003E0049803380090FFE787
:104370000098029006980399012202FA01F101398E
:104380000840029B984005999A40013A1140084321
:1043900008B0704780B586B00590049100208DF874
:1043A0000B0041F20C00C4F202000068800720B349
:1043B000FFE741F20C00C4F20200006800F00300C5
:1043C00005990968884213D1FFE70598006878B11C
:1043D000FFE741F20C00C4F20200006800F0700137
:1043E000012000EB111005994968884204D0FFE7CD
:1043F00001208DF80B00FFE75DE005980068019053
:10440000012808D0FFE70198022812D0FFE70198A1
:1044100003281CD033E041F20000C4F2020000681F
:104420008007002804D4FFE701208DF80B00FFE788
:1044300029E041F20000C4F20200006840050028B3
:1044400004D4FFE701208DF80B00FFE71BE041F2E9
:104450000000C4F202000068800300280ED4FFE7C9
:1044600041F20000C4F2020000684003002804D4B6
:10447000FFE701208DF80B00FFE7FFE703E00120D5
:104480008DF80B00FFE79DF80B0098B9FFE741F2AC
:104490000C01C4F20201086820F07300059B1A6841
:1044A000D3F804C06FF00F0303EB0C131A4310434F
:1044B0000860FFE7FFE79DF80B00002840F0A680AA
:1044C000FFE741F20001C4F20201086820F08060B9
:1044D0000860FCF7D3FC0390FFE741F20000C4F250
:1044E00002000068000100280CD5FFE7FCF7C6FCBD
:1044F0000399401A032804D3FFE703208DF80B002B
:1045000000E0EAE79DF80B0000287ED1FFE7049861
:1045100098B9FFE741F21001C4F20201086848F2BD
:10452000FF02C0F2FF721040059B9A68DB6812021E
:1045300042EAC3621043086037E0049801281AD1A8
:10454000FFE741F21001C4F20201086848F2FF02DD
:10455000CFF69F721040059A9368D2F810C00022DF
:10456000CFF6E07202EA0C52A2F5001242EA0322F0
:104570001043086018E041F21001C4F2020108681B
:1045800048F2FF02CFF6FF121040059A9368D2F866
:1045900014C04FF07E4202EA0C6202F17E4242EA0F
:1045A000032210430860FFE7FFE741F20001C4F275
:1045B0000201086840F080600860FCF75FFC03902F
:1045C000FFE741F20000C4F2020000680001002889
:1045D0000CD4FFE7FCF752FC0399401A032804D3DC
:1045E000FFE703208DF80B0000E0EAE79DF80B00E1
:1045F00050B9FFE70598826941F21001C4F2020147
:10460000086810430860FFE7FFE7FFE79DF80B002D
:1046100006B080BD80B586B004900020029041F2C3
:104620005800C4F202000068C000002804D5FFE76B
:10463000FDF7FCFC03901AE0FFE741F25800C4F2DA
:104640000200016841F080510160006800F0805074
:1046500001900198FFE7FDF7E9FC039041F2580152
:10466000C4F20201086820F080500860FFE7039858
:10467000B0F5007F10D1FFE7049881280BD3FFE746
:104680000498A12803D3FFE70220029002E0012052
:104690000290FFE7FFE717E00498812803D3FFE7C4
:1046A000032002900FE00498802803D1FFE7022046
:1046B000029007E00498702803D1FFE701200290E0
:1046C000FFE7FFE7FFE7FFE742F20000C4F2020066
:1046D000016821F00701029A11430160006800F0AF
:1046E00007000299884204D0FFE701208DF81700E7
:1046F00003E000208DF81700FFE79DF8170006B0D3
:1047000080BD000010B586B08C4686460998089991
:104710008DF817E08DF816C08DF8152004938DF8EC
:104720000F108DF80E009DF80E00C8B9FFE79DF838
:1047300017109DF816209DF80F006B464FF0FF0CE8
:10474000C3F808C058600DF11500186040F65860B5
:10475000C2F200000123FCF76BFE8DF80D001FE094
:104760009DF80E00012819D1FFE79DF817109DF85C
:10477000162004989DF80FC06B464FF0FF0EC3F84B
:1047800008E0C3F804C0186040F65860C2F20000A8
:104790000123FCF707FD8DF80D0000E0FFE7FFE7C0
:1047A0009DF80D0006B010BD80B588B000230593BC
:1047B0008DF81F3069464B6001200490086064202A
:1047C00006900E211A46FFF79DFF0499059B84462B
:1047D00006989DF81F2042EA0C028DF81F2047F230
:1047E000CC02C0F6000203921278EC46CCF80430FA
:1047F000CCF800100F21FFF785FF039A0499059B61
:10480000864606989DF81FC04CEA0E0C8DF81FC016
:104810005278EC46CCF80430CCF800100D21FFF7AC
:1048200071FF039A0499059B864606989DF81FC060
:104830004CEA0E0C8DF81FC09278EC46CCF8043090
:10484000CCF800100B21FFF75DFF039A0499059B3C
:10485000864606989DF81FC04CEA0E0C8DF81FC0C6
:10486000D278EC46CCF80430CCF800100C21FFF7DD
:1048700049FF01469DF81F0008438DF81F009DF871
:104880001F0008B080BD000080B582B000208DF808
:10489000070000F0A9F901469DF8070008438DF8CC
:1048A000070040F64D60C2F20000007800070028C3
:1048B00015D5FFE740F64E60C2F2000000F0EAF9BD
:1048C00001469DF8070008438DF8070040F64D614A
:1048D000C2F20001087800F0F700087000E0FFE77E
:1048E0009DF8070002B080BD80B584B06946012004
:1048F0004860086064200E2100220DF10D03FFF7CF
:1049000001FF8DF80E009DF80E0000285FD1FFE733
:104910009DF80D0000285AD0FFE79DF80D00C00754
:1049200048B1FFE740F64D61C2F20001087840F05F
:104930000100087000E0FFE79DF80D004008C00787
:1049400048B1FFE740F64D61C2F20001087840F03F
:104950000200087000E0FFE79DF80D00C008C007E6
:1049600048B1FFE740F64D61C2F20001087840F01F
:104970001000087000E0FFE79DF80D000009C00777
:1049800048B1FFE740F64D61C2F20001087840F0FF
:104990000400087000E0FFE79DF80D004009C00723
:1049A00048B1FFE740F64D61C2F20001087840F0DF
:1049B0000800087000E0FFE7694600234B60012013
:1049C000086064200E211A46FFF79CFE00E0FFE716
:1049D00004B080BD80B58CB0099108900898DDF8CE
:1049E0002310CDF82B100A909DF828003B2800F2E8
:1049F000F280FFE79DF829003B2800F2EC80FFE7FA
:104A00009DF82A00172800F2E680FFE79DF82B00AA
:104A1000202800F2E080FFE79DF82C001F2800F21C
:104A2000DA80FFE79DF82D000C2800F2D480FFE724
:104A30009DF82E00632800F2CE80FFE79DF8280045
:104A400049F69A11C1F699110391A0FB012101EBDE
:104A50008102A0EB420040EA01106A460023059360
:104A60005360012104911160C2B26420069019467E
:104A7000FFF748FEDDF80CC00499059B0246069836
:104A80008DF81F209DF82920A2FB0CEC0CEB8C0E5E
:104A9000A2EB4E0242EA0C12EC46CCF80430CCF801
:104AA0000010D2B2FFF72EFEDDF80CC0049A059B71
:104AB000864606989DF81F1041EA0E018DF81F10DA
:104AC0009DF82A10A1FB0CEC0CEB8C0EA1EB4E0117
:104AD00041EA0C11EC46CCF80430CCF80020CAB204
:104AE0000221FFF70FFE0499059B844606989DF866
:104AF0001F2042EA0C028DF81F209DF82B20EC4667
:104B0000CCF80430CCF800100321FFF7FBFDDDF8F2
:104B10000CC0049A059B864606989DF81F1041EA32
:104B20000E018DF81F109DF82C10A1FB0CEC0CEB66
:104B30008C0EA1EB4E0141EA0C11EC46CCF804308E
:104B4000CCF80020CAB20421FFF7DCFDDDF80CC070
:104B5000049A059B864606989DF81F1041EA0E01AF
:104B60008DF81F109DF82D10A1FB0CEC0CEB8C0E9A
:104B7000A1EB4E0141EA0C11EC46CCF80430CCF824
:104B80000020CAB20521FFF7BDFDDDF80CC0049A74
:104B9000059B864606989DF81F1041EA0E018DF888
:104BA0001F109DF82E10A1FB0CEC0CEB8C0EA1EB52
:104BB0004E0141EA0C11EC46CCF80430CCF8002050
:104BC000CAB20621FFF79EFD01469DF81F0008436B
:104BD0008DF81F0003E001208DF81F00FFE79DF80E
:104BE0001F000CB080BD000080B584B06946012074
:104BF0004860086064200E2100220DF10E03FFF7CB
:104C000081FD8DF80F009DF80F00E8BBFFE79DF8D0
:104C10000E00C8B3FFE79DF80E00C00778B1FFE7AC
:104C200040F64D61C2F20001087840F001000870C2
:104C30009DF80E0000F0FE008DF80E0000E0FFE78A
:104C40009DF80E004008C00778B1FFE740F64D61BF
:104C5000C2F20001087840F0020008709DF80E00D2
:104C600000F0FD008DF80E0000E0FFE79DF80E203B
:104C7000694600234B600120086064200E21FFF785
:104C800041FD8DF80F0000E0FFE79DF80F0004B034
:104C900080BD000080B586B005900598002800F022
:104CA0009D80FFE769460120486007200860642076
:104CB000002203AB1146FFF725FD8DF813009DF888
:104CC0001300002840F08880FFE79DF80C1001F0E9
:104CD0000F00090901EB810100EB41008DF80C0088
:104CE0009DF80D1001F00F00090901EB810100EBA7
:104CF00041008DF80D009DF80E1001F00F0009091C
:104D000001EB810100EB41008DF80E009DF81010C1
:104D100001F00F00090901EB810100EB41008DF862
:104D200010009DF8111001F00F00090901EB81013D
:104D300000EB41008DF811009DF8121001F00F00FA
:104D4000090901EB810100EB41008DF812009DF88B
:104D50000C003B283BD8FFE79DF80D003B2836D8D8
:104D6000FFE79DF80E00172831D8FFE79DF80F00E8
:104D700020282CD8FFE79DF810001F2827D8FFE730
:104D80009DF811000C2822D8FFE79DF81200632837
:104D90001DD8FFE79DF80C00059908709DF80D00DF
:104DA000059948709DF80E00059988709DF80F00D0
:104DB0000599C8709DF81000059908719DF81100BB
:104DC000059948719DF812000599887103E001204A
:104DD0008DF81300FFE700E0FFE703E001208DF806
:104DE0001300FFE79DF8130006B080BD80B596B0B4
:104DF00005A84421FBF7D0FB00200490039002900B
:104E0000019000904FF40070FDF74AF818B1FFE7E9
:104E1000FBF772FDFFE7022005904FF480710891C7
:104E2000102109910F901090012111910A211291E6
:104E3000072113911490159005A8FDF76FFD18B187
:104E4000FFE7FBF759FDFFE70F20009003200190DB
:104E5000002002900390049068460421FDF75EFB59
:104E600018B1FFE7FBF748FDFFE716B080BD000073
:104E70004EF68851CEF20001086840F470000860D8
:104E800070470000FFE7FEE781B08DF803009DF951
:104E90000300002812D4FFE79DF9031001F01F0260
:104EA000012090404A094EF28011CEF2000141F8F3
:104EB0002200BFF34F8FBFF36F8FFFE701B0704742
:104EC00081B08DF803009DF9030000280ED4FFE7A0
:104ED0009DF9031001F01F02012090404A094EF293
:104EE0000011CEF2000141F82200FFE701B0704747
:104EF0004EF60C50CEF200000068C0F3022070475E
:104F000082B08DF8070000919DF9070000280AD4AF
:104F1000FFE7009800019DF907104EF20042CEF223
:104F2000000288540BE0009800019DF8071001F082
:104F30000F014EF61452CEF200028854FFE702B081
:104F40007047000083B00290029800F007000090C4
:104F50004EF60C51CEF200010868019001984FF610
:104F6000FF02104001900198009A40EA02200022BE
:104F7000C0F2FA52104301900198086003B07047E4
:104F800080B58CB00B900A91099208930B9834214C
:104F9000FBF702FB089820F0030008900A980B9991
:104FA000486009980B99886108980B99C86109981D
:104FB0000B99086109980B994861089808380B9972
:104FC00088600B990220C860099806900698089995
:104FD000084406900698043806900B9804900698AA
:104FE000059004980599086006980438069006987C
:104FF000059009980599086009980490049805900F
:10500000069805990860099806900698043006905D
:105010000698019001994EF6EE60CFF6FF70086099
:105020000B9900200862FBF78BF907900B9945F26A
:105030004540C4F25920086040F6EC10C2F200006E
:10504000006858B9FFE70B9840F6F011C2F2000172
:1050500008600B98C0620B98006315E040F6F010F2
:10506000C2F20000006803900398006B02900B9856
:10507000039908630B980299C86202980B99086318
:1050800003980B99C862FFE740F6EC11C2F20001E9
:105090000868013008600798FBF75AF900200CB047
:1050A00080BD000080B588B007900691FBF748F9F5
:1050B00005900798806E45F2A501C0F60001884270
:1050C0006FD1FFE706980799D1F8AC10884267D1F5
:1050D000FFE70798C06E0490049800285FD0FFE7B0
:1050E0000498006844F24E41C4F25641884255D1BA
:1050F000FFE70498406900284FD0FFE70799002098
:1051000088660498406903900498006902900298A8
:1051100020B3FFE70398013803900398049948618E
:10512000039820B9FFE704990020086115E007986B
:10513000006F01900798406F0090009801994867B0
:1051400001980099086702980799884204D1FFE7FF
:10515000019804990861FFE7FFE703E00499012043
:10516000C860FFE70798006B072815D1FFE707998C
:105170000720C1F8840040F63021C2F2000108681F
:10518000013008600598FBF7E3F8079800F086FD0A
:10519000FBF7D6F80590FFE7FFE7FFE7FFE7FFE73C
:1051A000FFE70598FBF7D4F808B080BD80B586B05E
:1051B0000590049105982421FBF7EEF904980599D0
:1051C0004860FBF7BDF80390059944F24E40C4F2E5
:1051D0005640086040F6F410C2F20000006858B96A
:1051E000FFE7059840F6F811C2F200010860059843
:1051F00080610598C06115E040F6F810C2F2000029
:10520000006802900298C069019005980299C861EF
:1052100005980199886101980599C86102980599D6
:105220008861FFE740F6F411C2F20001086801301E
:1052300008600398FBF78CF8002006B080BD0000E2
:1052400080B590B0DDF848C00F900E910D920C9390
:10525000FBF776F80B900F988068079007980F99E6
:10526000096A88430C9908600D9800F002000990C3
:105270000F98006A0590059828B1FFE707980599EF
:1052800088430790FFE7099802280DD1FFE70798A8
:105290000E990840069006980E99884203D0FFE7C1
:1052A00000200690FFE704E007980E99084006905A
:1052B000FFE7069850B3FFE70D9800F00100089053
:1052C000089801281FD1FFE7002000900F9840693F
:1052D00040B1FFE70F98006918B9FFE7012000907F
:1052E000FFE7FFE70098012806D1FFE70F99086A5A
:1052F0000E9A1043086205E00F9988680E9A904351
:105300008860FFE7FFE700200A9077E01298002806
:1053100070D0FFE740F63020C2F20000006818B9F4
:10532000FFE70E9818B9FFE707200A9061E040F602
:105330002020C2F2000000680390039945F2A50006
:10534000C0F6000088660E98039988670D98039947
:10535000C1F880000C980399C8670F980399C86634
:105360000399D1F8AC000130C1F8AC000F98406946
:105370000490049840B9FFE703980F9908610398D7
:1053800000670398406712E00F9800690290029846
:10539000039908670298406F019001980399486744
:1053A000039801990867039802994867FFE70F99E6
:1053B0004869013048610399072008630399012077
:1053C000886312980399C86440F63021C2F2000144
:1053D0000868013008600B98FAF7BAFF039800F0EC
:1053E00049FDFAF7ADFF0B900398D0F884000A90BE
:1053F000FFE702E007200A90FFE7FFE70B98FAF7C4
:10540000A7FF0A9810B080BD80B596B01590149192
:105410001392FAF795FF12909DF84C008007002830
:1054200023D5FFE7002001901598406940B1FFE7C0
:105430001598006918B9FFE701200190FFE7FFE721
:105440000198012807D1FFE71599086A149A60EAC4
:105450000200086205E015998868149A1040886077
:10546000FFE71298FAF774FF87E115998868149A94
:10547000104388601598006A30B1FFE71599086AF3
:10548000149A90430862FFE7002002901598406943
:105490000A9015980069002800F05B81FFE70A98E0
:1054A00001285AD1FFE71598006911901598806876
:1054B00009901198806F08901198D0F8800004909E
:1054C000049800F002000590059802280DD1FFE72E
:1054D000099808990840079007980899884203D0CE
:1054E000FFE700200790FFE704E0099808990840CB
:1054F0000790FFE7079878B3FFE71198C06F069011
:10550000099806990860049800F001000390039838
:10551000012806D1FFE715998868089A90438860AA
:10552000FFE715990020086115994861119988666F
:105530001199C1F8840040F63021C2F200010868D8
:10554000013008601298FAF703FF119800F0A6FBEB
:10555000FAF7F6FE1290FFE7FAE0159800690B9053
:105560000B9811901599002008610D900C901598DA
:105570008068099040F63021C2F2000108680130CD
:10558000086001200290FFE71298FAF7E1FEFAF7AF
:10559000D7FE12901598C06870B1FFE715990020EA
:1055A000C8600B981190159840690A900998159950
:1055B000896808430990FFE71198006F10901198CF
:1055C000806F08901198D0F880000490049800F043
:1055D00002000590059802280DD1FFE70998089967
:1055E0000840079007980899884203D0FFE70020F9
:1055F0000790FFE704E00998089908400790FFE743
:105600001198006B072803D0FFE701200790FFE700
:105610000798002857D0FFE71198006B07281BD187
:10562000FFE71198C06F06900998069908600498E2
:1056300000F0010003900398012806D1FFE71599B7
:105640008868089A90438860FFE71199002088666F
:105650001199C1F88400FFE71198016F884203D1C6
:10566000FFE700200B9015E01198006F0F90119844
:10567000406F0E900E980F9948670F980E99086723
:105680000B981199884204D1FFE71198006F0B9095
:10569000FFE7FFE715994869013848610D9840B95F
:1056A000FFE711980D9011980C9011990020086750
:1056B00008E011980C990867119900200867119863
:1056C0000C90FFE7FFE7109811900A9801380A90B4
:1056D000FFE70A9800287FF457AFFFE70B9815996A
:1056E00008611598006A48B1FFE7159988680A6A49
:1056F00090438860159900200862FFE71298FAF736
:1057000027FE0D981190FFE71198B0B1FFE71198AF
:10571000006F1090FAF714FE129040F63021C2F29A
:1057200000010868013008601298FAF711FE11981C
:1057300000F0B4FA10981190E6E7FAF701FE129023
:1057400040F63021C2F20001086801380860FFE726
:1057500008E01598406920B1FFE715990120C8605D
:10576000FFE7FFE71298FAF7F3FD0298012803D14B
:10577000FFE700F071FAFFE7FFE7002016B080BDF9
:1057800080B500F073F900F0A1FD40F61421C2F2DB
:1057900000010020086040F61021C2F200010860FC
:1057A00040F60C21C2F20001086040F60821C2F266
:1057B0000001086040F6F811C2F20001086040F6EE
:1057C000F411C2F20001086040F6E411C2F20001D7
:1057D000086040F6E011C2F20001086040F6F011E6
:1057E000C2F20001086040F6EC11C2F2000108604C
:1057F00040F60421C2F20001086040F60021C2F226
:105800000001086080BD000080B582B040F2040055
:10581000C2F20000006810F10F3F13D0FFE740F222
:105820000401C2F200014FF0F0300860FAF748FDC1
:10583000FFF7A6FF40F63021C2F2000108680130F0
:105840000860FFE740F20401C2F2000101914FF04D
:10585000F030086040F6FC10C2F20000006801F071
:105860006BFA019900200860FAF77AFD02B080BD5A
:1058700080B58CB0DDF84CC0DDF848C0DDF844C020
:10588000DDF840C0DDF83CC0DDF838C00A90099171
:1058900008920793002002900E980F99EF22FAF7D2
:1058A00073FE0A98B021FAF777FE09980A99886280
:1058B00008980A99486407980A9988640E980A9982
:1058C000C8600F980A99486110980A99C8621098A0
:1058D0000A99C1F8940012980A99886112980A9955
:1058E000C8610A992020C1F89C000E980190019986
:1058F0000F9808440138019001980A99086110989E
:105900001199884207D0FFE70A990020C8630A99D5
:10591000C1F8980007E010980A99C86310980A998E
:10592000C1F89800FFE70A99032008630A9946F234
:10593000F510C0F6000048650A9880650A9845F69B
:10594000ED21C0F60001FAF78BFDFAF7F9FC06909D
:105950000A9945F24420C5F24840086040F61820F4
:10596000C2F20000006868B9FFE70A9840F61C21FF
:10597000C2F2000108600A98C0F888000A98C0F8CE
:105980008C001AE040F61C20C2F20000006805906E
:105990000598D0F88C0004900A980599C1F88C00FD
:1059A0000A980499C1F8880004980A99C1F88C00F3
:1059B00005980A99C1F88800FFE740F61821C2F25D
:1059C000000108680130086040F63021C2F2000191
:1059D0000868013008601398012830D1FFE740F2D1
:1059E0000400C2F200000068EFF305810B910B99EF
:1059F0000843B0F1F03F11D3FFE740F62420C2F294
:105A0000000000680390039838B1FFE70398C06B6B
:105A100002900399C86AC863FFE702E00020039080
:105A2000FFE70698FAF794FC0A9800F037F9039814
:105A300020B1FFE702980399C863FFE712E00698D8
:105A4000FAF786FCFAF77CFC069040F63021C2F2A9
:105A500000010868013808600698FAF779FC00F040
:105A6000FBF8FFE700200CB080BD000080B582B0DD
:105A700040F62021C2F2000100200190086040F6AB
:105A80002421C2F20001086040F6B421C2F20001F4
:105A9000086040F62821C2F200012020086040F68C
:105AA0003420C2F200008021FAF776FD019840F61A
:105AB0001C21C2F20001086040F61821C2F2000168
:105AC000086040F63021C2F20001086040F62C2147
:105AD000C2F20001086040F6E811C2F20001086855
