:020000040800F2
:100000005812002059020008FD300008E1260008BF
:10001000F930000875070008C1360008000000002C
:100020000000000000000000000000006B0200085B
:1000300079070008000000008D0300082503000870
:1000400073020008730200087302000873020008BC
:100050007302000873020008730200087D0700089D
:10006000730200087302000873020008730200089C
:10007000730200087302000873020008730200088C
:10008000730200087302000873020008730200087C
:10009000730200087302000873020008730200086C
:1000A000730200087302000873020008730200085C
:1000B0007302000800000000000000007302000846
:1000C0007302000800000000000000007302000836
:1000D0000000000073020008730200080000000026
:1000E0007302000873020008000000000000000016
:1000F0000000000000000000000000000000000000
:100100000000000000000000000000007302000872
:1001100000000000000000007302000873020008E5
:1001200073020008730200087302000873020008DB
:100130007302000800000000000000000000000042
:10014000730200083D2A00087302000873020008C9
:1001500073020008730200087302000873020008AB
:100160007302000873020008730200080000000018
:100170007302000873020008000000000000000085
:1001800073020008730200087302000800F002F80E
:1001900000F052F814A696E8000CB244B344DA45D5
:1001A00001D100F049F8BAE80F000FA696E8300038
:1001B000A5EB040504EB0607AAEB0704A7F101076A
:1001C0004FEA15154FEA3414A4F10104AC4201D3EF
:1001D00000F032F813F0010F18BFFB1A43F00103CF
:1001E00000F001F8DBE71847F8450000184600006A
:1001F000103A24BF78C878C1FAD8520724BF30C853
:1002000030C144BF04680C607047000070470000B4
:100210000023002400250026103A28BF78C1FBD80F
:10022000520728BF30C148BF0B6070471FB504F0AC
:10023000A7FA1FBD10B510BD00F0FAF91146FFF77F
:10024000F5FF04F07FF800F018FA03B4FFF7F2FFAF
:1002500003BC00F01FFA0000094880470948004726
:10026000FEE7FEE7FEE7FEE7FEE7FEE7FEE7FEE766
:10027000FEE7FEE704480549054A064B70470000C3
:10028000AD3600088D010008580C002058120020DF
:10029000580E0020580E0020000000000000000052
:1002A0000000000854060020001000E07F38010024
:1002B0000000FF4000BF00BF00BF00BF00BF00BF85
:1002C00072B64FF0E0205FF82810C0F8081D5FF804
:1002D0002C005FF83410096801605FF83400016891
:1002E00041F0010101604FF0E0205FF840104161F2
:1002F0004FF0070101614FF00001C0F8181D4FF0E9
:100300007F41C0F81C1D5FF85810C0F8201D7047D1
:10031000FFF7FEBFFFF7FEBFFFF7FEBF01B5BDE869
:100320000140704701B500F0D3F8BDE801407047C7
:10033000FFF7FEBFFFF7FEBF000000000000000057
:10034000EFF311804FF0500181F3118870470000E6
:1003500080F31188704700000000000000000000DA
:100360004FF00000364A1060EFF3148020F00400D4
:1003700080F3148862B64FF080504FF0E021C1F84E
:10038000040DBFF34F8FBFF36F8FFEE72D482E4A4A
:100390004FF00003016891B10360EFF3098C2CE981
:1003A000F00F1EF0100F01D12CED108A274C4CF8E5
:1003B00004ED2568C1F808C00DB18D6123604FF0D0
:1003C000500181F311881168C9B101604FF0000438
:1003D00084F311884F681D4C8D6907F101074F6048
:1003E0002560D1F808C05CF804EB1EF0100F01D1B5
:1003F00000F02EB8BCE8F00F8CF3098870474FF07E
:10040000500181F311881168016061B90FB404F0E3
:100410000BF80FBC0FB404F0B7F80FBC4FF000049A
:1004200084F31188EBE74FF000674FF0E028C8F83D
:10043000047D4FF0000484F31188CBE7704700007F
:10044000D8000020C0000020C4000020E8000020E8
:10045000BCEC088ABCEC08CAFFF7CCBF0000000067
:10046000026922F00702A2F144026FF00203136056
:100470004FF0000353609360D36013615361936145
:10048000D361136253629362D362136353634FF079
:10049000FF339363D1634FF08073136482607047BE
:1004A0004FF080504FF0E021C1F8040DEFF30580CC
:1004B000002807D1EFF311814FF0000080F311887D
:1004C00081F3118870470000000000000000000068
:1004D0002249086800F101000860214B1A683AB10E
:1004E000A2F101021A601AB91E4B4FF00100186008
:1004F0001D490868026822B11C4B4FF001021A60C6
:1005000008E000F104001A4B1A68904201D1194B1F
:1005100018680860134B1A6812B914490868D0B1FA
:100520002DE901401149086808B103F03FFC0D4B6B
:100530001A6872B103F0C2FB0F48016849B90F484D
:1005400001680F4A13680F484FF08052994200D05B
:100550000260BDE80140BFF34F8F7047E400002008
:10056000E8000020EC000020FC000020F00000204B
:1005700000010020F8000020D8000020C00000206A
:10058000C400002004ED00E002F0FF0343EA032270
:1005900042EA024200F02CB84FF0000200B51346C8
:1005A00094469646203922BFA0E80C50A0E80C5093
:1005B000B1F12001BFF4F7AF090728BFA0E80C5044
:1005C00048BF0CC05DF804EB890028BF40F8042B3D
:1005D00008BF704748BF20F8022B11F0804F18BFAA
:1005E00000F8012B70477047704770474FF00002CA
:1005F0000429C0F0128010F0030C3FF4CFAFCCF10F
:10060000040CBCF1020F18BF00F8012BA8BF20F8A2
:10061000022BA1EB0C01FFF7C1BF5FEAC17C24BF35
:1006200000F8012B00F8012B48BF00F8012B7047A0
:10063000754600F02BF8AE4605006946534620F09B
:100640000700854618B020B5FFF714FEBDE820402E
:100650004FF000064FF000074FF000084FF0000B7E
:10066000AC46ACE8C009ACE8C009ACE8C009ACE8ED
:10067000C00921F007018D46704710B50446AFF35D
:1006800000802046BDE81040FFF7DFBD00487047FE
:100690001800002001491820ABBEFEE7260002002A
:1006A00070470000B0B588B000F072F800F07AF83A
:1006B00002F0FAFD40F218130446012500204FF421
:1006C0008062C2F200030221CDE90032CDE90405C7
:1006D00040F2185040F219724FF0B00CCDE90211FF
:1006E000C2F2000008A1C0F600020023CDF818C035
:1006F00003F062FD40F688112043C2F20001C0B24F
:100700000D7008B0B0BD00BF417070205461736BB4
:100710002031306D73000000002040F21961C0F2FA
:100720001740C0F2180102F08FFE002003F030FBEA
:1007300040F2CC54C2F2000420680130206002F084
:10074000F3FD0A2003F02AF9F6E7000080B5FFF771
:10075000A9FF80BD02F074BA02F036BB40F27C0003
:10076000C2F200000068704740F27C01C2F2000152
:1007700008607047FEE7000070470000022000F0AC
:10078000C5B80000EFF3108072B600BFFEE70000AE
:1007900042F20400CEF20400016821F00101016080
:1007A0007047000042F20400CEF20400016841F0FC
:1007B0000101016070470000002908BF70472DE962
:1007C000F04F82B040F60002C4F6000207239042C8
:1007D0004FF000024FF000064FF0000708BF022361
:1007E0000093019126E000BF0368032595402B4349
:1007F00003606FF0030303EA5704044406F01C0C83
:10080000D4F820E001FA0CF32EEA03032362836894
:10081000AB438360436823EA0B034360C368AB4385
:10082000C3600199013731FA07F306F1040602F1BA
:1008300002024BD0012303FA07FB1BEA010CF1D0A3
:1008400040F20043C4F20103A3F57E7827F00305CC
:1008500058F805A0B0F1904F0AD040F20041C4F61C
:100860000001DDF800E0884208BF4FF0010E01E012
:100870004FF0000E06F00C050F2101FA05F90AEA07
:1008800009030EFA05F5AB42AED140F20044C4F2C2
:100890000104236840F20C4523EA0C0323606368DB
:1008A000C4F2010523EA0C0363602B6823EA0C03FE
:1008B0002B60A368BD0823EA0C03A36058F8253019
:1008C00023EA090348F825308EE700BF02B000F0A4
:1008D00001B8704730BCBDE8C04FFFF7FABF000059
:1008E000022818BF704740F68810C2F20000007856
:1008F000022818BF02F05ABD40F27800C2F2000090
:10090000017841F00201017002F050BD40F2144143
:10091000C4F201010A68024214BF08607047FFF781
:10092000DFBF00002DE9F04F82B00D68002D00F010
:10093000CF8040F2004E40F60002C4F2010EC4F631
:10094000000207234FF0000C0124002600279042EC
:1009500008BF022300934DE040F20042C4F60002BB
:10096000DDF800A0904208BF4FF0010A0CF00C0324
:100970000F2404FA03F529EA05050AFA03F3BA0875
:100980002B434BF82230DEF808204B6842EA08057A
:1009900040F20C49DC0258BF22EA0805CEF80850A4
:1009A000C4F20109D9F800209D0242EA080458BFA8
:1009B00022EA0804C9F80040DEF804209D0342EA58
:1009C000080458BF22EA0804CEF80440DEF80020EC
:1009D000DB0342EA080458BF22EA0804CEF80040CC
:1009E00001240D68013735FA07F206F102060CF111
:1009F000040C6DD004FA07F215EA0208F1D0D1F820
:100A000004A003250AF0030BABF10103B540012B51
:100A10006FEA050910D88368CD6803EA0903B54079
:100A20002B438360436823EA0202CAF30013BB40EE
:100A30001A43426006E000BFBBF1030F02D14FF042
:100A4000030B20E0C2688B6802EA0902B3401A4334
:100A5000BBF1020FC26016D16FF0030202EA570227
:100A600002440CF01C050F23D2F820A003FA05FB6A
:100A70000B692AEA0B0AAB4043EA0A031362D1F876
:100A800004A00AF0030B02680BFA06F302EA09025B
:100A90001A431AF4403F0260A3D041F26003C4F24B
:100AA00002031A68AEF57E7B42F001021A601A68F2
:100AB000B0F1904F02F001020192019A27F0030277
:100AC0005BF802907FF448AF4FF0000A4EE700BF9A
:100AD00002B000F000B830BCBDE8C08F1823002A77
:100AE00008BF2823C150704710B540F20C00C2F275
:100AF0000000006840F2C854C2F2000460B340F243
:100B00000800C2F200000068820B5FD012F00303FD
:100B1000A2F1010124D000BF00BF00BF00BF00BF91
:100B200000BF00BF00BF00BF00BF00BF012B0846D1
:100B300000BF16D000BF00BF00BF00BF00BF00BF96
:100B400000BF00BF00BF00BF00BF022B00BF41D1EC
:100B5000901E032908D239E003F00EF9206010BD81
:100B60001046032932D300BF00BF00BF00BF00BF43
:100B700000BF00BF00BF00BF00BF00BF00BF00BF7D
:100B800000BF00BF00BF00BF00BF00BF00BF00BF6D
:100B900000BF00BF00BF00BF00BF00BF00BF00BF5D
:100BA00000BF00BF00BF00BF00BF00BF00BF00BF4D
:100BB00000BF00BF00BF00BF00BF00BF00BF00BF3D
:100BC00000BF00BF00BF043800BFCDD12068013096
:100BD000206010BD00BF00BF00BF00BF00BF00BF4E
:100BE00000BF00BF00BF00BF00BFD01E00BF032971
:100BF000BAD2EBE790F84120202A03D190F84020A8
:100C0000012A01D102207047242280F84120026885
:100C1000136823F001031360136823F480531360F7
:100C2000136819431160116841F00101116020211E
:100C300080F84110002180F84010084670470000FD
:100C400090F84120202A03D190F84020012A01D1B8
:100C500002207047242280F841200268136823F0A4
:100C600001031360136823F4706343EA01211160E8
:100C7000116841F001011160202180F8411000212C
:100C800080F8401008467047002804BF01207047D4
:100C900010B50446242084F841002068016821F042
:100CA00001010160204600F093FA0020606484F89E
:100CB0004100206384F8420084F8400010BD000029
:100CC000002804BF0120704710B5044690F8410089
:100CD00028B9002084F84000204600F099FA24202A
:100CE00084F8410094E80910E2680168012A21F0C3
:100CF0000101016023F070610161816821F400410C
:100D0000816003D14CF40041816009E04CF404415E
:100D1000022A816004D1416841F4006103E000BF10
:100D2000416821F400614160416804F1100C41F018
:100D3000007141F400414160C16821F40041C1608B
:100D40009CE80E10114341EA0321C160216A41EA87
:100D50000C010160016841F00101016000202021C7
:100D6000606484F84110206384F8420010BD0000E4
:100D70002DE9F04F81B0044690F8410020280DD1B4
:100D8000DDF828A0BAF1000F0CD0DDF82C80B8F106
:100D9000000F07D094F8400001280BD1022001B0C9
:100DA00000F0FAB84FF400706064012001B000F068
:100DB000F3B800BF01201D461746894684F840005D
:100DC000FFF792FE216806468A69120447D4222062
:100DD0000C9A84F8410040204FF0000B84F8420048
:100DE000C4F844B0C4F824A0A4F82A80C4F834B0ED
:100DF00049F6000390464A68CFF600436FF39F29F7
:100E0000E8B249EA00401A40104400F5005048603A
:100E10002046414632469A4601F0C4FDA8B92068F2
:100E2000012D08D0390A816220464146324601F040
:100E3000B9FD50B92068F9B28162204640210022F4
:100E40004346009601F0FCFC10B384F840B001204A
:100E500001B000F0A1B800BF88690004B7D5FFF762
:100E600043FE801B21681A28F6D388690004F3D555
:100E7000606C40F020006064202084F84100002075
:100E800084F8420084F84000012001B000F084B8EA
:100E9000608D40F2000BB0F5807FC0F2FF1B09D3DC
:100EA00020680BF5105350F8041F01EA0A02FF21D5
:100EB0000BE000BF618D2068CBB250F8042F02EA2E
:100EC0000A0242EA03420BF592331A4342EA09024C
:100ED000FF270AF580650260218510E0618D20689A
:100EE000218550F8042FC9B22A4042EA01414FF04F
:100EF0000072114341EA09010160608D80B3204610
:100F0000042100224346009601F09AFC00287FF459
:100F10004CAF2068616A406A0870606A218D0130B8
:100F20006062481E2085618D01396185618D0029CF
:100F3000E3D00004E1D12046802100224346009600
:100F400001F07EFC00287FF430AF608DB0F5807F2B
:100F5000C4D32068278550F8041F5A462940C8E7A3
:100F600020464146324601F0DFFC00287FF41DAFE9
:100F700020682021C16142684EF60003CFF600636D
:100F80001A404260002084F8411084F8420084F83E
:100F9000400001B000F000B830BCBDE8C08F0000D8
:100FA0002DE9F04F81B0044690F8410020280DD182
:100FB000DDF828A0BAF1000F0CD0DDF82C80B8F1D4
:100FC000000F07D094F8400001280BD1022001B097
:100FD00000F0FAB84FF400706064012001B000F036
:100FE000F3B800BF01201D461746894684F840002B
:100FF000FFF77AFD216806468A6912044BD4212046
:101000000C9A84F8410040204FF0000B49F6004351
:1010100084F84200C4F844B0C4F824A0A4F82A809C
:10102000C4F834B0CFF6004390464A689A466FF34E
:101030009F29E8B2A3F5806349EA00401A401044B2
:1010400040F0807040F400504860204641463246EF
:1010500001F0A8FCA8B92068012D08D0390A8162E6
:1010600020464146324601F09DFC50B92068F9B255
:1010700081622046802100224346009601F0E0FB79
:1010800010B384F840B0012001B000F09DB800BF5B
:1010900088690004B3D5FFF727FD801B21681A2853
:1010A000F6D388690004F3D5606C40F020006064DA
:1010B000202084F84100002084F8420084F8400099
:1010C000012001B000F080B8608D0025B0F5807F70
:1010D000C0F2FF1508D320682B4650F8041F01EA20
:1010E0000A02FF210BE000BF618D2068CBB250F8EF
:1010F000042F02EA0A0242EA03424FF000731A4345
:1011000042EA0902FF270260218511E0618D206813
:10111000218550F8042FC9B202EA0A0242EA0141CD
:101120004FF00072114341EA09010160608D78B30C
:1011300020464146324601F035FC00287FF44DAF91
:10114000606A216810F8012B8A626062608D013844
:101150006085208D01382085618D0029E6D000044E
:10116000E4D12046802100224346009601F068FB2E
:1011700000287FF432AF608DB0F5807FC6D3206841
:10118000278550F8041F2A4601EA0A01CAE700BF72
:1011900020464146324601F0C7FB00287FF41DAFD0
:1011A00020682021C16142684EF60003CFF600633B
:1011B0001A404260002084F8411084F8420084F80C
:1011C000400001B000F000B830BCBDE8C08F0000A6
:1011D000006845F20041C4F20001884218BF704720
:1011E00080B541F25800C4F20200016821F40011F8
:1011F00001604FF090404FF40071FFF7DDFA4FF0BF
:1012000090404FF48061BDE88040FFF7D5BA000000
:1012100010B59CB0044602A804305021FFF7BCF979
:10122000206845F20041C4F20001884202D01CB09F
:1012300010BD00BF4020029002A800F079FB0028FA
:1012400018BFFFF79FFA41F24C04C4F20204206871
:1012500017A940F001002060206800F001001790FD
:1012600017984FF4C0601790122018900020199022
:1012700003201A9004201B904FF09040FFF752FB80
:10128000E06840F40010E060E06800F400100190B5
:1012900001981CB010BD000080B5032000F086FA54
:1012A000002000F009F800281CBF012080BD00F0DC
:1012B0000FFA002080BD00000020704740F6182083
:1012C000C2F20000016840F27802C2F2000201316D
:1012D0001378016040F6E01043F00101C2F2000013
:1012E000117000F079B800007047000070470000EE
:1012F00070470000F0B581B0022280F8362040F23D
:1013000020440746D0E90003C4F2010447F6004632
:101310002568C4F20006B04208BF01222A43012B0F
:10132000226007D0BA6AB2F5000F03D1C26822F476
:101330006062C260026942F00102026110224260F2
:10134000816140F20801C2F20001096841F259725C
:10135000CDF2B712A1FB0212910B4FF47A725143F6
:10136000C1F1040200210368DB0610D40368DB0628
:101370005CBF03685FEAC36309D4002A08BF032186
:10138000036822B113F0100302F10402EBD0C8B2DB
:10139000032806D0384601F057FB97F8360003289B
:1013A00002D1032001B0F0BD3868816841F010011E
:1013B0008160816841F002018160016941F00101B1
:1013C0000161016941F004010161012087F83600E3
:1013D000002001B0F0BD000010B540F22041C4F281
:1013E0000101044600680A6847F6004CC4F2000C8C
:1013F0006FF00203604508BF6FF0010302EA0300CB
:101400000860022084F83600204601F01DFB94F8A5
:101410003600032804BF032010BD2068816821F036
:1014200010018160816821F002018160012084F84F
:101430003600002010BD0000002804BF01207047C6
:1014400010B50446022084F83600204601F0FCFA6C
:1014500094F83600032804BF032010BD204600F096
:10146000E9F8002084F8360084F8350010BD00004B
:10147000704700007047000010B501680446086816
:10148000C0071CBF88685FEAC07031D10868800758
:1014900044BF88685FEA807032D40868400744BF60
:1014A00088685FEA407033D40868000744BF8868E2
:1014B0005FEA007034D40868C00644BF88685FEAF9
:1014C000C06035D40868800644BF88685FEA8060E1
:1014D00036D40868400646BF88685FEA406010BDA1
:1014E000402220464A60BDE81040FFF7C1BF00BF60
:1014F000012048602046FFF7F9FE2168C6E700BFDB
:10150000022048602046FFF7D9FE2168C5E700BFEA
:1015100004204860204600F0D9F82168C4E700BFE5
:10152000082048602046FFF7E3FE2168C3E700BFBC
:10153000102048602046FFF7D7FE2168C2E700BFB1
:10154000202048602046FFF795FF2168C1E7000092
:10155000002804BF012070472DE9F041044690F8AF
:10156000360028B9002084F83500204600F076F8CF
:10157000022084F83600D4E900C0D4F828E0DCF872
:101580000C30012804D0BEF5000F03D14FF4000E3B
:1015900023F01E036269A168D4E908564FF6FF776D
:1015A00041F23E18BA424FF2FE17CFF6197818BF33
:1015B00003EA0803CFF6197729433B403143194327
:1015C000014341EA0E0318B3012802D0BEF5000F13
:1015D00004D1D4E90301184340EA01034FF6FF7038
:1015E000824204D0D4E9060108431043034347F67E
:1015F0000040CCF80C30C4F20000E16A84450FD002
:10160000CCF82010012084F836000020BDE8F081DD
:101610002069E16908430343BEF5000FD9D0DDE737
:10162000226B11430162012084F836000020BDE8DE
:10163000F0810000006847F60041C4F200018842D2
:1016400018BF704741F25801C4F20201086820F047
:10165000004241200A6000F055B8000010B596B075
:10166000044601A804305021FEF796FF206847F693
:101670000041C4F20001884202D016B010BD00BF84
:101680004FF40070019001A800F052F9002818BF33
:10169000FFF778F841F25800C4F202000168002216
:1016A00041F0004101600068002100F0004000901E
:1016B0000098412000F04EF8412000F039F816B0B3
:1016C00010BD00000068C06970470000704700004E
:1016D00082B041F25800C4F20200816841F0010179
:1016E0008160816801F0010101910199016841F077
:1016F00080510160006800F080500090009802B0B6
:1017000070470000002848BF704700F01F01012209
:1017100002FA01F11C2202EAD0004EF28012CEF24F
:1017200000028150BFF34F8FBFF36F8F70470000EF
:10173000002848BF704700F01F01012202FA01F1A2
:101740001C2202EAD0004EF20012CEF200028150BA
:101750007047000010B54EF60C5CCEF2000CDCF8C1
:101760000030C3F3022E8EF00704042C28BF04249B
:10177000BEF103034FF0FF3E0EFA04F438BF00231E
:10178000A14399400EFA03F39A43114300F00F026C
:1017900000F160430901043A03F564436244002800
:1017A00048BF02F10C03197010BD00004EF60C5139
:1017B000CEF200010A684FF6FF031A4060F30A22D6
:1017C00042F0806040F0FD700860704747F2000111
:1017D000C4F200010A68B0F5007F02F4C06031D1A4
:1017E000B0F5007F2CD00868012262F34A2008601F
:1017F00040F20800C2F200000068322250434DF669
:101800008362C4F21B32A0FB0202900C4A695205AB
:1018100011D5421C0FD04A6952050CD558B14A69FE
:10182000520508D5012806D04A69520503D5022879
:10183000A0F10400EAD14869400544BF0320704785
:1018400000207047B0F5806FFAD00868022262F37A
:101850004A2008600020704747F21400C4F20000DC
:1018600050F8141C322221F4804140F8141C40F23C
:101870000801C2F20001096851434DF68362C4F2C7
:101880001B32A1FB0212910C0268920511D54A1C71
:101890000FD0026892050CD559B10268920508D59F
:1018A000012906D00268920503D50229A1F104019D
:1018B000EAD100680321800501EAE070704700006A
:1018C00047F20000C4F20000016841F48041016069
:1018D0007047000047F20000C4F20000006800F406
:1018E000C060704710B547F21402C4F200021268DB
:1018F0000C4628B1900558BFFFF7E2FF07E000BF94
:10190000900504D5FFF7A8FF002818BF10BD4EF6BC
:101910001050CEF200000168012C21F0040101609A
:1019200004BF30BF10BD40BF20BF20BF10BD0000AE
:101930002DE9F04381B00446407841F28807000762
:10194000C4F202071ED5E06B80B1B0F5400F14D091
:10195000B0F5000F40F0148157F87C0C40F4803053
:1019600047F87C0C4FF4000007E000BF201D002169
:1019700001F0C6FB814638B9E06B396821F44001BB
:10198000084338604FF00009A078800752D557F817
:10199000300C5FEAC0080BD457F8300C40F0805090
:1019A00047F8300C57F8300C00F080500090009849
:1019B00047F20005C4F20005286840F480702860F2
:1019C000FFF792F8064600BF2868C00508D4FFF765
:1019D0008BF8801B0228F7D94FF0030921E000BFE4
:1019E000B9F1000F1DD1B86810F4407011D0216D0D
:1019F00088420BD0B868B96820F4407041F4803157
:101A0000B960B96821F48031B960B860C00740F0AE
:101A1000BF80B868216D20F4407008434FF0000982
:101A2000B860B8F1000F05D457F8300C20F08050A2
:101A300047F8300C2168C8070ED1880714D48806EF
:101A40001AD4880520D4480526D448062CD4C805C5
:101A500032D4880438D449E03868226A20F0030080
:101A6000104338608807EAD53868626A20F00C00B5
:101A7000104338608806E4D53868A26A20F44060D4
:101A8000104338608805DED53868626B20F440204A
:101A9000104338604805D8D53868A26B20F4401050
:101AA000104338604806D2D53868E26A20F44050C6
:101AB00010433860C805CCD53868226B20F440301C
:101AC00010433860880411D53A68206C22F04062D7
:101AD0000243B0F1806F3A601ED0B0F1006F05D1C3
:101AE00057F87C0C40F4801047F87C0C480327D54D
:101AF0003A68606C22F040620243B0F1806F3A6055
:101B000016D0B0F1006F1BD157F87C0C40F4801058
:101B100047F87C0C14E000BF201D012101F0F0FA11
:101B20002168002818BF81464803E1D408E000BFBF
:101B3000201D012101F0E4FA2168002818BF814628
:101B4000480410D53868A26C20F040501043B2F120
:101B5000805F386007D1201D022101F0D1FA216891
:101B6000002818BF8146080405D53868E16C20F0CC
:101B7000804008433860484601B0BDE8F08300BFAC
:101B80004FF00109A07880073FF501AF52E700BF91
:101B9000FEF7AAFF064641F288354FF0030900BF61
:101BA000B86880073FF535AFFEF79EFF801BA8425F
:101BB000F6D936E72DE9F04381B000286BD042F228
:101BC0000008C4F202080446D8F800000D4600F0F0
:101BD000070088420CD2D8F8000020F00700284304
:101BE000C8F80000D8F8000000F00700A84252D161
:101BF000206841F2080910F00201C4F202090DD078
:101C0000A268D9F8003003F0F0039A4206D9D9F857
:101C1000003023F0F0031A43C9F80020C2072DD189
:101C200069B1A168D9F8002002F0F002914206D211
:101C3000D9F8002022F0F0021143C9F80010D8F8BA
:101C4000001001F00701A9420CD9D8F8001021F0CA
:101C500007012943C8F80010D8F8001001F0070167
:101C6000A94218D141071BD4000723D4D9F800009A
:101C7000D9F8041010F00C002CD131E06068002875
:101C80005ED0022800F07E80032840F0818059F861
:101C9000081C890158D4012001B0BDE8F08300BFC1
:101CA000D9F80010E26821F4E0611143C9F800108E
:101CB0000007DBD5D9F80000216920F4605040EA24
:101CC000C100C9F80000D9F80000D9F8041010F0DC
:101CD0000C0005D00C2829D101F00301012925D1E0
:101CE00059F8081C090703D4D9F88C10090A02E036
:101CF00059F8081C090944F2AC7201F00F01C0F652
:101D0000000252F8211000280A4618BF00220C28B1
:101D100071D1D9F8040000F00300022846D003284E
:101D200004BF41F20021C0F27A0143E0042857D0F9
:101D300008285BD141F20022C0F27A025BE000BFCA
:101D400059F8081C8907A6D5D9F8001021F003011D
:101D50000843C9F80000FEF7C7FE064641F288377F
:101D6000D9F80000616800F00C00B0EB810F15D0CD
:101D7000FEF7BAFE801BB842F2D9032001B0BDE8DD
:101D8000F08300BF59F8081C89037FF584AFDBE7B7
:101D900059F8081C49057FF57EAFD5E7206800F0AB
:101DA000020100297FF43DAF49E700BF42F2004144
:101DB000C0F2F401D9F80400D9F80420C0F30210ED
:101DC000C2F306225143D9F804200130B1FBF0F0F0
:101DD000C2F34161022202EB4101B0FBF1F20AE0E1
:101DE00042F20042C0F2F40205E000BF00220021EE
:101DF0000C283FF48EAFD9F8000044F29A71C0F37A
:101E00000310C0F60001085C00F01F0022FA00F188
:101E100040F20400C2F2000040F208020068C2F280
:101E20000002116001B0BDE8F043FFF745BA0000C1
:101E300041F20C01C4F2020151F8040C10F00C0242
:101E4000086805D00C2A29D100F00300012825D10B
:101E500051F80C0C000703D4D1F88800000A02E006
:101E600051F80C0C000944F2AC7300F00F00C0F6FE
:101E7000000353F82030002A184618BF00200C2A0F
:101E800018BF7047086800F00300022810D003282C
:101E900004BF41F20023C0F27A030DE0042A1FD0F0
:101EA000082A23D141F20020C0F27A00704700BF17
:101EB00042F20043C0F2F40308680A68C0F302105B
:101EC000C2F30622096801305A43B2FBF0F0C1F3B5
:101ED0004161022202EB4101B0FBF1F0704700BF0B
:101EE00042F20040C0F2F400704700BF002000231F
:101EF000C5E70000002804BF012070472DE9F0432A
:101F000083B041F200060446C4F20206B068F168EC
:101F1000227800F00C09D00601F003081ED42078C6
:101F2000C00700F08880B9F1080F00F07D80B9F19A
:101F30000C0F08BFB8F1030F76D06068B0F5803F92
:101F400007D0B0F5A02F40F05582306840F48020D3
:101F50003060306840F48030306056E2B9F1000FF4
:101F60001CD0B9F10C0F08BFB8F1010F16D0A16950
:101F70003068002900F0A08140F001003060FEF7D9
:101F8000B3FD05463068800700F1A881FEF7ACFD7F
:101F9000401B02284FF00300F4D95CE3306880074F
:101FA00003D5A069002800F0EF82256A3068000799
:101FB00000F14A81D6F89400000900F0F000854253
:101FC00000F248813068B9F1000F40F0080030603D
:101FD000306820F0F00040EA050030607068E16988
:101FE00020F47F4040EA0120706040F0BA82B06D7A
:101FF000C00000F15782B06D40F08050B065B06D08
:1020000000F0805002900298FFF764FCB16D21F05F
:102010008051B165B0F5007F00F04A82802D40F21A
:10202000878203208FE200BF3068800303D5606899
:10203000002800F0A982207880072DD5B9F1040F7F
:102040001CD0B9F10C0F08BFB8F1020F16D0E1682F
:102050003068002900F0E88140F480703060FEF7BD
:1020600043FD0546306840050FD4FEF73DFD401B9B
:1020700002284FF00300F5D9EDE200BF30684005BB
:1020800003D5E068002800F07F827068216920F0A5
:10209000F85040EA016070602078000760D4207832
:1020A000400779D42078800600F1B280A06A002829
:1020B00000F01283022840F02381F068E16A00F00A
:1020C00003028A4240F03481226B6FF00F0300F06C
:1020D000700103EB0212914240F02A81616B00F41F
:1020E000FE42B2EB012F40F02381A16B00F0784259
:1020F000B2EBC16F40F01C81E26B0023CFF6E073BE
:1021000003EA025200F4C001A2F50012914240F02D
:102110000F81216C4FF07E4202EA016100F0C06045
:1021200001F17E41884240F003813068800100F176
:10213000D382306840F080703060F06840F080708A
:10214000F060FEF7D1FC04463068800100F1C482E3
:10215000FEF7CAFC001B02284FF00300F4D97AE214
:102160006169D6F89400002900F0908040F00100E9
:10217000C6F89400FEF7B8FC054600BFD6F89400F8
:1021800080078CD4FEF7B0FC401B0228F6D9032050
:1021900003B0BDE8F08300BFB06D5FEAC00808D4AB
:1021A000B06D40F08050B065B06D00F08050009090
:1021B000009847F20007C4F200073868C00513D43E
:1021C000386840F480703860FEF78EFC054600BF2A
:1021D0003868C00508D4FEF787FC401B02284FF082
:1021E0000300F5D937E200BFA068012808D0052810
:1021F00040F0DE80D6F8900040F00400C6F8900071
:10220000D6F8900040F00100C6F89000DEE000BF74
:10221000616AD6F89800002900F0B48040F001000F
:10222000C6F89800FEF760FC054600BFD6F8980097
:1022300080073FF53BAFFEF757FC401B02284FF0ED
:102240000300F3D907E200BF306800F0F0008542D8
:102250007FF6B8AEB06DC00000F18680B06D40F082
:102260008050B065B06D00F0805001900198FFF78C
:1022700031FBB16D21F08051B165B0F5007F79D0AF
:10228000802D40F2E3800320EBE000BF20F001004E
:10229000C6F89400FEF728FC054600BFD6F8940067
:1022A00080077FF5FCAEFEF71FFC401B02284FF0B5
:1022B0000300F3D9CFE100BF20F001003060FEF74A
:1022C00013FC0546306880077FF529AEFEF70CFC4D
:1022D000401B02284FF00300F4D9BCE1306840F005
:1022E000080030603068D4E9071220F0F000104395
:1022F0003060706820F47F4040EA012070600EE694
:10230000B9F10C0F00F04081306820F0807030602F
:10231000FEF7EAFB044600BF3068800140F1EC8024
:10232000FEF7E2FB001B02284FF00300F4D992E114
:10233000B9F10C0F00F028813068400100F12481D0
:10234000306820F080703060FEF7CEFB054600BF9D
:102350003068800140F18281FEF7C6FB401B0228F5
:102360004FF00300F4D976E1FFF7B4FAB0F5007F3F
:102370007FF486AF812D73D30120A02D88BF02206A
:102380006FE000BF20F00100C6F89800FEF7ACFB3C
:10239000054600BFD6F8980080077FF587AEFEF7A8
:1023A000A3FB401B02284FF00300F3D953E100BF09
:1023B000D6F89010002821F00101C6F89010D6F848
:1023C000901021F00401C6F8901079D0FEF78CFB34
:1023D000054641F2883700BFD6F89000800700F12B
:1023E0008180FEF781FB401BB842F5D9032003B082
:1023F000BDE8F0833168002821F480313160316814
:1024000021F48021316000F08380FEF76DFB0546EA
:10241000306880033FF50FAEFEF766FB401B642873
:102420004FF00300F4D916E120F480703060FEF71D
:102430005BFB0546306840057FF52EAEFEF754FB8A
:10244000401B02284FF00300F4D904E1A5F170000D
:10245000B0FA80F04009802D08BF022001E000BFE3
:10246000002042F20001C4F202010A6822F00702D1
:1024700002440A60096801F00701814240F084804B
:10248000306840F0080030603068D4E9071220F06E
:10249000F00010433060706820F47F4040EA012073
:1024A00070605EE0FFF716FAB0F5007F7FF4B6AD1E
:1024B000812D47D30120A02D88BF022043E000BF1B
:1024C000FEF712FB054641F2883700BFD6F89000B0
:1024D000800707D5FEF708FB401BB8424FF003000A
:1024E000F4D9B8E0B8F1000F3FF5DCADB06D20F0E5
:1024F0008050B065D6E500BFF0684FF6FC71CFF6AE
:10250000EE610840F060002003B0BDE8F08300BF3A
:10251000FEF7EAFA054600BF306880037FF58BAD11
:10252000FEF7E2FA401B64284FF00300F4D992E072
:10253000A5F17000B0FA80F04009802D08BF02209C
:1025400001E000BF002042F20001C4F202010A686B
:1025500022F0070202440A60096801F00701814283
:1025600012D1B068F16810F00C0005D00C282BD106
:1025700001F00301012927D13168090708D4D6F8F1
:102580009410090A06E000BF012003B0BDE8F08303
:102590003168090944F2AC7201F00F01C0F6000283
:1025A00052F8211000280A4618BF00220C2837D103
:1025B000F06800F00300022810D0032804BF41F2A5
:1025C0000021C0F27A010DE004281FD0082823D191
:1025D00041F20022C0F27A0222E000BF42F2004142
:1025E000C0F2F401F068F268C0F30210C2F30622F0
:1025F0005143F2680130B1FBF0F0C2F341610222B5
:1026000002EB4101B0FBF1F20AE000BF42F20042EE
:10261000C0F2F40204E000BF002200210C28C7D061
:10262000B06844F29A71C0F30310C0F60001085C70
:1026300000F01F0022FA00F140F20400C2F2000094
:1026400040F208020068C2F200021160FEF734FE98
:1026500000283FF464AC03B0BDE8F083F06848F2B2
:102660008C01C0F29D1104F12C0700EA010C8ECF01
:102670006FF00F00D4E90F5400EB02100022CFF6E8
:10268000E07241EA0C0102EA05520843A2F5001289
:102690004FF07E4540EA032005EA0465104305F14A
:1026A0007E4540EAC7602843F060306840F08070A3
:1026B0003060F06840F08070F060FEF715FA044674
:1026C0003068800108D4FEF70FFA001B02284FF093
:1026D0000300F5D9BFE700BF002003B0BDE8F083D9
:1026E000FEE7000070B50446006815468369DA0607
:1026F00002D40021002266E00E461021C1618169EA
:1027000089065CD4711C50D02EBBFEF7EDF9206811
:10271000426894F8421083691B040BD512F480427E
:1027200008D1202906D0416841F480414160FEF77C
:10273000DBF9054620688169890605D4FEF7D4F9DE
:10274000401B1A28F6D328E081698906DDD536E0DA
:102750008169890633D4FEF7C7F9411B2068B1426D
:10276000F6D9426894F8421083691B040CD512F420
:10277000804209D1202907D0416841F4804141605D
:10278000FEF7B2F9054600BF206881698906DFD4EB
:10279000FEF7AAF9401B1A28F6D3206801228169A6
:1027A000242110E08169890609D48169890606D44B
:1027B000816989065CBF81695FEA8161F2D5202168
:1027C000C161012204218369DE0505D54FF48072C1
:1027D00041F00101C26101225E0505D49B050AD4C6
:1027E00072B9002070BD00BF41F008014FF4806253
:1027F0009B05C26104D541F002014FF40072C26131
:102800008269920744BF002282628269D20703D1A3
:10281000826942F00102826142684EF60003CFF6FF
:1028200000631A404260606C08436064202084F8B2
:102830004100002084F8420084F84000012070BD6F
:102840002DE9F04106460068144682690D461140A4
:10285000491BB1FA81F14909A14237D11F46591CE0
:102860002CD0BFBBFEF740F9306881692940491B75
:10287000B1FA81F14909A14247D080692840401B43
:10288000B0FA80F04009A042ECD01FE081692940F5
:10289000491BB1FA81F14909A14217D18169294047
:1028A000491BB1FA81F14909A1420FD1816929403F
:1028B000491BB1FA81F14909A14207D18169294037
:1028C000491BB1FA81F14909A142DFD00020BDE8DE
:1028D000F08100BFDDF8188008E000BF8069284063
:1028E000401BB0FA80F04009A042EFD1FEF7FCF89F
:1028F000A0EB08013068B942F0D981692940491B31
:10290000B1FA81F14909A142E8D1706C40F0200090
:102910007064202086F84100002086F8420086F886
:1029200040000120BDE8F08170B504460068806970
:10293000800635D415460E4619B928E08069800610
:102940002ED4204631462A46FFF7CCFE30BBFEF798
:10295000CBF8411B2068B142F0D981698906EDD4DA
:10296000606C40F020006064202084F8410000206A
:1029700084F8420084F84000012070BDFEF7B4F8EE
:10298000206881698906EBD58069800608D42046D5
:1029900000212A46FFF7A6FE0028EFD0012070BDD7
:1029A000002070BD70B5044600688069800714D4AB
:1029B00015460E46481C17D01EBB00BF20460021FE
:1029C0002A46FFF78FFEB8BBFEF78EF820688169B4
:1029D000890725D580698007F0D5002070BD00BF2C
:1029E000206880698007F8D420464FF0FF312A46DE
:1029F000FFF778FE0028F3D0012070BD80698007C2
:102A0000EBD4204631462A46FFF76CFEA0B9FEF70C
:102A10006BF8411B2068B142F0D981698907EDD478
:102A2000606C40F020006064202084F841000020A9
:102A300084F8420084F84000012070BD40F6E010A8
:102A4000C2F20000FEF718BD2DE9F04FEFF3108C35
:102A5000012181F31088026849F2004641F2880999
:102A6000C4F2000647F60043C4F20209B242C4F2BF
:102A700000031DD09A4237D1D9F80070D2F808E08F
:102A8000D2F80CA055699469D2F820B059F8501CBE
:102A900007F4402841F0004149F8501C59F8501CF7
:102AA00021F0004149F8501C55EA04012AD1B6E052
:102AB000D9F80010D2F808E0D2F80CA05569946952
:102AC000D2F820B059F84C7C01F4401847F02007A8
:102AD00049F84C7C59F84C7C27F0200149F84C1CF3
:102AE00055EA04010ED19AE0D2F808E0D2F80CA021
:102AF00055699469D2F820B04FF0000855EA0401F6
:102B000000F08D809A4205D0B2420AD16FF440178E
:102B100002E000BF6FF44027D9F800103940C9F82F
:102B20000010BDB31769414647F0010717615561B1
:102B300040F20805C2F200052D6841F25977CDF246
:102B4000B717A5FB0757BD0B4FF47A777D43C5F147
:102B50000408002517683F0713D417683F075CBFB8
:102B600017685FEA07770CD4B8F1000F08BF032598
:102B70001768B8F1000F04D017F0080708F104082F
:102B8000E8D0EDB2032D04BF032580F836500825A8
:102B90008846556094B3156940F2080145F0010577
:102BA00015619461C2F200010C6841F25971CDF2D5
:102BB000B711A4FB0114A10B4FF47A746143C1F166
:102BC000040500241168C90610D41168C9065CBF49
:102BD00011685FEAC16109D4002D08BF032417689A
:102BE00025B117F0100105F10405EBD0E1B203297E
:102BF00004BF032180F83610102050609A4205D09F
:102C0000B2420CD16FF4401002E000BF6FF44020DC
:102C1000D9F80010084040EA0800C9F8000010691F
:102C200020F001001061C2F808E0C2F80CA0C2F860
:102C300020B08CF3108800F000B830BCBDE8C08F25
:102C400070B540F27805C2F200056868002808BF38
:102C500070BD4EF21000CEF20000016841F2000695
:102C600021F00101016040F68C10C2F20000C4F2B4
:102C70000206FEF709F8044640F6E010C2F2000032
:102C8000FEF766FC316841F0010131604FF480319C
:102C90003268920712D43268920715D432689207CC
:102CA00018D432689207A1F1040202D40429114613
:102CB000EED140EA040092B97DE000BF4A1E40EA2E
:102CC000040062B977E000BF8A1E40EA040032B90E
:102CD00071E000BFCA1E002A40EA04006BD03168D0
:102CE000C90702D03168890765D53168092262F3C6
:102CF000C7013160B16821F00301B1604FF4803148
:102D0000B26812F00C0F11D0B26812F00C0F11D093
:102D1000B26812F00C0F4BD0B26812F00C0FA1F198
:102D2000040208D004291146EAD104E04A1E22B95F
:102D300041E000BF8A1E002A3DD031684FF2FF42B9
:102D4000CFF6FE22114031600021084336D140F217
:102D50001000C2F200000078022805D14FF4826012
:102D60004FF6E85168600BE095ED010A9FED151AEA
:102D7000B8EE400A20EE010ABCEEC00A10EE101AAE
:102D800040F6E010C2F20000FEF7B4FA40F68810F8
:102D9000C2F2000002210170002028704FF4804030
:102DA0000121FEF79FFDFFF743F8A86070BD00BF4B
:102DB000CA1E002AC1D101210843C8D0BDE8704015
:102DC000FDF7E0BC00007A4210B540F27804C2F290
:102DD00000046068002808BF10BDFEF73DFD18B173
:102DE000BDE81040FDF7CEBC41F20800C4F202007D
:102DF00050F8081C41F4807140F8081C4FF48031F1
:102E000050F8082C520511D450F8082C520511D452
:102E100050F8082C52053BD450F8082C5205A1F16B
:102E2000040208D404291146EAD104E04A1E2AB952
:102E300086E000BF8A1E002A00F08280416848F2C6
:102E40008C02CFF6FF12114001F60221416050F8CA
:102E5000081C41F0807140F8081C4FF4803100BF1D
:102E600050F8082C920117D450F8082C920117D46E
:102E700050F8082C920100F1998050F8082C92012A
:102E8000A1F104020DD404291146E9D109E000BFE3
:102E9000CA1E002AD2D153E04A1E22B950E000BF18
:102EA0008A1E002A4CD0416841F08071416001685F
:102EB00041F0030101600021CFF6FF710268026852
:102EC00002680268026802680268026802680268B2
:102ED00002680268026802680268026802680268A2
:102EE0000268026802680268026802680268026892
:102EF0000268026802680268026802680268026882
:102F00000268026802680268026802680268026871
:102F10000268026802680268026802680268026861
:102F20000268026802680268026802680268026851
:102F30000268026802680268026802684031BDD116
:102F400040F6E010C2F20000FEF776FA40F68C1070
:102F5000C2F20000FDF7B4FE2078C10714D100F0E2
:102F6000FE00207040F6E010C2F20000FEF7AAFB5F
:102F700000EE100A9FED101AB8EE400A80EE010A2A
:102F8000BCEEC00A84ED010A4EF21000CEF2000041
:102F9000016841F00101016040F68810C2F20000B2
:102FA00001210170FEF744FFE06010BDCA1E002A37
:102FB0007FF479AFC4E700BF00007A42B0B586B0B5
:102FC000002441F24C000594C4F202000168002282
:102FD00041F0010101600168082501F00101009143
:102FE0000099016841F0020101600068082100F0C9
:102FF0000200009000984FF09040FDF76FFD0195A2
:103000000125CDE90254049401AC4FF090402146D3
:10301000FDF788FC022001904FF40410CDE9020571
:1030200040F20040C4F600002146FDF77BFC07207B
:1030300005210022FEF78EFB0720FEF779FB06B084
:10304000B0BD000080B540F68C1045F20041C2F2E0
:103050000000C4F2000149F6EC420023C1F29002E4
:103060004FF0010C80E80E10C0E90433C0E90633CC
:103070000362FDF725FE002818BFFDF783FB40F62D
:103080008C10C2F200000021FDF7B4FD002818BF2B
:10309000FDF778FB40F68C10C2F200000021FDF72E
:1030A000CFFD002808BF80BDBDE88040FDF76ABBAA
:1030B00080B540F6E01047F60041C2F20000C4F2CD
:1030C000000100224FF4006380E80E004FF6FF710C
:1030D00041614FF48001C0E90821C0E90A2202637E
:1030E000FEF736FA002808BF80BDBDE88040FDF736
:1030F00049BB000000F042BBFEE70000FEE7000015
:10310000F0B581B041F20007C4F20207FA680D463B
:103110009107044614D0F868216800F00300884243
:103120004FF0010040F08F80002900F08C80F8689B
:103130006168C0F30210013088420BD120E000BF6B
:10314000206803280AD002283CD0012802D139681F
:1031500089070AD4012001B0F0BD00BF3968890396
:103160005CBF39685FEA4131F4D5F96862686FF095
:103170000F0321F0730103EB021211430843F860BF
:10318000386820F080603860FDF7AEFC064600BF6E
:103190003868000106D5FDF7A7FC801B0228F7D987
:1031A00048E000BF012D11D015BB386948F2FF017E
:1031B000C0F2FF71D4E90223084040EA022040EA4D
:1031C000C36026E039684905C4D5CEE748F2FF015F
:1031D0003869CFF6FF112269002301F1B461CFF6FF
:1031E000E0730840A16803EA0252A2F500120DE064
:1031F000386948F2FF016269CFF6FF114FF07E4354
:103200000840A16803EA026202F17E4240EA01201E
:1032100010433861386840F080603860FDF764FC26
:10322000054600BF3868000108D4FDF75DFC401B6F
:103230000228F7D9032001B0F0BD00BFA0693969A9
:1032400008433861002001B0F0BD000080B584B0B3
:103250008C460146DDE906E08DF80F20012813D0E9
:1032600000280ED1FF200DF10F02029040F68C10C5
:103270000092C2F2000062460123CDF804E0FDF79F
:103280008FFEC0B204B080BDFF20029040F68C10CB
:103290000093C2F2000062460123CDF804E0FDF77E
:1032A00067FD04B080BD00002DE9F04383B04FF00E
:1032B0000009012464200E2100220023CDE90049E9
:1032C000FFF7C4FF064644F2DC70C0F60000027847
:1032D0004778857890F8038064200F210023CDE99A
:1032E0000049FFF7B3FF064364200D213A4600234F
:1032F000CDE90049FFF7AAFF064364200B212A46C7
:103300000023CDE90049FFF7A1FF46EA000564204C
:103310000C2142460023CDE90049FFF797FF2843DF
:1033200003B0BDE8F0830000B0B584B001250DF115
:103330000F0364200E21002200950195FFF786FF00
:1033400040F288050446C2F2000508BB9DF80F2034
:10335000F2B1D00707D0287802F0FE0240F0010059
:1033600028708DF80F20900707D5287802F0FD020D
:1033700040F0020028708DF80F204FF0000C01245F
:1033800064200E210023CDE9004CFFF75FFF0446C7
:103390002878000707D5681C00F01CF92978044339
:1033A00001F0F7002870204604B0B0BD80B584B0AD
:1033B0004FF0010C0DF10F0364200E210022CDF817
:1033C00000C0CDF804C0FFF741FF00BB9DF80F001F
:1033D000E8B1C10740F28801C2F200011AD18207A8
:1033E0001ED4020722D4C20626D4800603D508784C
:1033F00040F0080008704FF0000C4FF0010E642000
:103400000E2100220023CDE900ECFFF71FFF04B0DE
:1034100080BD00BF0A7842F001020A708207E0D541
:103420000A7842F002020A700207DCD50A7842F0FC
:1034300010020A70C206D8D50A7842F004020A7057
:103440008006D4D4D7E700002DE9F04F85B00646BA
:10345000C1F3854018284FF0010000F2B480C1F399
:1034600007280C46B8F10C0F00F2AD8014F0E00113
:1034700040F0A980320E202A00F2A58006F47801DF
:10348000C90C022900F29F8006F0FC013B2900F2E2
:103490009A8006F47C41890A0E2900F29480200C5F
:1034A0000490300C0290F0B2CD214843C00A00EBEA
:1034B0008001A6EB410141EA001000274FF0010B0B
:1034C0000392C2B26420002100234FEA14294FEA7C
:1034D000162ACD25CDE900B7FFF7B8FE0746C6F39B
:1034E00007206843C00A00EB8001AAEB410141EAD2
:1034F0000010C2B26420012100230025CDE900B5EF
:10350000FFF7A4FE0743C6F30740CD214843C00A96
:10351000029A00EB8001A2EB410141EA0010C2B225
:1035200064200221002300254FF0CD0ACDE900B52B
:10353000FFF78CFE039A47EA00066420032100236C
:10354000CDE900B50027FFF781FE0643E0B200FB9E
:103550000AF0C00A00EB8001A4EB410141EA00102F
:10356000C2B2642004210023CDE900B7FFF76EFE4C
:10357000B8F10A0F28BF09F1F6090643B8F1090F9F
:1035800088BF49F010095FFA89F264200521002301
:10359000CDE900B7FFF75AFE46EA0005C4F307403D
:1035A00000FB0AF0C00A049A00EB8001A2EB410183
:1035B00041EA0010C2B2642006210023CDE900B721
:1035C000FFF744FE2843C0B205B000F000B830BC9D
:1035D000BDE8C08FF0B585B04FF0010460B105467D
:1035E00007260DF10D03642000210022CDE90064BF
:1035F000FFF72CFE044618B1204605B0F0BD00BF11
:103600009DF80D00012400F00F01000900EB80007F
:1036100001EB400CBCF13B0FEED89DF80E0000F022
:103620000F01000900EB800001EB400EBEF13B0FE3
:10363000E2D89DF80F0000F00F01000900EB8000B8
:1036400001EB4002172AD7D89DF81030202BD3D891
:103650009DF8110000F00F01000900EB800001EB64
:1036600040001F28C8D89DF8121001F00F06090964
:1036700001EB810106EB41010C29BDD89DF81360D7
:1036800006F00F07360906EB860607EB4606632EA3
:10369000B2D8002485F800C085F801E0AA70EB706C
:1036A00028716971AE71204605B0F0BD4EF68850A4
:1036B000CEF20000016841F4700101607047000023
:1036C000FEE70000F0B581B00F4634211D461646D6
:1036D0000446FCF761FF25F00300A0F10801A1609A
:1036E0000221C4E90660E16030444EF6EE61676095
:1036F000C4E9046640F8086DCFF6FF714460C6E97E
:10370000000100202062FCF71BFE45F24541C4F297
:103710005921216040F2B401C2F200010A6840F26E
:10372000B003C2F200032AB11F683E6B3C6306F18E
:103730002C0301E02746264601321C60C4E90B76C3
:103740000A60FCF705FE002001B0F0BD80B500F076
:10375000DDF800F03FFB40F29000C2F200000021D3
:10376000C0E90011C0E90211C0E90411C0E9061165
:10377000C0E90811C0E90A1180BD000010B540F28F
:103780000C04C2F20004206810F10F3F0DD04FF07E
:10379000F0302060FCF794FDFFF7D8FF40F2D8002E
:1037A000C2F200000168013101604FF0F03020608A
:1037B00040F2D050C2F20000006800F00BFE002082
:1037C0002060BDE81040FCF7CBBD00002DE9F04FB4
:1037D00081B0DDE90A5B91460F46DDF838A00C9E0A
:1037E000044628465946EF229846FCF7CDFE20466F
:1037F000B021FCF7D1FE0BEB05010139C4E90351FF
:103800000D9920208E423146A762C4E91198E662E4
:10381000C4E905BAC4F81CA018BF0021C4F89C0074
:103820000320206343F63150E163C4E92561C0F60B
:10383000000043F64511C4E91504C0F60001204616
:10384000FCF70EFEFCF77CFD45F24421C5F2484131
:10385000216040F2D401C2F200010A6840F2D003B4
:10386000C2F2000342B11F68D7F88C60C7F88C40E1
:1038700006F1880302E000BF274626461C60C4E923
:103880002276013240F2D8060A60C2F200060F9D8D
:103890003168012D01F10101316015D140F20C01B7
:1038A000C2F200010968EFF305821143B1F1F03F64
:1038B0001AD340F2C401C2F200010D68A5B1E96A51
:1038C000EE6BE96312E000BFFCF742FDFCF738FD48
:1038D000316801393160FCF73BFD00F09DF80020B4
:1038E00001B000F00FB800BF00250026FCF730FD46
:1038F000204600F0A9F8002D18BFEE63002001B0AB
:1039000000F000B830BCBDE8C08F0000B0B540F298
:10391000C004C2F2000400252020C4E9025040F295
:10392000D450C2F200008021C4E90055FCF734FEF7
:10393000C4E90455A561206AE56140F08570206204
:10394000B0BD000010B540F2C000C2F20000046833
:10395000D4E91110884740F2DC00C2F2000001688F
:1039600009B120468847FCF7EBFC01212163A163E4
:103970000021E16440F2D801C2F200010A6801327C
:103980000A60FCF7E5FCEFF3148020F0040080F3FC
:1039900014882046BDE8104000F0D2B8B0B5054606
:1039A000FCF7CEFC40F2C001C2F200010C6844B149
:1039B00040F20C01C2F200010968EFF305821143E5
:1039C00004D0FCF7C5FC1320B0BD00BF40F2D861A5
:1039D000C2F200018C42F4D0D5B140F2D801C2F25B
:1039E00000010A68002AECD1042222630122A263AA
:1039F0000022C4F88420E5640A6801320A60FCF7FA
:103A0000A7FC204600F09CF8D4F88400B0BD00BFAD
:103A1000FCF79EFC0020B0BD40F2D800C2F20000CE
:103A20000068002818BF704740F2C00040F2C4018F
:103A3000C2F20000C2F2000100680968884218BFA3
:103A4000FCF72EBD70470000F0B581B00546FCF7CD
:103A500077FC696E044605F14C0019B100F038FAA4
:103A600002E000BF0021016040F2D806C2F2000669
:103A7000306840F2C40701383060A96B286BC2F28D
:103A8000000749B1013802280DD3686B38B900200E
:103A9000A863286307E000BF28B1686B90B10020DD
:103AA0000321C5E90C1040F2C000C2F20000056815
:103AB0002046FCF74DFC3868854201D03068B8B329
:103AC00001B0F0BDE86A40F2D452C2F2000252F8EE
:103AD000201000232B6329B1486A4D620562C5E9B5
:103AE0000810E0E740F2C80E40F2CC0C0121C2F20F
:103AF000000EC2F2000C42F8205001FA00F2DEF88B
:103B00000010DCF8003011439842C5E90855CEF8A2
:103B10000010C8D23A68CCF800007AB1D16B884264
:103B2000C1D220463D60FCF713FC30680028C7D1A5
:103B300001B0BDE8F040FCF7B3BC00BF3D60B2E7A8
:103B40002DE9F04140F2C001C2F200010E680546C5
:103B5000FCF7F6FBAE4204460ED1284650F84C1F47
:103B6000013911F1030F98BF00F084F9E86940F2C0
:103B7000E801C2F20001086040F2D807C2F2000773
:103B8000386840F2C40801383860A86BC2F20008F7
:103B9000012816D1296AE86A0022A942AA6321D025
:103BA0006A6A4A62116240F2D452C2F2000252F8CA
:103BB0002030AB4208BF42F82010D8F80000A842DD
:103BC0006BD02046FCF7C4FBD8F80000864208BF43
:103BD000BDE8F081386808B1BDE8F081BDE8F0418A
:103BE000FCF75EBC40F2D451C2F2000141F8202043
:103BF00040F2C802C2F200020121136801FA00F08B
:103C000033EA000010600FD0414208400F2813D85B
:103C1000032888BF80084FEA50014FF0020288BF96
:103C200002EB500130E000BF40F2CC00C2F20000D5
:103C30002021016000203BE0FF2809D80421052253
:103C40003F2888BF062188BF0722D04001441BE0DF
:103C50000021B1EB104F07D10822B1EB103F18BF84
:103C60000C22D0400AE000BF1022B1EB106F18BF49
:103C70001822D0400F2884BF04320009032884BFD3
:103C80000232800802EB500140F2CC00C2F2000088
:103C90000160D8F80000A84293D140F2CC00C2F2F3
:103CA0000000006840F2D451C2F2000151F8200037
:103CB000C8F800002046FCF74BFB8BE710B540F23C
:103CC000C000C2F200000468FCF73AFB40F2EC01CD
:103CD000C2F2000100220A600CB1216B21B1BDE8E3
:103CE0001040FCF735BB00BFD4E9072140F2E803E0
:103CF000C2F20003A142A2611A60F0D0E26AE36B53
:103D00009A42ECD140F2CC0440F2D453C2F2000407
:103D1000C2F20003246843F8221053F8241040F242
:103D2000C402C2F200021160BDE81040FCF710BBF3
:103D300070B50446FCF704FB216B04290ED140F258
:103D4000D801C2F200010A6801320A60FCF700FBE8
:103D50002046BDE87040FFF777BE00BFA66ED4F8DE
:103D6000AC50FCF7F5FA002E08BF70BD3246204675
:103D70002946BDE87040104710B5FCF7E1FA40F263
:103D8000E401C2F200010C68FCF7E2FA204610BD23
:103D900010B50446FCF7D4FA40F2E401C2F2000187
:103DA0000C60BDE81040FCF7D3BA000080B5FCF70A
:103DB000C7FA40F2D801C2F200010A6801320A6073
:103DC000FCF7C6FA40F2D860C2F20000BDE88040BD
:103DD000FFF73ABE2DE9F04387B040F2586640F253
:103DE000E404C2F20006C2F200040025304680213D
:103DF0002560C4E90155C4E90355FCF7CDFB06F184
:103E00008000C4E9056640F2D86843F60D7644F6B2
:103E10004D1740F2887104F11C03C2F200080FF242
:103E20004009C0F60006C4F25417C2F200014FF474
:103E3000007227C304F1200207CACDE903258DE8EB
:103E400007004046494632463B460595FFF7BEFC13
:103E50000028EFD10020C4E90B0007B0BDE8F083D3
:103E600053797374656D2054696D6572205468725E
:103E7000656164000268511E11F1030F26D8836941
:103E8000002B18BF7047202A40F2FC02C2F2000249
:103E900088BF1F21126840F2F80302EB810140F253
:103EA0000012C2F200021268C2F200038A1A1B68F2
:103EB00028BF99180A682AB1536950611861C0E98E
:103EC000042302E0C0E9040008608161704700003B
:103ED0008169002908BF70470269824208D043699E
:103EE00053611A610B6883420AD0002181617047D7
:103EF0000A688242F9D100220A600021816170477C
:103F000091610A6000218161704700002DE9F04F46
:103F100083B044F64D11C4F2541188421CBF03B063
:103F200000F097B840F2FC0640F2F00540F2F409C8
:103F3000C2F200060024C2F200050DF1040AC2F22A
:103F400000090DF1080809E039683D4600296BD0E9
:103F5000FCF7FEF940F2FC06C2F20006FCF7F0F9AD
:103F600031680A68002A029218BFC2F818800C60F3
:103F700040F200123168C2F200021268043191422C
:103F8000316005D140F2F801C2F2000109683160E8
:103F90002F462C6001E000BF3046FCF7D9F9FCF752
:103FA000CFF9029D002DCFD0296900228D420192C8
:103FB00014D06A69C1F818804A6111612A680291B7
:103FC000212A10D3A2F120012960C5F818A02D6183
:103FD0000195C9F80050FCF7BBF918E000212A68E8
:103FE0000291212AEED2D5E9011BEE680029296051
:103FF0000FBF00212D6101955146A961C9F80050FC
:10400000FCF7A6F9BBF1000F01D03046D847FCF70A
:1040100097F901990646A942C9F80040BCD1284643
:10402000AC61FFF727FFB7E740F2D866C2F200069F
:1040300003213163012140F2D802B163C2F20002D0
:10404000116801311160FCF783F93046FFF778FD04
:1040500080E730BCBDE8C08F2DE9F04381B0074652
:1040600000284FF0020000F0A48088460899342907
:1040700040F09F8099461546FCF762F940F2D80659
:10408000C2F20006316801313160FCF761F940F29B
:10409000B001C2F2000140F2B4000A68C2F20000AE
:1040A0000068D11BB1FA81F100284FEA511418BF02
:1040B000BA4215D1FCF744F9316801393160FCF797
:1040C00047F9FFF7A9FC1CB1022001B0BDE8F0835D
:1040D000C5B3B9F1640F39D2052001B0BDE8F08352
:1040E000042100BFD26ACB1ED41BB4FA84F48342ED
:1040F0004FEA5414DED2BA42DCD0D26A8B1ED41BF3
:10410000B4FA84F483424FEA5414D3D2BA42D1D0E1
:10411000D26A4B1ED41BB4FA84F483424FEA54147F
:10412000C8D2BA42C6D0D26A8142A2EB0703B3FA20
:1041300083F34FEA5314BDD2BA4201F10401D1D145
:10414000B8E700BF032001B0BDE8F08340F2C00033
:10415000C2F20000016840F20C00C2F200000268E6
:10416000EFF305831A4313D040F2D8620068C2F21D
:104170000002EFF3058303430020914208BF1320A0
:10418000B3F1F03F38BF132013D3914206D110E0B2
:1041900040F2D860C2F20000814209D03846414660
:1041A0002A464B4601B0BDE8F043FFF78BBA00BF8B
:1041B000132001B0BDE8F0832DE9F04F87B007462A
:1041C00000284FF00E0051D08A461699B0294DD1E3
:1041D000DDE9104899469346FCF7B2F840F2D8065C
:1041E000C2F20006316801313160FCF7B1F840F2EB
:1041F000D400C2F2000040F2D0010068C2F2000117
:104200000D6808B308EB040101390022BD4218BF54
:10421000012A19D0EB689C4204D2002299420AD2AA
:104220000EE000BF2A6994424FF000023CBF012219
:104230000024994204D32B6999423CBF00240122F7
:10424000D5F888500138E1D1FCF77AF831680139A6
:104250003160FCF77DF8FFF7DFFBBD420AD0BBF110
:10426000000F4FF0030018BF002C07D107B000F07B
:1042700065B800BF0E2007B000F060B8B8F5807FC9
:1042800004D2052007B000F059B800BF12991F29C9
:1042900004D90F2007B000F051B800BF139A8A422A
:1042A00004D9182007B000F049B800BFDDF854C0A9
:1042B000BCF1010F04D9102007B000F03FB800BFD7
:1042C00040F2C000C2F20000036840F20C00C2F2EB
:1042D00000000568EFF305862E4313D040F2D86541
:1042E0000068C2F20005EFF3058606430020AB42EA
:1042F00008BF1320B6F1F03F38BF1320B6D3AB424E
:1043000006D1B3E740F2D860C2F20000834211D078
:104310001498CDE902120490384651465A464B464D
:10432000CDE90048CDF814C0FFF750FA07B000F00F
:1043300005B800BF132007B000F000B830BCBDE8DE
:10434000C08F000096B0FCF7A7FF05A80430242119
:10435000FCF722F94FF40070FDF738FA20B1EFF3C3
:10436000108072B6FEE700BF4FF4807108911021F3
:104370000991012111910A21022012910721059032
:10438000CDE90F00CDE91310159005A8FDF7B2FD9A
:1043900020B1EFF3108072B6FEE700BF0F2000904F
:1043A000032001900020CDE902000490684604211A
:1043B000FDF700FC20B1EFF3108072B6FEE700BFFE
:1043C000FEF7FCFDFEF73EFEFEF772FEFEF792FEE4
:1043D000FEE7000080B582B040F61C2040F6502277
:1043E0004FF0340CC2F200000AA1C2F200024FF4F6
:1043F0000073CDF800C0FFF72FFE48B940F61C202F
:10440000C2F20000FCF7A2F910B100BFFEE700BF46
:1044100002B080BD547820417070206D656D6F7260
:104420007920706F6F6C00002DE9F047FBF788FF73
:104430008046FBF785FF40F2FC01C2F200010C68E8
:1044400040F20011C2F20001D1F800C040F2F801C0
:10445000C2F20001D1F800E04FF0000A4FF0FF3542
:104460000CE000BF3D4600BF09F1040464450AF1B9
:10447000020A28BF7446BAF1200F71D026689EB395
:10448000AAF12007314600BF0A680969202A53466D
:1044900088BFBB189D4228BF1D46B14224D00A6880
:1044A0000969202A534688BFBB189D4228BF1D4674
:1044B000B14219D00B680969202B524688BFFA18FF
:1044C000954238BF2A46B1420CD00B680969202BAF
:1044D000554688BFFD18AA4238BF1546B142D3D110
:1044E00002E000BF154600BF04F10409E14528BF02
:1044F000F146D9F80020002AB6D04AF00104AAF10A
:104500001F01164633683669202B274688BFCF180F
:10451000BD4228BF3D469642A6D033683669202B5F
:10452000274688BFCF18BD4228BF3D4696429BD044
:1045300033683669202B274688BFCF18BD4238BF65
:104540002F4696428ED033683669202B254688BF89
:10455000CD18AF4238BF3D469642D3D184E700BF65
:10456000FBF7F6FE681C02D02846FCF7FDF840F683
:104570005040C2F20000012101604046FBF7E8FE16
:10458000BDE8F047FCF7E6B840F65040C2F2000044
:104590000168002908BF704780B500210160FCF761
:1045A000DBF8FCF7DBF80028BDE8804018BF00F01E
:1045B00001B87047002808BF70472DE9F04F81B05F
:1045C0008146FBF7BDFE40F2E401C2F200010A6839
:1045D0004A440A6040F2E801C2F200010A68009011
:1045E00022B1B2EB090098BF0120086040F2FC0044
:1045F000C2F20000066840F2001E40F2F80A4FF0D6
:10460000000BC2F2000EC2F2000A00204FF0000CB4
:104610001AE000BF49690028C1F810B031684DD0D8
:1046200042691161316849694161C6F800B0DEF83C
:1046300000200436DAF8001096420CF1020C28BF74
:104640000E46BCF1200F7BD03768E7B3ACF12004F5
:104650003B4600BF1A681969202A654688BFA5181D
:104660006A1CB9421A601DD00A680B69202A654687
:1046700088BFA5186A1CBB420A6013D01A68196962
:10468000202A654688BFA5186A1CB9421A6009D05D
:104690000A680B69202A654688BFA5186A1CBB42B8
:1046A0000A60D7D17969C1F810B0316840B1426968
:1046B000116131684969416103E000BF0846B4E710
:1046C0000846C6F800B0DEF80020311DDAF80060B8
:1046D000914238BF0E4631680029A8D04CF001083D
:1046E000ACF11F030F4600BF3D683A694446202DD8
:1046F00088BF5C1901348A423C603FF48BAF146878
:104700001769202C454688BF1D196C1C8F42146008
:104710003FF480AF3C683A69202C454688BF1D199C
:104720006C1C8A423C603FF475AF14681769202CFA
:10473000454688BF1D196C1C8F421460D4D169E7AF
:1047400040F2FC02C2F20002116070B1002400BF0E
:1047500001680569B1EB090198BF0121016084611D
:10476000FFF788FB002D2846F2D15DF8040B00F01E
:1047700002B8FBF7EDBD30BCBDE8C04FFFF7F9BF95
:10478000F1EE100A4FF6FF71C0F2C03120EA0100CD
:1047900040F04070E1EE100A704700000000000099
:1047A000000001020304060708090000A0860100BA
:1047B000400D0300801A060000350C0040420F0037
:1047C00080841E0000093D0000127A000024F400DD
:1047D00000366E010048E801006CDC022100000098
:1047E000004800080000002018000000F001000848
:1047F00018480008180000204012000010020008AD
:10480000010000001000000000093D00F0F0F0F091
:0848100002000000000000009E
:040000050800018D61
:00000001FF
